{"contractName":"CoinMachine","abi":[{"anonymous":false,"inputs":[],"name":"ExtensionInitialised","type":"event"},{"anonymous":false,"inputs":[{"indexed":true,"internalType":"address","name":"authority","type":"address"}],"name":"LogSetAuthority","type":"event"},{"anonymous":false,"inputs":[{"indexed":true,"internalType":"address","name":"owner","type":"address"}],"name":"LogSetOwner","type":"event"},{"anonymous":false,"inputs":[{"indexed":false,"internalType":"address","name":"user","type":"address"},{"indexed":false,"internalType":"address payable","name":"relayerAddress","type":"address"},{"indexed":false,"internalType":"bytes","name":"functionSignature","type":"bytes"}],"name":"MetaTransactionExecuted","type":"event"},{"anonymous":false,"inputs":[{"indexed":false,"internalType":"uint256","name":"activePeriod","type":"uint256"},{"indexed":false,"internalType":"uint256","name":"currentPeriod","type":"uint256"}],"name":"PeriodUpdated","type":"event"},{"anonymous":false,"inputs":[{"indexed":false,"internalType":"bool","name":"evolvePrice","type":"bool"}],"name":"PriceEvolutionSet","type":"event"},{"anonymous":false,"inputs":[{"indexed":true,"internalType":"address","name":"buyer","type":"address"},{"indexed":false,"internalType":"address","name":"token","type":"address"},{"indexed":false,"internalType":"uint256","name":"numTokens","type":"uint256"},{"indexed":false,"internalType":"uint256","name":"totalCost","type":"uint256"}],"name":"TokensBought","type":"event"},{"anonymous":false,"inputs":[{"indexed":false,"internalType":"address","name":"whitelist","type":"address"}],"name":"WhitelistSet","type":"event"},{"inputs":[],"name":"authority","outputs":[{"internalType":"contract DSAuthority","name":"","type":"address"}],"stateMutability":"view","type":"function"},{"inputs":[{"internalType":"address","name":"_user","type":"address"},{"internalType":"bytes","name":"_payload","type":"bytes"},{"internalType":"bytes32","name":"_sigR","type":"bytes32"},{"internalType":"bytes32","name":"_sigS","type":"bytes32"},{"internalType":"uint8","name":"_sigV","type":"uint8"}],"name":"executeMetaTransaction","outputs":[{"internalType":"bytes","name":"","type":"bytes"}],"stateMutability":"payable","type":"function"},{"inputs":[{"internalType":"bytes4","name":"_sig","type":"bytes4"}],"name":"getCapabilityRoles","outputs":[{"internalType":"bytes32","name":"","type":"bytes32"}],"stateMutability":"view","type":"function"},{"inputs":[],"name":"getChainId","outputs":[{"internalType":"uint256","name":"","type":"uint256"}],"stateMutability":"view","type":"function"},{"inputs":[],"name":"getColony","outputs":[{"internalType":"address","name":"","type":"address"}],"stateMutability":"view","type":"function"},{"inputs":[],"name":"getDeprecated","outputs":[{"internalType":"bool","name":"","type":"bool"}],"stateMutability":"view","type":"function"},{"inputs":[{"internalType":"bytes[]","name":"data","type":"bytes[]"}],"name":"multicall","outputs":[{"internalType":"bytes[]","name":"results","type":"bytes[]"}],"stateMutability":"nonpayable","type":"function"},{"inputs":[],"name":"owner","outputs":[{"internalType":"address","name":"","type":"address"}],"stateMutability":"view","type":"function"},{"inputs":[{"internalType":"contract DSAuthority","name":"authority_","type":"address"}],"name":"setAuthority","outputs":[],"stateMutability":"nonpayable","type":"function"},{"inputs":[{"internalType":"address","name":"owner_","type":"address"}],"name":"setOwner","outputs":[],"stateMutability":"nonpayable","type":"function"},{"inputs":[{"internalType":"address","name":"_owner","type":"address"},{"internalType":"uint256","name":"_nonce","type":"uint256"},{"internalType":"uint256","name":"_chainId","type":"uint256"},{"internalType":"bytes","name":"_payload","type":"bytes"},{"internalType":"bytes32","name":"_sigR","type":"bytes32"},{"internalType":"bytes32","name":"_sigS","type":"bytes32"},{"internalType":"uint8","name":"_sigV","type":"uint8"}],"name":"verify","outputs":[{"internalType":"bool","name":"","type":"bool"}],"stateMutability":"view","type":"function"},{"inputs":[{"internalType":"address","name":"_userAddress","type":"address"}],"name":"getMetatransactionNonce","outputs":[{"internalType":"uint256","name":"_nonce","type":"uint256"}],"stateMutability":"view","type":"function"},{"inputs":[],"name":"identifier","outputs":[{"internalType":"bytes32","name":"_identifier","type":"bytes32"}],"stateMutability":"pure","type":"function"},{"inputs":[],"name":"version","outputs":[{"internalType":"uint256","name":"_version","type":"uint256"}],"stateMutability":"pure","type":"function"},{"inputs":[{"internalType":"address","name":"_colony","type":"address"}],"name":"install","outputs":[],"stateMutability":"nonpayable","type":"function"},{"inputs":[],"name":"finishUpgrade","outputs":[],"stateMutability":"nonpayable","type":"function"},{"inputs":[{"internalType":"bool","name":"_deprecated","type":"bool"}],"name":"deprecate","outputs":[],"stateMutability":"nonpayable","type":"function"},{"inputs":[],"name":"uninstall","outputs":[],"stateMutability":"nonpayable","type":"function"},{"inputs":[{"internalType":"address","name":"_token","type":"address"},{"internalType":"address","name":"_purchaseToken","type":"address"},{"internalType":"uint256","name":"_periodLength","type":"uint256"},{"internalType":"uint256","name":"_windowSize","type":"uint256"},{"internalType":"uint256","name":"_targetPerPeriod","type":"uint256"},{"internalType":"uint256","name":"_maxPerPeriod","type":"uint256"},{"internalType":"uint256","name":"_userLimitFraction","type":"uint256"},{"internalType":"uint256","name":"_startingPrice","type":"uint256"},{"internalType":"address","name":"_whitelist","type":"address"}],"name":"initialise","outputs":[],"stateMutability":"nonpayable","type":"function"},{"inputs":[{"internalType":"address","name":"_whitelist","type":"address"}],"name":"setWhitelist","outputs":[],"stateMutability":"nonpayable","type":"function"},{"inputs":[{"internalType":"uint256","name":"_numTokens","type":"uint256"}],"name":"buyTokens","outputs":[],"stateMutability":"payable","type":"function"},{"inputs":[],"name":"updatePeriod","outputs":[],"stateMutability":"nonpayable","type":"function"},{"inputs":[],"name":"getPurchaseToken","outputs":[{"internalType":"address","name":"_token","type":"address"}],"stateMutability":"view","type":"function"},{"inputs":[],"name":"getToken","outputs":[{"internalType":"address","name":"_token","type":"address"}],"stateMutability":"view","type":"function"},{"inputs":[],"name":"getActivePeriod","outputs":[{"internalType":"uint256","name":"_period","type":"uint256"}],"stateMutability":"view","type":"function"},{"inputs":[],"name":"getActiveSold","outputs":[{"internalType":"uint256","name":"_sold","type":"uint256"}],"stateMutability":"view","type":"function"},{"inputs":[],"name":"getActiveIntake","outputs":[{"internalType":"uint256","name":"_intake","type":"uint256"}],"stateMutability":"view","type":"function"},{"inputs":[],"name":"getEMAIntake","outputs":[{"internalType":"uint256","name":"_amount","type":"uint256"}],"stateMutability":"view","type":"function"},{"inputs":[],"name":"getTokenBalance","outputs":[{"internalType":"uint256","name":"_balance","type":"uint256"}],"stateMutability":"view","type":"function"},{"inputs":[],"name":"getPeriodLength","outputs":[{"internalType":"uint256","name":"_length","type":"uint256"}],"stateMutability":"view","type":"function"},{"inputs":[],"name":"getWindowSize","outputs":[{"internalType":"uint256","name":"_size","type":"uint256"}],"stateMutability":"view","type":"function"},{"inputs":[],"name":"getTargetPerPeriod","outputs":[{"internalType":"uint256","name":"_target","type":"uint256"}],"stateMutability":"view","type":"function"},{"inputs":[],"name":"getMaxPerPeriod","outputs":[{"internalType":"uint256","name":"_max","type":"uint256"}],"stateMutability":"view","type":"function"},{"inputs":[],"name":"getCurrentPrice","outputs":[{"internalType":"uint256","name":"_price","type":"uint256"}],"stateMutability":"view","type":"function"},{"inputs":[],"name":"getSellableTokens","outputs":[{"internalType":"uint256","name":"_remaining","type":"uint256"}],"stateMutability":"view","type":"function"},{"inputs":[{"internalType":"address","name":"_user","type":"address"}],"name":"getUserLimit","outputs":[{"internalType":"uint256","name":"_max","type":"uint256"}],"stateMutability":"view","type":"function"},{"inputs":[{"internalType":"address","name":"_user","type":"address"}],"name":"getMaxPurchase","outputs":[{"internalType":"uint256","name":"_max","type":"uint256"}],"stateMutability":"view","type":"function"},{"inputs":[],"name":"getWhitelist","outputs":[{"internalType":"address","name":"_whitelist","type":"address"}],"stateMutability":"view","type":"function"},{"inputs":[],"name":"getEvolvePrice","outputs":[{"internalType":"bool","name":"_evolve","type":"bool"}],"stateMutability":"view","type":"function"},{"anonymous":false,"inputs":[{"indexed":false,"internalType":"address","name":"buyer","type":"address"},{"indexed":false,"internalType":"uint256","name":"numTokens","type":"uint256"},{"indexed":false,"internalType":"uint256","name":"totalCost","type":"uint256"}],"name":"TokensBought","type":"event"}],"bytecode":"0x608060405234801561001057600080fd5b50600180546001600160a01b031916339081179091556040517fce241d7ca1f669fee44b6fc00b8eba2df3bb514eed0f6f668f8f89096e81ed9490600090a2612af58061005e6000396000f3fe6080604052600436106102305760003560e01c806382b2e2571161012e578063b5b2f1ef116100ab578063e9587e861161006f578063e9587e8614610633578063eb91d37e14610653578063f51361c714610668578063f9f81e091461067d578063fcf6ba931461069c57600080fd5b8063b5b2f1ef146105a2578063bf7e214f146105b7578063bfd68ab7146105d7578063c6ea3b0b146105f5578063d01f63f51461061557600080fd5b8063a0e3ad26116100f2578063a0e3ad2614610500578063a5c56a2b14610515578063a83627de1461052a578063ac9650d81461053f578063b3eac1d81461056c57600080fd5b806382b2e257146104765780638469ddc71461048b578063854cff2f146104a05780638da5cb5b146104c05780639251cff4146104e057600080fd5b80632a1b8f9b116101bc5780633610724e116101805780633610724e146103cc57806354fd4d50146103df5780636281133d146103f35780637998a1c4146104235780637a9e5e4b1461045657600080fd5b80632a1b8f9b1461034e5780632a85c3661461036e5780632dfbb083146103835780633408e470146103a4578063340df28f146103b757600080fd5b806312defc731161020357806312defc73146102d157806313af4035146102e65780631f7ea81f1461030657806321df0da71461031b57806329287b461461033957600080fd5b80630a1e0c22146102355780630c53c51c1461026c5780630d638f301461028c578063114f6769146102a3575b600080fd5b34801561024157600080fd5b506004546001600160a01b03165b6040516001600160a01b0390911681526020015b60405180910390f35b61027f61027a366004612405565b6106bb565b60405161026391906124c9565b34801561029857600080fd5b506102a16108a4565b005b3480156102af57600080fd5b506102c36102be3660046124dc565b6109ce565b604051908152602001610263565b3480156102dd57600080fd5b50600e546102c3565b3480156102f257600080fd5b506102a16103013660046124dc565b610a10565b34801561031257600080fd5b506009546102c3565b34801561032757600080fd5b506010546001600160a01b031661024f565b34801561034557600080fd5b50600f546102c3565b34801561035a57600080fd5b506102a16103693660046124dc565b610a8c565b34801561037a57600080fd5b506008546102c3565b34801561038f57600080fd5b506102c361039e3660046124f9565b50600090565b3480156103b057600080fd5b50466102c3565b3480156103c357600080fd5b506102a1610b39565b6102a16103da366004612523565b610c39565b3480156103eb57600080fd5b5060086102c3565b3480156103ff57600080fd5b5061041361040e36600461253c565b6111cc565b6040519015158152602001610263565b34801561042f57600080fd5b507f9600bfe26d6984b5236952886f19c3d84b771865e505e2cb8f3a7137b7f3a4656102c3565b34801561046257600080fd5b506102a16104713660046124dc565b611320565b34801561048257600080fd5b506102c361139a565b34801561049757600080fd5b506005546102c3565b3480156104ac57600080fd5b506102a16104bb3660046124dc565b61140c565b3480156104cc57600080fd5b5060015461024f906001600160a01b031681565b3480156104ec57600080fd5b506102a16104fb3660046125d1565b611582565b34801561050c57600080fd5b506007546102c3565b34801561052157600080fd5b50600b546102c3565b34801561053657600080fd5b506102a16115e0565b34801561054b57600080fd5b5061055f61055a3660046125ee565b611710565b6040516102639190612663565b34801561057857600080fd5b506102c36105873660046124dc565b6001600160a01b031660009081526015602052604090205490565b3480156105ae57600080fd5b506102c36119aa565b3480156105c357600080fd5b5060005461024f906001600160a01b031681565b3480156105e357600080fd5b506003546001600160a01b031661024f565b34801561060157600080fd5b506102a16106103660046126c5565b6119d5565b34801561062157600080fd5b506011546001600160a01b031661024f565b34801561063f57600080fd5b506102c361064e3660046124dc565b611e56565b34801561065f57600080fd5b506102c3611ed0565b34801561067457600080fd5b50600d546102c3565b34801561068957600080fd5b50601154600160a01b900460ff16610413565b3480156106a857600080fd5b50600354600160a01b900460ff16610413565b60606106ea866106e0886001600160a01b031660009081526015602052604090205490565b46888888886111cc565b61074d5760405162461bcd60e51b815260206004820152602960248201527f6d6574617472616e73616374696f6e2d7369676e65722d7369676e617475726560448201526805adad2e6dac2e8c6d60bb1b60648201526084015b60405180910390fd5b61075686611f9a565b600080306001600160a01b0316877f02bcc191e283bfba76a1369ec8ba06566f33010645097c104c312753e04935e88a6040516020016107989392919061274b565b60408051601f19818403018152908290526107b291612784565b6000604051808303816000865af19150503d80600081146107ef576040519150601f19603f3d011682016040523d82523d6000602084013e6107f4565b606091505b5091509150816108575760405162461bcd60e51b815260206004820152602860248201527f636f6c6f6e792d6d65746174782d66756e6374696f6e2d63616c6c2d756e737560448201526718d8d95cdcd99d5b60c21b6064820152608401610744565b7f5845892132946850460bff5a0083f71031bc5bf9aadcd40f1de79423eac9b10b88610881611fc6565b89604051610891939291906127a0565b60405180910390a1979650505050505050565b6108ba336000356001600160e01b031916612069565b6108d65760405162461bcd60e51b8152600401610744906127cc565b6010546001600160a01b0316156109c05760006108f161139a565b905080156109be5760105460035460405163a9059cbb60e01b81526001600160a01b0391821660048201526024810184905291169063a9059cbb906044016020604051808303816000875af115801561094e573d6000803e3d6000fd5b505050506040513d601f19601f8201168201806040525081019061097291906127fa565b6109be5760405162461bcd60e51b815260206004820152601c60248201527f636f696e2d6d616368696e652d7472616e736665722d6661696c6564000000006044820152606401610744565b505b6003546001600160a01b0316ff5b6000806109d961139a565b905060006109e56119aa565b905060006109f285611e56565b9050610a0781610a028585612144565b612144565b95945050505050565b610a26336000356001600160e01b031916612069565b610a425760405162461bcd60e51b8152600401610744906127cc565b600180546001600160a01b0319166001600160a01b0383169081179091556040517fce241d7ca1f669fee44b6fc00b8eba2df3bb514eed0f6f668f8f89096e81ed9490600090a250565b610aa2336000356001600160e01b031916612069565b610abe5760405162461bcd60e51b8152600401610744906127cc565b6003546001600160a01b031615610b175760405162461bcd60e51b815260206004820152601b60248201527f657874656e73696f6e2d616c72656164792d696e7374616c6c656400000000006044820152606401610744565b600380546001600160a01b0319166001600160a01b0392909216919091179055565b610b4f336000356001600160e01b031916612069565b610b6b5760405162461bcd60e51b8152600401610744906127cc565b600360009054906101000a90046001600160a01b03166001600160a01b03166321df0da76040518163ffffffff1660e01b8152600401602060405180830381865afa158015610bbe573d6000803e3d6000fd5b505050506040513d601f19601f82011682018060405250810190610be29190612817565b601080546001600160a01b0319166001600160a01b0392909216919091179055670de0b6b3a7640000601255610c376000610c1b61139a565b118015610c325750600354600160a01b900460ff16155b61215b565b565b600354600160a01b900460ff1615610c935760405162461bcd60e51b815260206004820152601b60248201527f636f6c6f6e792d657874656e73696f6e2d6465707265636174656400000000006044820152606401610744565b610c9b6115e0565b6011546001600160a01b03161580610d2f57506011546001600160a01b031663673448dd610cc7611fc6565b6040516001600160e01b031960e084901b1681526001600160a01b039091166004820152602401602060405180830381865afa158015610d0b573d6000803e3d6000fd5b505050506040513d601f19601f82011682018060405250810190610d2f91906127fa565b610d7b5760405162461bcd60e51b815260206004820152601960248201527f636f696e2d6d616368696e652d756e617574686f7269736564000000000000006044820152606401610744565b6000610d886102be611fc6565b90506000610d968284612144565b90506000610da682600c546121c2565b905060008211610dfe573415610df857610dbe611fc6565b6001600160a01b03166108fc349081150290604051600060405180830381858888f19350505050158015610df6573d6000803e3d6000fd5b505b50505050565b80600e6000828254610e10919061284a565b9250508190555081600d6000828254610e29919061284a565b9091555050600954600d541115610e4257610e4261285d565b670de0b6b3a76400006012541015610eae578160136000828254610e66919061284a565b9091555082905060146000610e79611fc6565b6001600160a01b03166001600160a01b031681526020019081526020016000206000828254610ea8919061284a565b90915550505b610eb661139a565b8210610ec657610ec6600061215b565b6004546001600160a01b0316610fb65780341015610f265760405162461bcd60e51b815260206004820152601f60248201527f636f696e2d6d616368696e652d696e73756666696369656e742d66756e6473006044820152606401610744565b80341115610f7657610f36611fc6565b6001600160a01b03166108fc610f4c8334612873565b6040518115909202916000818181858888f19350505050158015610f74573d6000803e3d6000fd5b505b6003546040516001600160a01b039091169082156108fc029083906000818181858888f19350505050158015610fb0573d6000803e3d6000fd5b50611096565b6004546001600160a01b03166323b872dd610fcf611fc6565b60035460405160e084901b6001600160e01b03191681526001600160a01b03928316600482015291166024820152604481018490526064016020604051808303816000875af1158015611026573d6000803e3d6000fd5b505050506040513d601f19601f8201168201806040525081019061104a91906127fa565b6110965760405162461bcd60e51b815260206004820152601c60248201527f636f696e2d6d616368696e652d70757263686173652d6661696c6564000000006044820152606401610744565b6010546001600160a01b031663a9059cbb6110af611fc6565b6040516001600160e01b031960e084901b1681526001600160a01b039091166004820152602481018590526044016020604051808303816000875af11580156110fc573d6000803e3d6000fd5b505050506040513d601f19601f8201168201806040525081019061112091906127fa565b61116c5760405162461bcd60e51b815260206004820152601c60248201527f636f696e2d6d616368696e652d7472616e736665722d6661696c6564000000006044820152606401610744565b611174611fc6565b601054604080516001600160a01b039283168152602081018690529081018490529116907fc244d500136edffae7025aaf7fbd7a07193ac544a1d0cc3132cf2a32452d340c9060600160405180910390a25050505b50565b600080611249883089896040516020016111e99493929190612886565b60408051601f1981840301815282825280516020918201207f19457468657265756d205369676e6564204d6573736167653a0a33320000000084830152603c8085019190915282518085039091018152605c909301909152815191012090565b6040805160008082526020820180845284905260ff87169282019290925260608101889052608081018790529192509060019060a0016020604051602081039080840390855afa1580156112a1573d6000803e3d6000fd5b5050604051601f1901519150506001600160a01b0381166113045760405162461bcd60e51b815260206004820152601f60248201527f636f6c6f6e792d6d65746174782d696e76616c69642d7369676e6174757265006044820152606401610744565b6001600160a01b038a8116911614915050979650505050505050565b611336336000356001600160e01b031916612069565b6113525760405162461bcd60e51b8152600401610744906127cc565b600080546001600160a01b0319166001600160a01b038316908117825560405190917f1abebea81bfa2637f28358c371278fb15ede7ea8dd28d2e03b112ff6d936ada491a250565b6010546040516370a0823160e01b81523060048201526000916001600160a01b0316906370a0823190602401602060405180830381865afa1580156113e3573d6000803e3d6000fd5b505050506040513d601f19601f8201168201806040525081019061140791906128cc565b905090565b6003546001600160a01b031663ab2f7ae2611425611fc6565b6001806040518463ffffffff1660e01b8152600401611446939291906128e5565b602060405180830381865afa158015611463573d6000803e3d6000fd5b505050506040513d601f19601f8201168201806040525081019061148791906127fa565b6114d35760405162461bcd60e51b815260206004820152601c60248201527f636f696e2d6d616368696e652d63616c6c65722d6e6f742d726f6f74000000006044820152606401610744565b600354600160a01b900460ff161561152d5760405162461bcd60e51b815260206004820152601b60248201527f636f6c6f6e792d657874656e73696f6e2d6465707265636174656400000000006044820152606401610744565b601180546001600160a01b0319166001600160a01b0383169081179091556040519081527f29d77446d0fb0dcebabf25ce79ea69ba1382a4525d4acf615a38c89c798aef71906020015b60405180910390a150565b611598336000356001600160e01b031916612069565b6115b45760405162461bcd60e51b8152600401610744906127cc565b6003805482158015600160a01b0260ff60a01b19909216919091179091556111c9576111c9600061215b565b60006115ea6121e1565b600b549091508181106115fb575050565b601154600160a01b900460ff1661161e57600b82905561161e6000610c1b61139a565b81600b5410156116c957611636600654600e546121c2565b611657600654670de0b6b3a764000061164f9190612873565b600f546121c2565b611661919061284a565b600f55600b546000906001906116779085612873565b6116819190612873565b905080156116af576116ab61164f600654670de0b6b3a76400006116a59190612873565b836121f1565b600f555b82600b819055506116c4600f5460085461220b565b600c55505b6000600e819055600d5560408051828152602081018490527f5b873fc01d45058fe77f3883a91020f46d5a7385baac6ceab19748d1d0ae464a910160405180910390a15050565b6060600061171c611fc6565b90506060333014801561173857506001600160a01b0382163014155b1561179d577f02bcc191e283bfba76a1369ec8ba06566f33010645097c104c312753e04935e88260405160200161178b92919091825260601b6bffffffffffffffffffffffff1916602082015260340190565b60405160208183030381529060405290505b8367ffffffffffffffff8111156117b6576117b661232a565b6040519080825280602002602001820160405280156117e957816020015b60608152602001906001900390816117d45790505b50925060005b848110156119a157631592ca1b60e31b86868381811061181157611811612928565b9050602002810190611823919061293e565b61182c9161298c565b6001600160e01b0319160361188d5760405162461bcd60e51b815260206004820152602160248201527f636f6c6f6e792d6d756c746963616c6c2d63616e6e6f742d6d756c746963616c6044820152601b60fa1b6064820152608401610744565b600080308888858181106118a3576118a3612928565b90506020028101906118b5919061293e565b866040516020016118c8939291906129bc565b60408051601f19818403018152908290526118e291612784565b600060405180830381855af49150503d806000811461191d576040519150601f19603f3d011682016040523d82523d6000602084013e611922565b606091505b50915091508161196e5760448151101561193b57600080fd5b6004810190508080602001905181019061195591906129e3565b60405162461bcd60e51b815260040161074491906124c9565b8086848151811061198157611981612928565b60200260200101819052505050808061199990612a51565b9150506117ef565b50505092915050565b60006119b46121e1565b600b5410156119c45760006119c8565b600d545b6009546114079190612873565b6003546001600160a01b031663ab2f7ae26119ee611fc6565b6001806040518463ffffffff1660e01b8152600401611a0f939291906128e5565b602060405180830381865afa158015611a2c573d6000803e3d6000fd5b505050506040513d601f19601f82011682018060405250810190611a5091906127fa565b611a9c5760405162461bcd60e51b815260206004820152601c60248201527f636f696e2d6d616368696e652d63616c6c65722d6e6f742d726f6f74000000006044820152606401610744565b600b5415611aec5760405162461bcd60e51b815260206004820181905260248201527f636f696e2d6d616368696e652d616c72656164792d696e697469616c697365646044820152606401610744565b6001600160a01b038916611b425760405162461bcd60e51b815260206004820152601a60248201527f636f696e2d6d616368696e652d696e76616c69642d746f6b656e0000000000006044820152606401610744565b60008711611b925760405162461bcd60e51b815260206004820152601d60248201527f636f696e2d6d616368696e652d706572696f642d746f6f2d736d616c6c0000006044820152606401610744565b60008611611be25760405162461bcd60e51b815260206004820152601d60248201527f636f696e2d6d616368696e652d77696e646f772d746f6f2d736d616c6c0000006044820152606401610744565b6101ff861115611c345760405162461bcd60e51b815260206004820152601d60248201527f636f696e2d6d616368696e652d77696e646f772d746f6f2d6c617267650000006044820152606401610744565b60008511611c845760405162461bcd60e51b815260206004820152601d60248201527f636f696e2d6d616368696e652d7461726765742d746f6f2d736d616c6c0000006044820152606401610744565b84841015611cd45760405162461bcd60e51b815260206004820152601a60248201527f636f696e2d6d616368696e652d6d61782d746f6f2d736d616c6c0000000000006044820152606401610744565b670de0b6b3a7640000831115611d2c5760405162461bcd60e51b815260206004820152601c60248201527f636f696e2d6d616368696e652d6c696d69742d746f6f2d6c61726765000000006044820152606401610744565b60008311611d7c5760405162461bcd60e51b815260206004820152601c60248201527f636f696e2d6d616368696e652d6c696d69742d746f6f2d736d616c6c000000006044820152606401610744565b601080546001600160a01b03808c166001600160a01b03199283161790925560048054928b16929091169190911790556005879055611dc66002611dc188600161284a565b61220b565b6006556007869055600885905560098490556012839055600c829055611dea6121e1565b600b55600854611dfa90836121c2565b600f556001600160a01b03811615611e1557611e158161140c565b611e226000610c1b61139a565b6040517f690c4b6201f6a4c703f9d21c205d98a08dff8461e7a71e49c6d47cc8b894850190600090a1505050505050505050565b6000670de0b6b3a76400006012541480611e7957506011546001600160a01b0316155b611ec6576001600160a01b038216600090815260146020526040902054601354611eb790611ea561139a565b611eaf919061284a565b6012546121c2565b611ec19190612873565b611eca565b6000195b92915050565b600080611edb6121e1565b905080600b54101580611ef85750601154600160a01b900460ff16155b15611f05575050600c5490565b600f54600654600e54611f1891906121c2565b611f37600654670de0b6b3a7640000611f319190612873565b836121c2565b611f41919061284a565b905060006001600b5484611f559190612873565b611f5f9190612873565b90508015611f8657611f83611f31600654670de0b6b3a76400006116a59190612873565b91505b611f928260085461220b565b935050505090565b6001600160a01b0381166000908152601560205260408120805491611fbe83612a51565b919050555050565b6000363330148015611fd9575060348110155b1561206257600080368080601f01602080910402602001604051908101604052809392919081815260200183838082843760009201919091525050505082810160131901519091507f02bcc191e283bfba76a1369ec8ba06566f33010645097c104c312753e04935e881146120515733935050505090565b5001516001600160a01b0316919050565b3391505090565b6000306001600160a01b0384160361208357506001611eca565b6001546001600160a01b03908116908416036120a157506001611eca565b6000546001600160a01b03166120b957506000611eca565b60005460405163b700961360e01b81526001600160a01b0385811660048301523060248301526001600160e01b0319851660448301529091169063b700961390606401602060405180830381865afa158015612119573d6000803e3d6000fd5b505050506040513d601f19601f8201168201806040525081019061213d91906127fa565b9392505050565b600081831115612154578161213d565b5090919050565b601160149054906101000a900460ff161515811515146111c95760118054821515600160a01b0260ff60a01b199091161790556040517f5b4e200daa1a93764a810c35f18f2fcfb14b5e95df6ae7ac1ffdc8eec425babc9061157790831515815260200190565b6000670de0b6b3a76400006121d7848461221c565b61213d9190612a80565b6000600554426114079190612a80565b6000633b9aca006121d76122058583612a94565b84612283565b6000816121d784670de0b6b3a76400005b6000811580612240575082826122328183612a94565b925061223e9083612a80565b145b611eca5760405162461bcd60e51b815260206004820152601460248201527364732d6d6174682d6d756c2d6f766572666c6f7760601b6044820152606401610744565b6000612290600283612aab565b6000036122a9576b033b2e3c9fd0803ce80000006122ab565b825b90506122b8600283612a80565b91505b8115611eca576122cb83846122fc565b92506122d8600283612aab565b156122ea576122e781846122fc565b90505b6122f5600283612a80565b91506122bb565b60006b033b2e3c9fd0803ce80000006121d7848461221c565b6001600160a01b03811681146111c957600080fd5b634e487b7160e01b600052604160045260246000fd5b604051601f8201601f1916810167ffffffffffffffff811182821017156123695761236961232a565b604052919050565b600067ffffffffffffffff82111561238b5761238b61232a565b50601f01601f191660200190565b600082601f8301126123aa57600080fd5b81356123bd6123b882612371565b612340565b8181528460208386010111156123d257600080fd5b816020850160208301376000918101602001919091529392505050565b803560ff8116811461240057600080fd5b919050565b600080600080600060a0868803121561241d57600080fd5b853561242881612315565b9450602086013567ffffffffffffffff81111561244457600080fd5b61245088828901612399565b945050604086013592506060860135915061246d608087016123ef565b90509295509295909350565b60005b8381101561249457818101518382015260200161247c565b50506000910152565b600081518084526124b5816020860160208601612479565b601f01601f19169290920160200192915050565b60208152600061213d602083018461249d565b6000602082840312156124ee57600080fd5b813561213d81612315565b60006020828403121561250b57600080fd5b81356001600160e01b03198116811461213d57600080fd5b60006020828403121561253557600080fd5b5035919050565b600080600080600080600060e0888a03121561255757600080fd5b873561256281612315565b96506020880135955060408801359450606088013567ffffffffffffffff81111561258c57600080fd5b6125988a828b01612399565b9450506080880135925060a088013591506125b560c089016123ef565b905092959891949750929550565b80151581146111c957600080fd5b6000602082840312156125e357600080fd5b813561213d816125c3565b6000806020838503121561260157600080fd5b823567ffffffffffffffff8082111561261957600080fd5b818501915085601f83011261262d57600080fd5b81358181111561263c57600080fd5b8660208260051b850101111561265157600080fd5b60209290920196919550909350505050565b6000602080830181845280855180835260408601915060408160051b870101925083870160005b828110156126b857603f198886030184526126a685835161249d565b9450928501929085019060010161268a565b5092979650505050505050565b60008060008060008060008060006101208a8c0312156126e457600080fd5b89356126ef81612315565b985060208a01356126ff81612315565b975060408a0135965060608a0135955060808a0135945060a08a0135935060c08a0135925060e08a013591506101008a013561273a81612315565b809150509295985092959850929598565b6000845161275d818460208901612479565b919091019283525060601b6bffffffffffffffffffffffff19166020820152603401919050565b60008251612796818460208701612479565b9190910192915050565b6001600160a01b03848116825283166020820152606060408201819052600090610a079083018461249d565b602080825260149082015273191ccb585d5d1a0b5d5b985d5d1a1bdc9a5e995960621b604082015260600190565b60006020828403121561280c57600080fd5b815161213d816125c3565b60006020828403121561282957600080fd5b815161213d81612315565b634e487b7160e01b600052601160045260246000fd5b80820180821115611eca57611eca612834565b634e487b7160e01b600052600160045260246000fd5b81810381811115611eca57611eca612834565b8481526bffffffffffffffffffffffff198460601b166020820152826034820152600082516128bc816054850160208701612479565b9190910160540195945050505050565b6000602082840312156128de57600080fd5b5051919050565b6001600160a01b038416815260208101839052606081016008831061291a57634e487b7160e01b600052602160045260246000fd5b826040830152949350505050565b634e487b7160e01b600052603260045260246000fd5b6000808335601e1984360301811261295557600080fd5b83018035915067ffffffffffffffff82111561297057600080fd5b60200191503681900382131561298557600080fd5b9250929050565b6001600160e01b031981358181169160048510156129b45780818660040360031b1b83161692505b505092915050565b8284823760008382016000815283516129d9818360208801612479565b0195945050505050565b6000602082840312156129f557600080fd5b815167ffffffffffffffff811115612a0c57600080fd5b8201601f81018413612a1d57600080fd5b8051612a2b6123b882612371565b818152856020838501011115612a4057600080fd5b610a07826020830160208601612479565b600060018201612a6357612a63612834565b5060010190565b634e487b7160e01b600052601260045260246000fd5b600082612a8f57612a8f612a6a565b500490565b8082028115828204841417611eca57611eca612834565b600082612aba57612aba612a6a565b50069056fea264697066735822122061fb5669ed9be68dc5cbfc04d4c1dc87659b5149b2a292edb33aa7e44215fea664736f6c63430008140033","immutableReferences":{},"source":"/*\n  This file is part of The Colony Network.\n\n  The Colony Network is free software: you can redistribute it and/or modify\n  it under the terms of the GNU General Public License as published by\n  the Free Software Foundation, either version 3 of the License, or\n  (at your option) any later version.\n\n  The Colony Network is distributed in the hope that it will be useful,\n  but WITHOUT ANY WARRANTY; without even the implied warranty of\n  MERCHANTABILITY or FITNESS FOR A PARTICULAR PURPOSE.  See the\n  GNU General Public License for more details.\n\n  You should have received a copy of the GNU General Public License\n  along with The Colony Network. If not, see <http://www.gnu.org/licenses/>.\n*/\n\npragma solidity 0.8.20;\npragma experimental ABIEncoderV2;\n\nimport \"./../../lib/dappsys/erc20.sol\";\nimport \"./../common/BasicMetaTransaction.sol\";\nimport \"./ColonyExtension.sol\";\nimport \"./Whitelist.sol\";\n\n// ignore-file-swc-108\n\n\ncontract CoinMachine is ColonyExtension, BasicMetaTransaction {\n\n  // Events\n\n  event TokensBought(address indexed buyer, address token, uint256 numTokens, uint256 totalCost);\n  event PeriodUpdated(uint256 activePeriod, uint256 currentPeriod);\n  event PriceEvolutionSet(bool evolvePrice);\n  event WhitelistSet(address whitelist);\n\n  // Storage\n\n  address purchaseToken; // The token in which we receive payments, 0x0 for eth\n\n  uint256 periodLength; // Duration of a sale period in seconds (e.g. 3600 = 1 hour)\n  uint256 alpha; // WAD-denominated float between 0 and 1 that controls how quickly the EMA adjusts\n  uint256 windowSize; // In the long-term, 86% of the weighting will be in this window size\n\n  uint256 targetPerPeriod; // Target number of tokens to sell in a period\n  uint256 maxPerPeriod; // Maximum number of tokens sellable in a period\n\n  uint256 tokensToSell_DEPRECATED; // deprecated, replaced by ERC20(token).balanceOf(address(this))\n\n  uint256 activePeriod; // The active sale period\n  uint256 activePrice; // The active sale price (a WAD ratio of averageIntake / targetPerPeriod)\n\n  uint256 activeSold; // Tokens sold in the active period\n  uint256 activeIntake; // Payment received in the active period\n\n  uint256 emaIntake; // Averaged payment intake\n\n  address token; // The token we are selling\n\n  address whitelist; // Address of an optional whitelist\n\n  bool evolvePrice; // If we should evolve the price or not\n\n  uint256 userLimitFraction; // Limit an address can buy of the total amount (in WADs)\n  uint256 soldTotal; // Total tokens sold by the coin machine\n  mapping(address => uint256) soldUser; // Tokens sold to a particular user\n\n  mapping(address => uint256) metatransactionNonces;\n  /// @notice Gets the next nonce for a meta-transaction\n  /// @param _userAddress The user's address\n  /// @return _nonce The nonce\n  function getMetatransactionNonce(address _userAddress) override public view returns (uint256 _nonce){\n    return metatransactionNonces[_userAddress];\n  }\n\n  function incrementMetatransactionNonce(address user) override internal {\n    metatransactionNonces[user]++;\n  }\n\n  // Modifiers\n\n  modifier onlyRoot() {\n    require(colony.hasUserRole(msgSender(), 1, ColonyDataTypes.ColonyRole.Root), \"coin-machine-caller-not-root\");\n    _;\n  }\n\n  // Public\n\n  /// @notice Returns the identifier of the extension\n  /// @return _identifier The extension's identifier\n  function identifier() public override pure returns (bytes32 _identifier) {\n    return keccak256(\"CoinMachine\");\n  }\n\n  /// @notice Returns the version of the extension\n  /// @return _version The extension's version number\n  function version() public override pure returns (uint256 _version) {\n    return 8;\n  }\n\n  /// @notice Configures the extension\n  /// @param _colony The colony in which the extension holds permissions\n  function install(address _colony) public override auth {\n    require(address(colony) == address(0x0), \"extension-already-installed\");\n\n    colony = IColony(_colony);\n  }\n\n  /// @notice Called when upgrading the extension\n  function finishUpgrade() public override auth {\n    token = colony.getToken();\n    userLimitFraction = WAD;\n\n    setPriceEvolution(getTokenBalance() > 0 && !deprecated);\n  }\n\n  /// @notice Called when deprecating (or undeprecating) the extension\n  /// @param _deprecated Indicates whether the extension should be deprecated or undeprecated\n  function deprecate(bool _deprecated) public override auth {\n    deprecated = _deprecated;\n\n    if (_deprecated) { setPriceEvolution(false); }\n  }\n\n  /// @notice Called when uninstalling the extension\n  function uninstall() public override auth {\n    if (token != address(0x0)) {\n      uint256 tokenBalance = getTokenBalance();\n      if (tokenBalance > 0) {\n        require(\n          ERC20(token).transfer(address(colony), tokenBalance),\n          \"coin-machine-transfer-failed\"\n        );\n      }\n    }\n\n    selfdestruct(payable(address(colony)));\n  }\n\n  /// @notice Must be called before any sales can be made\n  /// @param _token The token we are selling. Cannot be ether\n  /// @param _purchaseToken The token to receive payments in. Use 0x0 for ether\n  /// @param _periodLength How long in seconds each period of the sale should last\n  /// @param _windowSize Characteristic number of periods that should be used for the moving average. In the long-term, 86% of the weighting will be in this window size. The higher the number, the slower the price will be to adjust\n  /// @param _targetPerPeriod The number of tokens to aim to sell per period\n  /// @param _maxPerPeriod The maximum number of tokens that can be sold per period\n  /// @param _userLimitFraction The fraction of the total sale that a single user can buy (in WAD)\n  /// @param _startingPrice The sale price to start at, expressed in units of _purchaseToken per token being sold, as a WAD\n  /// @param _whitelist Optionally an address of a whitelist contract to use can be provided. Pass 0x0 if no whitelist being used\n  function initialise(\n    address _token,\n    address _purchaseToken,\n    uint256 _periodLength,\n    uint256 _windowSize,\n    uint256 _targetPerPeriod,\n    uint256 _maxPerPeriod,\n    uint256 _userLimitFraction,\n    uint256 _startingPrice,\n    address _whitelist\n  )\n    public\n    onlyRoot\n  {\n    require(activePeriod == 0, \"coin-machine-already-initialised\");\n\n    require(_token != address(0x0), \"coin-machine-invalid-token\");\n    require(_periodLength > 0, \"coin-machine-period-too-small\");\n    require(_windowSize > 0, \"coin-machine-window-too-small\");\n    require(_windowSize <= 511, \"coin-machine-window-too-large\");\n    require(_targetPerPeriod > 0, \"coin-machine-target-too-small\");\n    require(_maxPerPeriod >= _targetPerPeriod, \"coin-machine-max-too-small\");\n    require(_userLimitFraction <= WAD, \"coin-machine-limit-too-large\");\n    require(_userLimitFraction > 0, \"coin-machine-limit-too-small\");\n\n    token = _token;\n    purchaseToken = _purchaseToken;\n\n    periodLength = _periodLength;\n    alpha = wdiv(2, _windowSize + 1); // Two ints enter, 1 WAD leaves\n    // In the long-term, 86% of the weighting will be in this window size. This is a 'standard' conversion\n    // used between SMAs and EMAs, as the center of mass of the weightings is the same if this is used.\n    windowSize = _windowSize;\n\n    targetPerPeriod = _targetPerPeriod;\n    maxPerPeriod = _maxPerPeriod;\n\n    userLimitFraction = _userLimitFraction;\n\n    activePrice = _startingPrice;\n    activePeriod = getCurrentPeriod();\n\n    emaIntake = wmul(targetPerPeriod, _startingPrice);\n\n    if (_whitelist != address(0x0)) { setWhitelist(_whitelist); }\n\n    setPriceEvolution(getTokenBalance() > 0 && !deprecated);\n\n    emit ExtensionInitialised();\n  }\n\n  /// @notice Set the address for an (optional) whitelist\n  /// @param _whitelist The address of the whitelist\n  function setWhitelist(address _whitelist) public onlyRoot notDeprecated {\n    whitelist = _whitelist;\n\n    emit WhitelistSet(_whitelist);\n  }\n\n  /// @notice Purchase tokens from Coin Machine.\n  /// @param _numTokens The number of tokens to purchase\n  function buyTokens(uint256 _numTokens) public payable notDeprecated {\n    updatePeriod();\n\n    require(\n      whitelist == address(0x0) || Whitelist(whitelist).isApproved(msgSender()),\n      \"coin-machine-unauthorised\"\n    );\n\n    uint256 maxPurchase = getMaxPurchase(msgSender());\n    uint256 numTokens = min(maxPurchase, _numTokens);\n    uint256 totalCost = wmul(numTokens, activePrice);\n\n    if (numTokens <= 0) {\n      if (msg.value > 0) { msgSender().transfer(msg.value); } // Refund any balance\n      return;\n    }\n\n    activeIntake += totalCost;\n    activeSold += numTokens;\n\n    assert(activeSold <= maxPerPeriod);\n\n    // Do userLimitFraction bookkeeping (only if needed)\n    if (userLimitFraction < WAD) {\n      soldTotal += numTokens;\n      soldUser[msgSender()] += numTokens;\n    }\n\n    // Check if we've sold out\n    if (numTokens >= getTokenBalance()) { setPriceEvolution(false); }\n\n    if (purchaseToken == address(0x0)) {\n      require(msg.value >= totalCost, \"coin-machine-insufficient-funds\");\n      if (msg.value > totalCost) { msgSender().transfer(msg.value - totalCost); } // Refund any balance\n      payable(address(colony)).transfer(totalCost);\n    } else {\n      require(ERC20(purchaseToken).transferFrom(msgSender(), address(colony), totalCost), \"coin-machine-purchase-failed\");\n    }\n\n    require(ERC20(token).transfer(msgSender(), numTokens), \"coin-machine-transfer-failed\");\n\n    // slither-disable-next-line reentrancy-unlimited-gas\n    emit TokensBought(msgSender(), token, numTokens, totalCost);\n  }\n\n  /// @notice Bring the token accounting current\n  function updatePeriod() public {\n    uint256 currentPeriod = getCurrentPeriod();\n    uint256 initialActivePeriod = activePeriod;\n\n    if (initialActivePeriod >= currentPeriod) {\n      return;\n    }\n\n    // If we're out of tokens or deprecated, don't update\n    if (!evolvePrice) {\n      activePeriod = currentPeriod;\n\n      // Are we still sold out?\n      setPriceEvolution(getTokenBalance() > 0 && !deprecated);\n    }\n\n\n    // We need to update the price if the active period is not the current one.\n    if (activePeriod < currentPeriod) {\n      emaIntake = wmul((WAD - alpha), emaIntake) + wmul(alpha, activeIntake); // wmul(wad, int) => int\n\n      // Handle any additional missed periods\n      uint256 periodGap = currentPeriod - activePeriod - 1;\n      if (periodGap != 0) {\n        emaIntake = wmul(wpow((WAD - alpha), periodGap), emaIntake);\n      }\n\n      activePeriod = currentPeriod;\n\n      // Update the price\n      activePrice = wdiv(emaIntake, targetPerPeriod);\n    }\n\n    activeIntake = 0;\n    activeSold = 0;\n\n    emit PeriodUpdated(initialActivePeriod, currentPeriod);\n  }\n\n  /// @notice Get the address of the token being used to make purchases\n  /// @return _token The token's address\n  function getPurchaseToken() public view returns (address _token) {\n    return purchaseToken;\n  }\n\n  /// @notice Get the address of the token being sold\n  /// @return _token The token's address\n  function getToken() public view returns (address _token) {\n    return token;\n  }\n\n  /// @notice Get the period that the price was last updated for or a purchase was made\n  /// @return _period The active period\n  function getActivePeriod() public view returns (uint256 _period) {\n    return activePeriod;\n  }\n\n  /// @notice Get the number of tokens sold in the period that the price was last updated for or a purchase was made\n  /// @return _sold Amount of tokens sold\n  function getActiveSold() public view returns (uint256 _sold) {\n    return activeSold;\n  }\n\n  /// @notice Get the number of tokens received in the period that the price was last updated for or a purchase was made\n  /// @return _intake Amount of tokens received\n  function getActiveIntake() public view returns (uint256 _intake) {\n    return activeIntake;\n  }\n\n  /// @notice Get the EMA of the number of tokens received each period\n  /// @return _amount Amount of tokens received\n  function getEMAIntake() public view returns (uint256 _amount) {\n    return emaIntake;\n  }\n\n  /// @notice Get the remaining balance of tokens\n  /// @return _balance Remaining token balance\n  function getTokenBalance() public view returns (uint256 _balance) {\n    return ERC20(token).balanceOf(address(this));\n  }\n\n  /// @notice Get the length of the sale period\n  /// @return _length Length of the sale period\n  function getPeriodLength() public view returns (uint256 _length) {\n    return periodLength;\n  }\n\n  /// @notice Get the size of the averaging window\n  /// @return _size Size of the averaging window\n  function getWindowSize() public view returns (uint256 _size) {\n    return windowSize;\n  }\n\n  /// @notice Get the target number of tokens to sell per period\n  /// @return _target Target number of tokens\n  function getTargetPerPeriod() public view returns (uint256 _target) {\n    return targetPerPeriod;\n  }\n\n  /// @notice Get the maximum number of tokens to sell per period\n  /// @return _max Maximum number of tokens\n  function getMaxPerPeriod() public view returns (uint256 _max) {\n    return maxPerPeriod;\n  }\n\n  /// @notice Get the current price per token\n  /// @return _price Current price\n  function getCurrentPrice() public view returns (uint256 _price) {\n    uint256 currentPeriod = getCurrentPeriod();\n\n    if (activePeriod >= currentPeriod || !evolvePrice) {\n      return activePrice;\n\n    // Otherwise, infer the new price\n    } else {\n      uint256 newIntake = emaIntake;\n\n      // Accommodate the activePeriod\n      newIntake = wmul((WAD - alpha), newIntake) + wmul(alpha, activeIntake);\n\n      // Accommodate periods between the activePeriod and the currentPeriod\n      uint256 periodGap = currentPeriod - activePeriod - 1;\n      if (periodGap != 0) {\n        newIntake = wmul(wpow((WAD - alpha), periodGap), newIntake);\n      }\n\n      return wdiv(newIntake, targetPerPeriod);\n    }\n  }\n\n  /// @notice Get the number of remaining tokens for sale this period\n  /// @return _remaining Tokens remaining\n  function getSellableTokens() public view returns (uint256 _remaining) {\n    return (maxPerPeriod - ((activePeriod >= getCurrentPeriod()) ? activeSold : 0));\n  }\n\n  /// @notice Get the maximum amount of tokens a user can purchase in total\n  /// @param _user The user's address\n  /// @return _max Maximum amount of tokens\n  function getUserLimit(address _user) public view returns (uint256 _max) {\n    return\n      (userLimitFraction == WAD || whitelist == address(0x0)) ?\n      UINT256_MAX :\n      wmul(getTokenBalance() + soldTotal, userLimitFraction) - soldUser[_user]\n    ;\n  }\n\n  /// @notice Get the maximum amount of tokens a user can purchase in a period\n  /// @param _user The user's address\n  /// @return _max Maximum amount of tokens\n  function getMaxPurchase(address _user) public view returns (uint256 _max) {\n    uint256 tokenBalance = getTokenBalance();\n    uint256 sellableTokens = getSellableTokens();\n    uint256 userLimit = getUserLimit(_user);\n    return min(userLimit, min(tokenBalance, sellableTokens));\n  }\n\n  /// @notice Get the address of the whitelist (if exists)\n  /// @return _whitelist Address of Whitelist contract\n  function getWhitelist() public view returns (address _whitelist) {\n    return whitelist;\n  }\n\n  /// @notice Get the evolvePrice boolean\n  /// @return _evolve The evolvePrice boolean\n  function getEvolvePrice() public view returns (bool _evolve) {\n    return evolvePrice;\n  }\n\n  // Internal\n\n  function setPriceEvolution(bool status) internal {\n    if (status != evolvePrice) {\n      evolvePrice = status;\n\n      emit PriceEvolutionSet(status);\n    }\n  }\n\n  function getCurrentPeriod() internal view returns (uint256) {\n    return block.timestamp / periodLength;\n  }\n\n  function wpow(uint256 x, uint256 n) internal pure returns (uint256) {\n    // Must convert WAD (10 ** 18) to RAY (10 ** 27) and back\n    return rpow(x * (10 ** 9), n) / (10 ** 9);\n  }\n}\n","sourcePath":"/home/alex/colony/subgraph/colonyNetwork/contracts/extensions/CoinMachine.sol","compiler":{"name":"solc","version":"0.8.20+commit.a1b79de6.Linux.g++"},"schemaVersion":"3.4.14","updatedAt":"2023-07-28T09:26:36.769Z","devdoc":{"kind":"dev","methods":{"buyTokens(uint256)":{"params":{"_numTokens":"The number of tokens to purchase"}},"deprecate(bool)":{"params":{"_deprecated":"Indicates whether the extension should be deprecated or undeprecated"}},"executeMetaTransaction(address,bytes,bytes32,bytes32,uint8)":{"params":{"_payload":"Function call to make via meta transaction","_sigR":"R part of the signature","_sigS":"S part of the signature","_sigV":"V part of the signature","_user":"Address of user trying to do meta transaction"}},"getActiveIntake()":{"returns":{"_intake":"Amount of tokens received"}},"getActivePeriod()":{"returns":{"_period":"The active period"}},"getActiveSold()":{"returns":{"_sold":"Amount of tokens sold"}},"getCurrentPrice()":{"returns":{"_price":"Current price"}},"getEMAIntake()":{"returns":{"_amount":"Amount of tokens received"}},"getEvolvePrice()":{"returns":{"_evolve":"The evolvePrice boolean"}},"getMaxPerPeriod()":{"returns":{"_max":"Maximum number of tokens"}},"getMaxPurchase(address)":{"params":{"_user":"The user's address"},"returns":{"_max":"Maximum amount of tokens"}},"getMetatransactionNonce(address)":{"params":{"_userAddress":"The user's address"},"returns":{"_nonce":"The nonce"}},"getPeriodLength()":{"returns":{"_length":"Length of the sale period"}},"getPurchaseToken()":{"returns":{"_token":"The token's address"}},"getSellableTokens()":{"returns":{"_remaining":"Tokens remaining"}},"getTargetPerPeriod()":{"returns":{"_target":"Target number of tokens"}},"getToken()":{"returns":{"_token":"The token's address"}},"getTokenBalance()":{"returns":{"_balance":"Remaining token balance"}},"getUserLimit(address)":{"params":{"_user":"The user's address"},"returns":{"_max":"Maximum amount of tokens"}},"getWhitelist()":{"returns":{"_whitelist":"Address of Whitelist contract"}},"getWindowSize()":{"returns":{"_size":"Size of the averaging window"}},"identifier()":{"returns":{"_identifier":"The extension's identifier"}},"initialise(address,address,uint256,uint256,uint256,uint256,uint256,uint256,address)":{"params":{"_maxPerPeriod":"The maximum number of tokens that can be sold per period","_periodLength":"How long in seconds each period of the sale should last","_purchaseToken":"The token to receive payments in. Use 0x0 for ether","_startingPrice":"The sale price to start at, expressed in units of _purchaseToken per token being sold, as a WAD","_targetPerPeriod":"The number of tokens to aim to sell per period","_token":"The token we are selling. Cannot be ether","_userLimitFraction":"The fraction of the total sale that a single user can buy (in WAD)","_whitelist":"Optionally an address of a whitelist contract to use can be provided. Pass 0x0 if no whitelist being used","_windowSize":"Characteristic number of periods that should be used for the moving average. In the long-term, 86% of the weighting will be in this window size. The higher the number, the slower the price will be to adjust"}},"install(address)":{"params":{"_colony":"The colony in which the extension holds permissions"}},"setWhitelist(address)":{"params":{"_whitelist":"The address of the whitelist"}},"version()":{"returns":{"_version":"The extension's version number"}}},"version":1},"userdoc":{"kind":"user","methods":{"buyTokens(uint256)":{"notice":"Purchase tokens from Coin Machine."},"deprecate(bool)":{"notice":"Called when deprecating (or undeprecating) the extension"},"executeMetaTransaction(address,bytes,bytes32,bytes32,uint8)":{"notice":"Main function to be called when user wants to execute meta transaction. The actual function to be called should be passed as param with name functionSignature Here the basic signature recovery is being used. Signature is expected to be generated using personal_sign method."},"finishUpgrade()":{"notice":"Called when upgrading the extension"},"getActiveIntake()":{"notice":"Get the number of tokens received in the period that the price was last updated for or a purchase was made"},"getActivePeriod()":{"notice":"Get the period that the price was last updated for or a purchase was made"},"getActiveSold()":{"notice":"Get the number of tokens sold in the period that the price was last updated for or a purchase was made"},"getCurrentPrice()":{"notice":"Get the current price per token"},"getEMAIntake()":{"notice":"Get the EMA of the number of tokens received each period"},"getEvolvePrice()":{"notice":"Get the evolvePrice boolean"},"getMaxPerPeriod()":{"notice":"Get the maximum number of tokens to sell per period"},"getMaxPurchase(address)":{"notice":"Get the maximum amount of tokens a user can purchase in a period"},"getMetatransactionNonce(address)":{"notice":"Gets the next nonce for a meta-transaction"},"getPeriodLength()":{"notice":"Get the length of the sale period"},"getPurchaseToken()":{"notice":"Get the address of the token being used to make purchases"},"getSellableTokens()":{"notice":"Get the number of remaining tokens for sale this period"},"getTargetPerPeriod()":{"notice":"Get the target number of tokens to sell per period"},"getToken()":{"notice":"Get the address of the token being sold"},"getTokenBalance()":{"notice":"Get the remaining balance of tokens"},"getUserLimit(address)":{"notice":"Get the maximum amount of tokens a user can purchase in total"},"getWhitelist()":{"notice":"Get the address of the whitelist (if exists)"},"getWindowSize()":{"notice":"Get the size of the averaging window"},"identifier()":{"notice":"Returns the identifier of the extension"},"initialise(address,address,uint256,uint256,uint256,uint256,uint256,uint256,address)":{"notice":"Must be called before any sales can be made"},"install(address)":{"notice":"Configures the extension"},"setWhitelist(address)":{"notice":"Set the address for an (optional) whitelist"},"uninstall()":{"notice":"Called when uninstalling the extension"},"updatePeriod()":{"notice":"Bring the token accounting current"},"version()":{"notice":"Returns the version of the extension"}},"version":1}}