{
  "contractName": "VotingReputation",
  "abi": [
    {
      "anonymous": false,
      "inputs": [],
      "name": "ExtensionInitialised",
      "type": "event"
    },
    {
      "anonymous": false,
      "inputs": [
        {
          "indexed": true,
          "internalType": "address",
          "name": "authority",
          "type": "address"
        }
      ],
      "name": "LogSetAuthority",
      "type": "event"
    },
    {
      "anonymous": false,
      "inputs": [
        {
          "indexed": true,
          "internalType": "address",
          "name": "owner",
          "type": "address"
        }
      ],
      "name": "LogSetOwner",
      "type": "event"
    },
    {
      "anonymous": false,
      "inputs": [
        {
          "indexed": false,
          "internalType": "address",
          "name": "user",
          "type": "address"
        },
        {
          "indexed": false,
          "internalType": "address payable",
          "name": "relayerAddress",
          "type": "address"
        },
        {
          "indexed": false,
          "internalType": "bytes",
          "name": "functionSignature",
          "type": "bytes"
        }
      ],
      "name": "MetaTransactionExecuted",
      "type": "event"
    },
    {
      "anonymous": false,
      "inputs": [
        {
          "indexed": true,
          "internalType": "uint256",
          "name": "motionId",
          "type": "uint256"
        },
        {
          "indexed": false,
          "internalType": "address",
          "name": "creator",
          "type": "address"
        },
        {
          "indexed": true,
          "internalType": "uint256",
          "name": "domainId",
          "type": "uint256"
        }
      ],
      "name": "MotionCreated",
      "type": "event"
    },
    {
      "anonymous": false,
      "inputs": [
        {
          "indexed": true,
          "internalType": "uint256",
          "name": "motionId",
          "type": "uint256"
        },
        {
          "indexed": false,
          "internalType": "address",
          "name": "escalator",
          "type": "address"
        },
        {
          "indexed": true,
          "internalType": "uint256",
          "name": "domainId",
          "type": "uint256"
        },
        {
          "indexed": true,
          "internalType": "uint256",
          "name": "newDomainId",
          "type": "uint256"
        }
      ],
      "name": "MotionEscalated",
      "type": "event"
    },
    {
      "anonymous": false,
      "inputs": [
        {
          "indexed": true,
          "internalType": "uint256",
          "name": "motionId",
          "type": "uint256"
        },
        {
          "indexed": false,
          "internalType": "uint256",
          "name": "eventIndex",
          "type": "uint256"
        }
      ],
      "name": "MotionEventSet",
      "type": "event"
    },
    {
      "anonymous": false,
      "inputs": [
        {
          "indexed": true,
          "internalType": "uint256",
          "name": "motionId",
          "type": "uint256"
        },
        {
          "indexed": false,
          "internalType": "bytes",
          "name": "action",
          "type": "bytes"
        },
        {
          "indexed": false,
          "internalType": "bool",
          "name": "executed",
          "type": "bool"
        }
      ],
      "name": "MotionFinalized",
      "type": "event"
    },
    {
      "anonymous": false,
      "inputs": [
        {
          "indexed": true,
          "internalType": "uint256",
          "name": "motionId",
          "type": "uint256"
        },
        {
          "indexed": true,
          "internalType": "address",
          "name": "staker",
          "type": "address"
        },
        {
          "indexed": true,
          "internalType": "uint256",
          "name": "vote",
          "type": "uint256"
        },
        {
          "indexed": false,
          "internalType": "uint256",
          "name": "amount",
          "type": "uint256"
        }
      ],
      "name": "MotionRewardClaimed",
      "type": "event"
    },
    {
      "anonymous": false,
      "inputs": [
        {
          "indexed": true,
          "internalType": "uint256",
          "name": "motionId",
          "type": "uint256"
        },
        {
          "indexed": true,
          "internalType": "address",
          "name": "staker",
          "type": "address"
        },
        {
          "indexed": true,
          "internalType": "uint256",
          "name": "vote",
          "type": "uint256"
        },
        {
          "indexed": false,
          "internalType": "uint256",
          "name": "amount",
          "type": "uint256"
        }
      ],
      "name": "MotionStaked",
      "type": "event"
    },
    {
      "anonymous": false,
      "inputs": [
        {
          "indexed": true,
          "internalType": "uint256",
          "name": "motionId",
          "type": "uint256"
        },
        {
          "indexed": true,
          "internalType": "address",
          "name": "voter",
          "type": "address"
        },
        {
          "indexed": true,
          "internalType": "uint256",
          "name": "vote",
          "type": "uint256"
        }
      ],
      "name": "MotionVoteRevealed",
      "type": "event"
    },
    {
      "anonymous": false,
      "inputs": [
        {
          "indexed": true,
          "internalType": "uint256",
          "name": "motionId",
          "type": "uint256"
        },
        {
          "indexed": true,
          "internalType": "address",
          "name": "voter",
          "type": "address"
        }
      ],
      "name": "MotionVoteSubmitted",
      "type": "event"
    },
    {
      "inputs": [],
      "name": "authority",
      "outputs": [
        {
          "internalType": "contract DSAuthority",
          "name": "",
          "type": "address"
        }
      ],
      "stateMutability": "view",
      "type": "function"
    },
    {
      "inputs": [
        {
          "internalType": "address",
          "name": "_user",
          "type": "address"
        },
        {
          "internalType": "bytes",
          "name": "_payload",
          "type": "bytes"
        },
        {
          "internalType": "bytes32",
          "name": "_sigR",
          "type": "bytes32"
        },
        {
          "internalType": "bytes32",
          "name": "_sigS",
          "type": "bytes32"
        },
        {
          "internalType": "uint8",
          "name": "_sigV",
          "type": "uint8"
        }
      ],
      "name": "executeMetaTransaction",
      "outputs": [
        {
          "internalType": "bytes",
          "name": "",
          "type": "bytes"
        }
      ],
      "stateMutability": "payable",
      "type": "function"
    },
    {
      "inputs": [
        {
          "internalType": "bytes4",
          "name": "_sig",
          "type": "bytes4"
        }
      ],
      "name": "getCapabilityRoles",
      "outputs": [
        {
          "internalType": "bytes32",
          "name": "",
          "type": "bytes32"
        }
      ],
      "stateMutability": "view",
      "type": "function"
    },
    {
      "inputs": [],
      "name": "getChainId",
      "outputs": [
        {
          "internalType": "uint256",
          "name": "",
          "type": "uint256"
        }
      ],
      "stateMutability": "view",
      "type": "function"
    },
    {
      "inputs": [],
      "name": "getColony",
      "outputs": [
        {
          "internalType": "address",
          "name": "",
          "type": "address"
        }
      ],
      "stateMutability": "view",
      "type": "function"
    },
    {
      "inputs": [],
      "name": "getDeprecated",
      "outputs": [
        {
          "internalType": "bool",
          "name": "",
          "type": "bool"
        }
      ],
      "stateMutability": "view",
      "type": "function"
    },
    {
      "inputs": [
        {
          "internalType": "bytes[]",
          "name": "data",
          "type": "bytes[]"
        }
      ],
      "name": "multicall",
      "outputs": [
        {
          "internalType": "bytes[]",
          "name": "results",
          "type": "bytes[]"
        }
      ],
      "stateMutability": "nonpayable",
      "type": "function"
    },
    {
      "inputs": [],
      "name": "owner",
      "outputs": [
        {
          "internalType": "address",
          "name": "",
          "type": "address"
        }
      ],
      "stateMutability": "view",
      "type": "function"
    },
    {
      "inputs": [
        {
          "internalType": "contract DSAuthority",
          "name": "authority_",
          "type": "address"
        }
      ],
      "name": "setAuthority",
      "outputs": [],
      "stateMutability": "nonpayable",
      "type": "function"
    },
    {
      "inputs": [
        {
          "internalType": "address",
          "name": "owner_",
          "type": "address"
        }
      ],
      "name": "setOwner",
      "outputs": [],
      "stateMutability": "nonpayable",
      "type": "function"
    },
    {
      "inputs": [
        {
          "internalType": "address",
          "name": "_owner",
          "type": "address"
        },
        {
          "internalType": "uint256",
          "name": "_nonce",
          "type": "uint256"
        },
        {
          "internalType": "uint256",
          "name": "_chainId",
          "type": "uint256"
        },
        {
          "internalType": "bytes",
          "name": "_payload",
          "type": "bytes"
        },
        {
          "internalType": "bytes32",
          "name": "_sigR",
          "type": "bytes32"
        },
        {
          "internalType": "bytes32",
          "name": "_sigS",
          "type": "bytes32"
        },
        {
          "internalType": "uint8",
          "name": "_sigV",
          "type": "uint8"
        }
      ],
      "name": "verify",
      "outputs": [
        {
          "internalType": "bool",
          "name": "",
          "type": "bool"
        }
      ],
      "stateMutability": "view",
      "type": "function"
    },
    {
      "inputs": [
        {
          "internalType": "address",
          "name": "_userAddress",
          "type": "address"
        }
      ],
      "name": "getMetatransactionNonce",
      "outputs": [
        {
          "internalType": "uint256",
          "name": "_nonce",
          "type": "uint256"
        }
      ],
      "stateMutability": "view",
      "type": "function"
    },
    {
      "inputs": [],
      "name": "identifier",
      "outputs": [
        {
          "internalType": "bytes32",
          "name": "_identifier",
          "type": "bytes32"
        }
      ],
      "stateMutability": "pure",
      "type": "function"
    },
    {
      "inputs": [],
      "name": "version",
      "outputs": [
        {
          "internalType": "uint256",
          "name": "_version",
          "type": "uint256"
        }
      ],
      "stateMutability": "pure",
      "type": "function"
    },
    {
      "inputs": [
        {
          "internalType": "address",
          "name": "_colony",
          "type": "address"
        }
      ],
      "name": "install",
      "outputs": [],
      "stateMutability": "nonpayable",
      "type": "function"
    },
    {
      "inputs": [
        {
          "internalType": "uint256",
          "name": "_totalStakeFraction",
          "type": "uint256"
        },
        {
          "internalType": "uint256",
          "name": "_voterRewardFraction",
          "type": "uint256"
        },
        {
          "internalType": "uint256",
          "name": "_userMinStakeFraction",
          "type": "uint256"
        },
        {
          "internalType": "uint256",
          "name": "_maxVoteFraction",
          "type": "uint256"
        },
        {
          "internalType": "uint256",
          "name": "_stakePeriod",
          "type": "uint256"
        },
        {
          "internalType": "uint256",
          "name": "_submitPeriod",
          "type": "uint256"
        },
        {
          "internalType": "uint256",
          "name": "_revealPeriod",
          "type": "uint256"
        },
        {
          "internalType": "uint256",
          "name": "_escalationPeriod",
          "type": "uint256"
        }
      ],
      "name": "initialise",
      "outputs": [],
      "stateMutability": "nonpayable",
      "type": "function"
    },
    {
      "inputs": [],
      "name": "finishUpgrade",
      "outputs": [],
      "stateMutability": "nonpayable",
      "type": "function"
    },
    {
      "inputs": [
        {
          "internalType": "bool",
          "name": "_deprecated",
          "type": "bool"
        }
      ],
      "name": "deprecate",
      "outputs": [],
      "stateMutability": "nonpayable",
      "type": "function"
    },
    {
      "inputs": [],
      "name": "uninstall",
      "outputs": [],
      "stateMutability": "nonpayable",
      "type": "function"
    },
    {
      "inputs": [
        {
          "internalType": "uint256",
          "name": "_domainId",
          "type": "uint256"
        },
        {
          "internalType": "uint256",
          "name": "_childSkillIndex",
          "type": "uint256"
        },
        {
          "internalType": "address",
          "name": "_altTarget",
          "type": "address"
        },
        {
          "internalType": "bytes",
          "name": "_action",
          "type": "bytes"
        },
        {
          "internalType": "bytes",
          "name": "_key",
          "type": "bytes"
        },
        {
          "internalType": "bytes",
          "name": "_value",
          "type": "bytes"
        },
        {
          "internalType": "uint256",
          "name": "_branchMask",
          "type": "uint256"
        },
        {
          "internalType": "bytes32[]",
          "name": "_siblings",
          "type": "bytes32[]"
        }
      ],
      "name": "createMotion",
      "outputs": [],
      "stateMutability": "nonpayable",
      "type": "function"
    },
    {
      "inputs": [
        {
          "internalType": "uint256",
          "name": "_motionId",
          "type": "uint256"
        },
        {
          "internalType": "uint256",
          "name": "_permissionDomainId",
          "type": "uint256"
        },
        {
          "internalType": "uint256",
          "name": "_childSkillIndex",
          "type": "uint256"
        },
        {
          "internalType": "uint256",
          "name": "_vote",
          "type": "uint256"
        },
        {
          "internalType": "uint256",
          "name": "_amount",
          "type": "uint256"
        },
        {
          "internalType": "bytes",
          "name": "_key",
          "type": "bytes"
        },
        {
          "internalType": "bytes",
          "name": "_value",
          "type": "bytes"
        },
        {
          "internalType": "uint256",
          "name": "_branchMask",
          "type": "uint256"
        },
        {
          "internalType": "bytes32[]",
          "name": "_siblings",
          "type": "bytes32[]"
        }
      ],
      "name": "stakeMotion",
      "outputs": [],
      "stateMutability": "nonpayable",
      "type": "function"
    },
    {
      "inputs": [
        {
          "internalType": "uint256",
          "name": "_motionId",
          "type": "uint256"
        },
        {
          "internalType": "bytes32",
          "name": "_voteSecret",
          "type": "bytes32"
        },
        {
          "internalType": "bytes",
          "name": "_key",
          "type": "bytes"
        },
        {
          "internalType": "bytes",
          "name": "_value",
          "type": "bytes"
        },
        {
          "internalType": "uint256",
          "name": "_branchMask",
          "type": "uint256"
        },
        {
          "internalType": "bytes32[]",
          "name": "_siblings",
          "type": "bytes32[]"
        }
      ],
      "name": "submitVote",
      "outputs": [],
      "stateMutability": "nonpayable",
      "type": "function"
    },
    {
      "inputs": [
        {
          "internalType": "uint256",
          "name": "_motionId",
          "type": "uint256"
        },
        {
          "internalType": "bytes32",
          "name": "_salt",
          "type": "bytes32"
        },
        {
          "internalType": "uint256",
          "name": "_vote",
          "type": "uint256"
        },
        {
          "internalType": "bytes",
          "name": "_key",
          "type": "bytes"
        },
        {
          "internalType": "bytes",
          "name": "_value",
          "type": "bytes"
        },
        {
          "internalType": "uint256",
          "name": "_branchMask",
          "type": "uint256"
        },
        {
          "internalType": "bytes32[]",
          "name": "_siblings",
          "type": "bytes32[]"
        }
      ],
      "name": "revealVote",
      "outputs": [],
      "stateMutability": "nonpayable",
      "type": "function"
    },
    {
      "inputs": [
        {
          "internalType": "uint256",
          "name": "_motionId",
          "type": "uint256"
        },
        {
          "internalType": "uint256",
          "name": "_newDomainId",
          "type": "uint256"
        },
        {
          "internalType": "uint256",
          "name": "_childSkillIndex",
          "type": "uint256"
        },
        {
          "internalType": "bytes",
          "name": "_key",
          "type": "bytes"
        },
        {
          "internalType": "bytes",
          "name": "_value",
          "type": "bytes"
        },
        {
          "internalType": "uint256",
          "name": "_branchMask",
          "type": "uint256"
        },
        {
          "internalType": "bytes32[]",
          "name": "_siblings",
          "type": "bytes32[]"
        }
      ],
      "name": "escalateMotion",
      "outputs": [],
      "stateMutability": "nonpayable",
      "type": "function"
    },
    {
      "inputs": [
        {
          "internalType": "uint256",
          "name": "_motionId",
          "type": "uint256"
        }
      ],
      "name": "finalizeMotion",
      "outputs": [],
      "stateMutability": "nonpayable",
      "type": "function"
    },
    {
      "inputs": [
        {
          "internalType": "uint256",
          "name": "_motionId",
          "type": "uint256"
        }
      ],
      "name": "failingExecutionAllowed",
      "outputs": [
        {
          "internalType": "bool",
          "name": "_allowed",
          "type": "bool"
        }
      ],
      "stateMutability": "view",
      "type": "function"
    },
    {
      "inputs": [
        {
          "internalType": "uint256",
          "name": "_motionId",
          "type": "uint256"
        },
        {
          "internalType": "uint256",
          "name": "_permissionDomainId",
          "type": "uint256"
        },
        {
          "internalType": "uint256",
          "name": "_childSkillIndex",
          "type": "uint256"
        },
        {
          "internalType": "address",
          "name": "_staker",
          "type": "address"
        },
        {
          "internalType": "uint256",
          "name": "_vote",
          "type": "uint256"
        }
      ],
      "name": "claimReward",
      "outputs": [],
      "stateMutability": "nonpayable",
      "type": "function"
    },
    {
      "inputs": [],
      "name": "getTotalStakeFraction",
      "outputs": [
        {
          "internalType": "uint256",
          "name": "_fraction",
          "type": "uint256"
        }
      ],
      "stateMutability": "view",
      "type": "function"
    },
    {
      "inputs": [],
      "name": "getVoterRewardFraction",
      "outputs": [
        {
          "internalType": "uint256",
          "name": "_fraction",
          "type": "uint256"
        }
      ],
      "stateMutability": "view",
      "type": "function"
    },
    {
      "inputs": [],
      "name": "getUserMinStakeFraction",
      "outputs": [
        {
          "internalType": "uint256",
          "name": "_fraction",
          "type": "uint256"
        }
      ],
      "stateMutability": "view",
      "type": "function"
    },
    {
      "inputs": [],
      "name": "getMaxVoteFraction",
      "outputs": [
        {
          "internalType": "uint256",
          "name": "_fraction",
          "type": "uint256"
        }
      ],
      "stateMutability": "view",
      "type": "function"
    },
    {
      "inputs": [],
      "name": "getStakePeriod",
      "outputs": [
        {
          "internalType": "uint256",
          "name": "_period",
          "type": "uint256"
        }
      ],
      "stateMutability": "view",
      "type": "function"
    },
    {
      "inputs": [],
      "name": "getSubmitPeriod",
      "outputs": [
        {
          "internalType": "uint256",
          "name": "_period",
          "type": "uint256"
        }
      ],
      "stateMutability": "view",
      "type": "function"
    },
    {
      "inputs": [],
      "name": "getRevealPeriod",
      "outputs": [
        {
          "internalType": "uint256",
          "name": "_period",
          "type": "uint256"
        }
      ],
      "stateMutability": "view",
      "type": "function"
    },
    {
      "inputs": [],
      "name": "getEscalationPeriod",
      "outputs": [
        {
          "internalType": "uint256",
          "name": "_period",
          "type": "uint256"
        }
      ],
      "stateMutability": "view",
      "type": "function"
    },
    {
      "inputs": [],
      "name": "getMotionCount",
      "outputs": [
        {
          "internalType": "uint256",
          "name": "_count",
          "type": "uint256"
        }
      ],
      "stateMutability": "view",
      "type": "function"
    },
    {
      "inputs": [
        {
          "internalType": "uint256",
          "name": "_motionId",
          "type": "uint256"
        }
      ],
      "name": "getMotion",
      "outputs": [
        {
          "components": [
            {
              "internalType": "uint64[3]",
              "name": "events",
              "type": "uint64[3]"
            },
            {
              "internalType": "bytes32",
              "name": "rootHash",
              "type": "bytes32"
            },
            {
              "internalType": "uint256",
              "name": "domainId",
              "type": "uint256"
            },
            {
              "internalType": "uint256",
              "name": "skillId",
              "type": "uint256"
            },
            {
              "internalType": "uint256",
              "name": "skillRep",
              "type": "uint256"
            },
            {
              "internalType": "uint256",
              "name": "repSubmitted",
              "type": "uint256"
            },
            {
              "internalType": "uint256",
              "name": "paidVoterComp",
              "type": "uint256"
            },
            {
              "internalType": "uint256[2]",
              "name": "pastVoterComp",
              "type": "uint256[2]"
            },
            {
              "internalType": "uint256[2]",
              "name": "stakes",
              "type": "uint256[2]"
            },
            {
              "internalType": "uint256[2]",
              "name": "votes",
              "type": "uint256[2]"
            },
            {
              "internalType": "bool",
              "name": "escalated",
              "type": "bool"
            },
            {
              "internalType": "bool",
              "name": "finalized",
              "type": "bool"
            },
            {
              "internalType": "address",
              "name": "altTarget",
              "type": "address"
            },
            {
              "internalType": "bytes",
              "name": "action",
              "type": "bytes"
            }
          ],
          "internalType": "struct VotingReputationDataTypes.Motion",
          "name": "_motion",
          "type": "tuple"
        }
      ],
      "stateMutability": "view",
      "type": "function"
    },
    {
      "inputs": [
        {
          "internalType": "uint256",
          "name": "_motionId",
          "type": "uint256"
        },
        {
          "internalType": "address",
          "name": "_staker",
          "type": "address"
        },
        {
          "internalType": "uint256",
          "name": "_vote",
          "type": "uint256"
        }
      ],
      "name": "getStake",
      "outputs": [
        {
          "internalType": "uint256",
          "name": "_stake",
          "type": "uint256"
        }
      ],
      "stateMutability": "view",
      "type": "function"
    },
    {
      "inputs": [
        {
          "internalType": "bytes32",
          "name": "_structHash",
          "type": "bytes32"
        }
      ],
      "name": "getExpenditureMotionCount",
      "outputs": [
        {
          "internalType": "uint256",
          "name": "_count",
          "type": "uint256"
        }
      ],
      "stateMutability": "view",
      "type": "function"
    },
    {
      "inputs": [
        {
          "internalType": "bytes32",
          "name": "_actionHash",
          "type": "bytes32"
        }
      ],
      "name": "getExpenditurePastVote",
      "outputs": [
        {
          "internalType": "uint256",
          "name": "_vote",
          "type": "uint256"
        }
      ],
      "stateMutability": "view",
      "type": "function"
    },
    {
      "inputs": [
        {
          "internalType": "uint256",
          "name": "_motionId",
          "type": "uint256"
        }
      ],
      "name": "getMotionState",
      "outputs": [
        {
          "internalType": "enum VotingReputationDataTypes.MotionState",
          "name": "_motionState",
          "type": "uint8"
        }
      ],
      "stateMutability": "view",
      "type": "function"
    },
    {
      "inputs": [
        {
          "internalType": "uint256",
          "name": "_motionId",
          "type": "uint256"
        },
        {
          "internalType": "uint256",
          "name": "_voterRep",
          "type": "uint256"
        }
      ],
      "name": "getVoterReward",
      "outputs": [
        {
          "internalType": "uint256",
          "name": "_reward",
          "type": "uint256"
        }
      ],
      "stateMutability": "view",
      "type": "function"
    },
    {
      "inputs": [
        {
          "internalType": "uint256",
          "name": "_motionId",
          "type": "uint256"
        },
        {
          "internalType": "uint256",
          "name": "_voterRep",
          "type": "uint256"
        },
        {
          "internalType": "address",
          "name": "_voterAddress",
          "type": "address"
        }
      ],
      "name": "getVoterRewardRange",
      "outputs": [
        {
          "internalType": "uint256",
          "name": "_rewardMin",
          "type": "uint256"
        },
        {
          "internalType": "uint256",
          "name": "_rewardMax",
          "type": "uint256"
        }
      ],
      "stateMutability": "view",
      "type": "function"
    },
    {
      "inputs": [
        {
          "internalType": "uint256",
          "name": "_motionId",
          "type": "uint256"
        },
        {
          "internalType": "address",
          "name": "_staker",
          "type": "address"
        },
        {
          "internalType": "uint256",
          "name": "_vote",
          "type": "uint256"
        }
      ],
      "name": "getStakerReward",
      "outputs": [
        {
          "internalType": "uint256",
          "name": "_reward",
          "type": "uint256"
        },
        {
          "internalType": "uint256",
          "name": "_penalty",
          "type": "uint256"
        }
      ],
      "stateMutability": "view",
      "type": "function"
    },
    {
      "inputs": [
        {
          "internalType": "bytes",
          "name": "action",
          "type": "bytes"
        },
        {
          "internalType": "uint256",
          "name": "value",
          "type": "uint256"
        }
      ],
      "name": "createClaimDelayAction",
      "outputs": [
        {
          "internalType": "bytes",
          "name": "",
          "type": "bytes"
        }
      ],
      "stateMutability": "nonpayable",
      "type": "function"
    }
  ],
  "bytecode": "0x608060405234801561001057600080fd5b50600180546001600160a01b031916339081179091556040517fce241d7ca1f669fee44b6fc00b8eba2df3bb514eed0f6f668f8f89096e81ed9490600090a2615f48806200005f6000396000f3fe6080604052600436106102725760003560e01c80637a9e5e4b1161014f578063b9a8c27a116100c1578063d84eb9ee1161007a578063d84eb9ee14610759578063da23325914610779578063de3b0aa414610799578063ee2cf473146107c6578063fc4af53f146107e6578063fcf6ba931461080657600080fd5b8063b9a8c27a1461069b578063bbd2f6c5146106bb578063bd4e523c146106db578063bf7e214f146106fb578063bfd68ab71461071b578063c06e47d61461073957600080fd5b80639251cff4116101135780639251cff4146105cc578063ac9650d8146105ec578063ad15aad214610619578063b004864714610646578063b3eac1d81461065b578063b57025d41461067b57600080fd5b80637a9e5e4b1461051f5780637b9afba61461053f5780637de22eb41461055f578063835ddcc11461057f5780638da5cb5b1461059457600080fd5b8063420b900c116101e85780636281133d116101ac5780636281133d146104455780636acd7fe6146104755780636e7375b01461049557806372d8bd7b146104aa5780637998a1c4146104bf5780637a3dc330146104f257600080fd5b8063420b900c1461039a57806354fd4d50146103c75780635c0d9d53146103db5780635cda0135146103f05780635d0050b21461041057600080fd5b80632363df0e1161023a5780632363df0e146103075780632a1b8f9b1461031c5780632a1c708b1461033c5780632dfbb083146103515780633408e47014610372578063340df28f1461038557600080fd5b806302d15d64146102775780630c53c51c1461029b5780630d638f30146102bb57806313af4035146102d25780631a7dad2e146102f2575b600080fd5b34801561028357600080fd5b50600d545b6040519081526020015b60405180910390f35b6102ae6102a9366004614f67565b610825565b604051610292919061502a565b3480156102c757600080fd5b506102d06109f8565b005b3480156102de57600080fd5b506102d06102ed36600461503d565b610a38565b3480156102fe57600080fd5b50600c54610288565b34801561031357600080fd5b50600854610288565b34801561032857600080fd5b506102d061033736600461503d565b610ab4565b34801561034857600080fd5b50600754610288565b34801561035d57600080fd5b5061028861036c36600461505a565b50600090565b34801561037e57600080fd5b5046610288565b34801561039157600080fd5b506102d0610caa565b3480156103a657600080fd5b506103ba6103b5366004615084565b610cde565b60405161029291906150d1565b3480156103d357600080fd5b506009610288565b3480156103e757600080fd5b50600954610288565b3480156103fc57600080fd5b506102d061040b366004615163565b610f00565b34801561041c57600080fd5b5061043061042b36600461523d565b61154c565b60408051928352602083019190915201610292565b34801561045157600080fd5b50610465610460366004615275565b6118be565b6040519015158152602001610292565b34801561048157600080fd5b506102d0610490366004615084565b6119cd565b3480156104a157600080fd5b50600a54610288565b3480156104b657600080fd5b50600e54610288565b3480156104cb57600080fd5b507fdc951b3d4193c331186bc2de3b4e659e51d8b00ef92751ae69abaa48a6ab38dd610288565b3480156104fe57600080fd5b5061028861050d366004615084565b60009081526013602052604090205490565b34801561052b57600080fd5b506102d061053a36600461503d565b611fbe565b34801561054b57600080fd5b506102d061055a3660046152fb565b612038565b34801561056b57600080fd5b506102ae61057a366004615350565b6123de565b34801561058b57600080fd5b50600f54610288565b3480156105a057600080fd5b506001546105b4906001600160a01b031681565b6040516001600160a01b039091168152602001610292565b3480156105d857600080fd5b506102d06105e73660046153a2565b6125d9565b3480156105f857600080fd5b5061060c6106073660046153bf565b612629565b6040516102929190615433565b34801561062557600080fd5b50610639610634366004615084565b6128c2565b60405161029291906154ea565b34801561065257600080fd5b50600b54610288565b34801561066757600080fd5b5061028861067636600461503d565b612b05565b34801561068757600080fd5b506102d06106963660046155d3565b612b2b565b3480156106a757600080fd5b506102d06106b63660046155d3565b612f11565b3480156106c757600080fd5b506102d06106d6366004615681565b61327c565b3480156106e757600080fd5b506104656106f6366004615084565b613ab4565b34801561070757600080fd5b506000546105b4906001600160a01b031681565b34801561072757600080fd5b506003546001600160a01b03166105b4565b34801561074557600080fd5b506102d0610754366004615743565b613b38565b34801561076557600080fd5b506102886107743660046157e6565b613d84565b34801561078557600080fd5b506102d0610794366004615808565b613ddf565b3480156107a557600080fd5b506102886107b4366004615084565b60009081526014602052604090205490565b3480156107d257600080fd5b506102886107e136600461523d565b614099565b3480156107f257600080fd5b50610430610801366004615851565b6140cc565b34801561081257600080fd5b50600354600160a01b900460ff16610465565b606061083e8661083488612b05565b46888888886118be565b6108a15760405162461bcd60e51b815260206004820152602960248201527f6d6574617472616e73616374696f6e2d7369676e65722d7369676e617475726560448201526805adad2e6dac2e8c6d60bb1b60648201526084015b60405180910390fd5b6108aa8661417f565b600080306001600160a01b0316877f02bcc191e283bfba76a1369ec8ba06566f33010645097c104c312753e04935e88a6040516020016108ec9392919061588a565b60408051601f1981840301815290829052610906916158c3565b6000604051808303816000865af19150503d8060008114610943576040519150601f19603f3d011682016040523d82523d6000602084013e610948565b606091505b5091509150816109ab5760405162461bcd60e51b815260206004820152602860248201527f636f6c6f6e792d6d65746174782d66756e6374696f6e2d63616c6c2d756e737560448201526718d8d95cdcd99d5b60c21b6064820152608401610898565b7f5845892132946850460bff5a0083f71031bc5bf9aadcd40f1de79423eac9b10b886109d56141ab565b896040516109e5939291906158df565b60405180910390a1979650505050505050565b610a0e336000356001600160e01b03191661424e565b610a2a5760405162461bcd60e51b81526004016108989061590b565b6003546001600160a01b0316ff5b610a4e336000356001600160e01b03191661424e565b610a6a5760405162461bcd60e51b81526004016108989061590b565b600180546001600160a01b0319166001600160a01b0383169081179091556040517fce241d7ca1f669fee44b6fc00b8eba2df3bb514eed0f6f668f8f89096e81ed9490600090a250565b6003546001600160a01b031615610b0d5760405162461bcd60e51b815260206004820152601b60248201527f657874656e73696f6e2d616c72656164792d696e7374616c6c656400000000006044820152606401610898565b600380546001600160a01b0319166001600160a01b03831690811790915560408051634e5e839560e01b81529051634e5e8395916004808201926020929091908290030181865afa158015610b66573d6000803e3d6000fd5b505050506040513d601f19601f82011682018060405250810190610b8a9190615939565b600480546001600160a01b0319166001600160a01b039290921691821781556040805163598cc81560e11b8152905163b319902a928281019260209291908290030181865afa158015610be1573d6000803e3d6000fd5b505050506040513d601f19601f82011682018060405250810190610c059190615939565b600580546001600160a01b0319166001600160a01b03928316179055600354604080516321df0da760e01b8152905191909216916321df0da79160048083019260209291908290030181865afa158015610c63573d6000803e3d6000fd5b505050506040513d601f19601f82011682018060405250810190610c879190615939565b600680546001600160a01b0319166001600160a01b039290921691909117905550565b610cc0336000356001600160e01b03191661424e565b610cdc5760405162461bcd60e51b81526004016108989061590b565b565b600081815260106020526040812081610cf684614329565b9050831580610d065750600f5484115b80610d1f575081600e018054610d1b90615956565b1590505b15610d2e575060009392505050565b600d820154610100900460ff1615610d4a575060069392505050565b600a820154811180610d5f5750600982015481115b15610e615781546001600160401b0316421015610d80575060019392505050565b600a820154819003610e2957610e2182600e018054610d9e90615956565b80601f0160208091040260200160405190810160405280929190818152602001828054610dca90615956565b8015610e175780601f10610dec57610100808354040283529160200191610e17565b820191906000526020600020905b815481529060010190602001808311610dfa57829003601f168201915b5050505050614348565b949350505050565b600c820154600b830154600091610e3f916159bc565b1115610e5757610e2182600e018054610d9e90615956565b5060079392505050565b8154600160401b90046001600160401b0316421015610e84575060029392505050565b8154600160801b90046001600160401b0316421015610ea7575060039392505050565b600e548254610ec69190600160801b90046001600160401b03166159bc565b42108015610ed8575060018260020154115b15610ee7575060049392505050565b610e2182600e018054610d9e90615956565b5050919050565b600354600160a01b900460ff1615610f5a5760405162461bcd60e51b815260206004820152601b60248201527f636f6c6f6e792d657874656e73696f6e2d6465707265636174656400000000006044820152606401610898565b6001600354600160a81b900460ff166002811115610f7a57610f7a61509d565b14610fbf5760405162461bcd60e51b8152602060048201526015602482015274766f74696e672d7265702d6e6f742d61637469766560581b6044820152606401610898565b6003546001600160a01b03908116908716036110315760405162461bcd60e51b815260206004820152602b60248201527f766f74696e672d7265702d616c742d7461726765742d63616e6e6f742d62652d60448201526a626173652d636f6c6f6e7960a81b6064820152608401610898565b600061103c8761437b565b9050600061104b876020015190565b9050631cb9730b60e11b6001600160e01b03198216016110ad5760405162461bcd60e51b815260206004820152601e60248201527f766f74696e672d7265702d646973616c6c6f7765642d66756e6374696f6e00006044820152606401610898565b6000631db9753160e31b6001600160e01b031983160161115d576000198a146110e85760405162461bcd60e51b8152600401610898906159cf565b600354604051630d3d4c7160e11b8152600481018d90526001600160a01b0390911690631a7a98e2906024015b6040805180830381865afa158015611131573d6000803e3d6000fd5b505050506040513d601f19601f820116820180604052508101906111559190615a06565b519050611383565b60408051632dfbb08360e01b81526001600160e01b031984166004820152905160039182916001600160a01b03871691632dfbb0839160248083019260209291908290030181865afa1580156111b7573d6000803e3d6000fd5b505050506040513d601f19601f820116820180604052508101906111db9190615a54565b170361123f578a60011480156111f257506000198a145b61120e5760405162461bcd60e51b8152600401610898906159cf565b600354604051630d3d4c7160e11b8152600160048201526001600160a01b0390911690631a7a98e290602401611115565b600354604051630d3d4c7160e11b8152600481018d90526001600160a01b0390911690631a7a98e2906024016040805180830381865afa158015611287573d6000803e3d6000fd5b505050506040513d601f19601f820116820180604052508101906112ab9190615a06565b51905060006112b9896143a3565b905080821461136057600480546040516304e8852f60e11b8152918201849052602482018d90526000916001600160a01b03909116906309d10a5e90604401602060405180830381865afa158015611315573d6000803e3d6000fd5b505050506040513d601f19601f820116820180604052508101906113399190615a54565b905081811461135a5760405162461bcd60e51b8152600401610898906159cf565b50611381565b6000198b146113815760405162461bcd60e51b8152600401610898906159cf565b505b6001600f600082825461139691906159bc565b9091555050600f546000908152601060205260409020600b546113b990426159bc565b815467ffffffffffffffff19166001600160401b039190911617815560048054604080516397824c3f60e01b815290516001600160a01b03909216926397824c3f9282820192602092908290030181865afa15801561141c573d6000803e3d6000fd5b505050506040513d601f19601f820116820180604052508101906114409190615a54565b60018201819055600282018d905560038201839055611465908360008b8b8b8b6144a1565b600482018190556114c35760405162461bcd60e51b815260206004820152602260248201527f766f74696e672d7265702d6e6f2d72657075746174696f6e2d696e2d646f6d6160448201526134b760f11b6064820152608401610898565b600d8101805462010000600160b01b031916620100006001600160a01b038d1602179055600e81016114f58a82615abc565b508b600f547fec8f382abfacc0416a7b1eca9ddfcb6f79f9ee369eba7478f5471bd692bb5db76115236141ab565b6040516001600160a01b03909116815260200160405180910390a3505050505050505050505050565b600083815260106020526040812081908160078201856002811061157257611572615990565b015482600901866002811061158957611589615990565b015461159591906159bc565b9050806000036115ad576000809350935050506118b6565b60008781526011602090815260408083206001600160a01b038a16845282528083208884529091528120546115e29083614666565b90506000611606828560090189600281106115ff576115ff615990565b0154614685565b905060008080600b870160010154600b88016000015461162691906159bc565b111561174b57600b860154600c870154600091829111156116525750506009860154600a87015461165f565b5050600a86015460098701545b600688015461166e9083615b7b565b600c890154600b8a015491935060009161168891906159bc565b905060006116ac8a600b018e600281106116a4576116a4615990565b015483614666565b905060006116cc826116c7670de0b6b3a76400006002615b8e565b614685565b9050670de0b6b3a76400008111806116f45750670de0b6b3a7640000811480156116f457508d155b156117245761171d89611713876116c7670de0b6b3a764000086615b7b565b6116c790876159bc565b9650611741565b611732896116c78784614685565b965061173e8789615b7b565b95505b50505050506118ac565b60068601541561175d5761175d615ba5565b60006117688c614329565b905080876009018b6002811061178057611780615990565b01541480156117ac575080876009016117988c61469a565b600281106117a8576117a8615990565b0154105b15611806576000876009016117c08c61469a565b600281106117d0576117d0615990565b0154905060006117ed826116c7600a670de0b6b3a7640000615bbb565b90506117fd876116c783866159bc565b945050506118aa565b80876009018b6002811061181c5761181c615990565b0154108015611848575080876009016118348c61469a565b6002811061184457611844615990565b0154145b156118a6576000876009018b6002811061186457611864615990565b015490506000611881826116c7600a670de0b6b3a7640000615bbb565b9050611891876116c78385615b7b565b945061189d8587615b7b565b935050506118aa565b8392505b505b9096509450505050505b935093915050565b6000806118f6883089896040516020016118db9493929190615bdd565b604051602081830303815290604052805190602001206146a7565b6040805160008082526020820180845284905260ff87169282019290925260608101889052608081018790529192509060019060a0016020604051602081039080840390855afa15801561194e573d6000803e3d6000fd5b5050604051601f1901519150506001600160a01b0381166119b15760405162461bcd60e51b815260206004820152601f60248201527f636f6c6f6e792d6d65746174782d696e76616c69642d7369676e6174757265006044820152606401610898565b6001600160a01b038a8116911614915050979650505050505050565b600081815260106020526040902060056119e683610cde565b60078111156119f7576119f761509d565b14611a4e5760405162461bcd60e51b815260206004820152602160248201527f766f74696e672d7265702d6d6f74696f6e2d6e6f742d66696e616c697a61626c6044820152606560f81b6064820152608401610898565b611a5782614329565b600a8201541480611a7b5750600c810154600b820154600091611a79916159bc565b115b611a8757611a87615ba5565b600d8101805461ff0019166101001790556000600982016001015460098301600001541080611abd5750600c820154600b830154105b90507fc9a2ce7c23ec8f1247c8e7895d1090624fc190620eca20c6cdb5e12c1461906b6001600160e01b031916611b8183600e018054611afc90615956565b80601f0160208091040260200160405190810160405280929190818152602001828054611b2890615956565b8015611b755780601f10611b4a57610100808354040283529160200191611b75565b820191906000526020600020905b815481529060010190602001808311611b5857829003601f168201915b50505050506020015190565b6001600160e01b0319161480611bba5750600e8201805463bae82ec960e01b91611bae91611afc90615956565b6001600160e01b031916145b8015611bf05750600354600d8301546001600160a01b0391821691611be5916201000090041661437b565b6001600160a01b0316145b15611e73576000611c8c83600e018054611c0990615956565b80601f0160208091040260200160405190810160405280929190818152602001828054611c3590615956565b8015611c825780601f10611c5757610100808354040283529160200191611c82565b820191906000526020600020905b815481529060010190602001808311611c6557829003601f168201915b50505050506146fb565b90506001601460008381526020019081526020016000206000828254611cb29190615b7b565b90915550506000818152601460205260408120549003611d74576000611d6584600e018054611ce090615956565b80601f0160208091040260200160405190810160405280929190818152602001828054611d0c90615956565b8015611d595780601f10611d2e57610100808354040283529160200191611d59565b820191906000526020600020905b815481529060010190602001808311611d3c57829003601f168201915b505050505060006123de565b9050611d718582614810565b50505b6000611e0b84600e018054611d8890615956565b80601f0160208091040260200160405190810160405280929190818152602001828054611db490615956565b8015611e015780601f10611dd657610100808354040283529160200191611e01565b820191906000526020600020905b815481529060010190602001808311611de457829003601f168201915b5050505050614854565b600c850154600b8601549192506000918291611e26916159bc565b11611e3557600a850154611e3b565b600c8501545b600083815260136020526040902054909150811115611e6a576000828152601360205260409020819055611e6f565b600093505b5050505b60008115611f7b57611f118484600e018054611e8e90615956565b80601f0160208091040260200160405190810160405280929190818152602001828054611eba90615956565b8015611f075780601f10611edc57610100808354040283529160200191611f07565b820191906000526020600020905b815481529060010190602001808311611eea57829003601f168201915b5050505050614810565b90508080611f235750611f2384613ab4565b611f7b5760405162461bcd60e51b8152602060048201526024808201527f766f74696e672d657865637574696f6e2d6661696c65642d6e6f742d6f6e652d6044820152637765656b60e01b6064820152608401610898565b837f30a64da5658ebdc08619e03d1f155ef960c07fa9b332002f9ad606ec64b6096484600e0183604051611fb0929190615c23565b60405180910390a250505050565b611fd4336000356001600160e01b03191661424e565b611ff05760405162461bcd60e51b81526004016108989061590b565b600080546001600160a01b0319166001600160a01b038316908117825560405190917f1abebea81bfa2637f28358c371278fb15ede7ea8dd28d2e03b112ff6d936ada491a250565b6003546001600160a01b031663ab2f7ae26120516141ab565b6001806040518463ffffffff1660e01b815260040161207293929190615cb6565b602060405180830381865afa15801561208f573d6000803e3d6000fd5b505050506040513d601f19601f820116820180604052508101906120b39190615ce4565b6120ff5760405162461bcd60e51b815260206004820152601a60248201527f766f74696e672d7265702d63616c6c65722d6e6f742d726f6f740000000000006044820152606401610898565b6000600354600160a81b900460ff16600281111561211f5761211f61509d565b1461216c5760405162461bcd60e51b815260206004820152601e60248201527f766f74696e672d7265702d616c72656164792d696e697469616c6973656400006044820152606401610898565b61217f6002670de0b6b3a7640000615bbb565b8811156121ce5760405162461bcd60e51b815260206004820181905260248201527f766f74696e672d7265702d677265617465722d7468616e2d68616c662d7761646044820152606401610898565b6121e16002670de0b6b3a7640000615bbb565b8711156122305760405162461bcd60e51b815260206004820181905260248201527f766f74696e672d7265702d677265617465722d7468616e2d68616c662d7761646044820152606401610898565b670de0b6b3a76400008611156122885760405162461bcd60e51b815260206004820152601b60248201527f766f74696e672d7265702d677265617465722d7468616e2d77616400000000006044820152606401610898565b670de0b6b3a76400008511156122e05760405162461bcd60e51b815260206004820152601b60248201527f766f74696e672d7265702d677265617465722d7468616e2d77616400000000006044820152606401610898565b6301e133808411156123045760405162461bcd60e51b815260040161089890615d01565b6301e133808311156123285760405162461bcd60e51b815260040161089890615d01565b6301e1338082111561234c5760405162461bcd60e51b815260040161089890615d01565b6301e133808111156123705760405162461bcd60e51b815260040161089890615d01565b6003805460ff60a81b1916600160a81b179055600788905560088790556009869055600a859055600b849055600c839055600d829055600e8190556040517f690c4b6201f6a4c703f9d21c205d98a08dff8461e7a71e49c6d47cc8b894850190600090a15050505050505050565b606060006123ed846020015190565b90506001600160e01b03198116633268b39f60e21b148061241e57506001600160e01b0319811663bae82ec960e01b145b61242a5761242a615ba5565b60248401516044850151606486015160848701517fc9a2ce7c23ec8f1247c8e7895d1090624fc190620eca20c6cdb5e12c1461906b9392919060006001600160e01b03198716633268b39f60e21b1480156124855750816019145b1561250e57604080516101648082526101a0820190925260009160208201818036833750505060208101979097525050506024840192909252604483015260648201526019608482015260e060a482015261012060c482015260e48101849052600161010482018190526101248201819052610144820152600461016482015291506125d39050565b604080516101a48082526101e0820190925260009160208201818036833701905050905060006001600160e01b03198916633268b39f60e21b14612553576084612557565b6101845b61ffff169050808c01519250876020830152866024830152856044830152846064830152601a608483015260e060a483015261014060c48301528a60e483015260026101048301526000610124830152600161014483015260026101648301528261018483015260016101a48301528199505050505050505050505b92915050565b6125ef336000356001600160e01b03191661424e565b61260b5760405162461bcd60e51b81526004016108989061590b565b60038054911515600160a01b0260ff60a01b19909216919091179055565b606060006126356141ab565b90506060333014801561265157506001600160a01b0382163014155b156126b6577f02bcc191e283bfba76a1369ec8ba06566f33010645097c104c312753e04935e8826040516020016126a492919091825260601b6bffffffffffffffffffffffff1916602082015260340190565b60405160208183030381529060405290505b836001600160401b038111156126ce576126ce614e93565b60405190808252806020026020018201604052801561270157816020015b60608152602001906001900390816126ec5790505b50925060005b848110156128b957631592ca1b60e31b86868381811061272957612729615990565b905060200281019061273b9190615d38565b61274491615d85565b6001600160e01b031916036127a55760405162461bcd60e51b815260206004820152602160248201527f636f6c6f6e792d6d756c746963616c6c2d63616e6e6f742d6d756c746963616c6044820152601b60fa1b6064820152608401610898565b600080308888858181106127bb576127bb615990565b90506020028101906127cd9190615d38565b866040516020016127e093929190615db5565b60408051601f19818403018152908290526127fa916158c3565b600060405180830381855af49150503d8060008114612835576040519150601f19603f3d011682016040523d82523d6000602084013e61283a565b606091505b5091509150816128865760448151101561285357600080fd5b6004810190508080602001905181019061286d9190615ddc565b60405162461bcd60e51b8152600401610898919061502a565b8086848151811061289957612899615990565b6020026020010181905250505080806128b190615e49565b915050612707565b50505092915050565b6128ca614d69565b6000828152601060205260409081902081516102208101909252816101c081018260038282826020028201916000905b82829054906101000a90046001600160401b03166001600160401b0316815260200190600801906020826007010492830192600103820291508084116128fa57905050505050508152602001600182015481526020016002820154815260200160038201548152602001600482015481526020016005820154815260200160068201548152602001600782016002806020026040519081016040528092919082600280156129bd576020028201915b8154815260200190600101908083116129a9575b5050509183525050604080518082019182905260209092019190600984019060029082845b8154815260200190600101908083116129e2575050509183525050604080518082019182905260209092019190600b84019060029082845b815481526020019060010190808311612a1a575050509183525050600d82015460ff80821615156020840152610100820416151560408301526201000090046001600160a01b03166060820152600e82018054608090920191612a7c90615956565b80601f0160208091040260200160405190810160405280929190818152602001828054612aa890615956565b8015612af55780601f10612aca57610100808354040283529160200191612af5565b820191906000526020600020905b815481529060010190602001808311612ad857829003601f168201915b5050505050815250509050919050565b6001600160a01b0381166000908152601560205260408120546125d390620f42406159bc565b60008781526010602052604090206004612b4489610cde565b6007811115612b5557612b5561509d565b14612ba25760405162461bcd60e51b815260206004820152601c60248201527f766f74696e672d7265702d6d6f74696f6e2d6e6f742d636c6f736564000000006044820152606401610898565b600354604051630d3d4c7160e11b8152600481018990526000916001600160a01b031690631a7a98e2906024016040805180830381865afa158015612beb573d6000803e3d6000fd5b505050506040513d601f19601f82011682018060405250810190612c0f9190615a06565b51600480546040516304e8852f60e11b8152918201839052602482018a90529192506000916001600160a01b0316906309d10a5e90604401602060405180830381865afa158015612c64573d6000803e3d6000fd5b505050506040513d601f19601f82011682018060405250810190612c889190615a54565b905082600301548114612cdd5760405162461bcd60e51b815260206004820152601f60248201527f766f74696e672d7265702d696e76616c69642d646f6d61696e2d70726f6f66006044820152606401610898565b600283018054908a9055600384018390556001840154612d03908460008b8b8b8b6144a1565b6004850155600c840154600b85015460009111612d21576001612d24565b60005b90508460060154856009018260028110612d4057612d40615990565b016000828254612d509190615b7b565b90915550506006850154600786018260028110612d6f57612d6f615990565b016000828254612d7f91906159bc565b9091555050600060068601819055612d968d614329565b90508060098701600001541080612db05750600a86015481115b15612de357600b54612dc290426159bc565b865467ffffffffffffffff19166001600160401b0391909116178655612e6e565b855467ffffffffffffffff1916426001600160401b03169081178755600c54612e0b91615e62565b865467ffffffffffffffff60401b1916600160401b6001600160401b03928316810291909117808955600d54612e4693909290910416615e62565b86546001600160401b0391909116600160801b0267ffffffffffffffff60801b199091161786555b600d8601805460ff191660011790558b838e7fd11ec0a82b67846e80d77c897fa0e54e2d81a0275e18cb2d40b9f534d9b738ad612ea96141ab565b6040516001600160a01b03909116815260200160405180910390a485546001600160401b03428116911611612f02578c600080516020615ef38339815191526000604051612ef991815260200190565b60405180910390a25b50505050505050505050505050565b60008781526010602052604090206003612f2a89610cde565b6007811115612f3b57612f3b61509d565b14612f885760405162461bcd60e51b815260206004820152601c60248201527f766f74696e672d7265702d6d6f74696f6e2d6e6f742d72657665616c000000006044820152606401610898565b6001861115612fcf5760405162461bcd60e51b8152602060048201526013602482015272766f74696e672d7265702d6261642d766f746560681b6044820152606401610898565b6000612fef82600101548360030154612fe66141ab565b898989896144a1565b90508082600b01886002811061300757613007615990565b01600082825461301791906159bc565b90915550506000898152601260205260408120816130336141ab565b6001600160a01b03166001600160a01b031681526020019081526020016000205490506130878989604080516020808201949094528082019290925280518083038201815260609092019052805191012090565b81146130d55760405162461bcd60e51b815260206004820152601a60248201527f766f74696e672d7265702d7365637265742d6e6f2d6d617463680000000000006044820152606401610898565b60008a8152601260205260408120906130ec6141ab565b6001600160a01b03166001600160a01b0316815260200190815260200160002060009055600061311c8b84613d84565b90508084600601600082825461313291906159bc565b909155508990506131416141ab565b6001600160a01b03168c7f90285c90067ec863f95f2423d6cc031a545257d9b53dfb1974a65b46bd4a55bd60405160405180910390a46005840154600c850154600b86015461319091906159bc565b036131dd57835467ffffffffffffffff60801b1916600160801b426001600160401b031602178455604051600281528b90600080516020615ef38339815191529060200160405180910390a25b6005546006546001600160a01b03918216916393c455359116836131ff6141ab565b60405160e085901b6001600160e01b03191681526001600160a01b0393841660048201526024810192909252909116604482015260016064820152608401600060405180830381600087803b15801561325757600080fd5b505af115801561326b573d6000803e3d6000fd5b505050505050505050505050505050565b600089815260106020526040902060018711156132d15760405162461bcd60e51b8152602060048201526013602482015272766f74696e672d7265702d6261642d766f746560681b6044820152606401610898565b60016132dc8b610cde565b60078111156132ed576132ed61509d565b1461333a5760405162461bcd60e51b815260206004820152601d60248201527f766f74696e672d7265702d6d6f74696f6e2d6e6f742d7374616b696e670000006044820152606401610898565b60006133458b614329565b9050600061337388846009018b6002811061336257613362615990565b015461336e9085615b7b565b6148e1565b9050600081116133bd5760405162461bcd60e51b81526020600482015260156024820152741d9bdd1a5b99cb5c995c0b5898590b585b5bdd5b9d605a1b6044820152606401610898565b60008c81526011602052604081208290826133d66141ab565b6001600160a01b03166001600160a01b0316815260200190815260200160002060008c81526020019081526020016000205461341291906159bc565b9050613432846001015485600301546134296141ab565b8b8b8b8b6144a1565b8111156134815760405162461bcd60e51b815260206004820152601b60248201527f766f74696e672d7265702d696e73756666696369656e742d72657000000000006044820152606401610898565b61348d83600954614685565b811015806134bb57508282856009018c600281106134ad576134ad615990565b01546134b991906159bc565b145b6135075760405162461bcd60e51b815260206004820152601d60248201527f766f74696e672d7265702d696e73756666696369656e742d7374616b650000006044820152606401610898565b81846009018b6002811061351d5761351d615990565b01600082825461352d91906159bc565b909155505060008d8152601160205260408120829161354a6141ab565b6001600160a01b03168152602080820192909252604090810160009081208e825290925290205560018a1480156135865750600d84015460ff16155b80156135955750600a84015483145b80156135f15750600e84018054633268b39f60e21b916135b891611afc90615956565b6001600160e01b03191614806135f15750600e8401805463bae82ec960e01b916135e591611afc90615956565b6001600160e01b031916145b801561360e5750600d8401546201000090046001600160a01b0316155b1561375b57600061362785600e018054611c0990615956565b9050600160146000838152602001908152602001600020600082825461364d91906159bc565b9250508190555060006136f586600e01805461366890615956565b80601f016020809104026020016040519081016040528092919081815260200182805461369490615956565b80156136e15780601f106136b6576101008083540402835291602001916136e1565b820191906000526020600020905b8154815290600101906020018083116136c457829003601f168201915b5050505050600360001961057a9190615bbb565b90506137018f82614810565b6137585760405162461bcd60e51b815260206004820152602260248201527f766f74696e672d7265702d657870656e6469747572652d6c6f636b2d6661696c604482015261195960f21b6064820152608401610898565b50505b896137646141ab565b6001600160a01b03168e7f36de51a8af0dcecf368691aa77f69ba4d4e7974e9c709f33aeaad0e7ac5af1b88560405161379f91815260200190565b60405180910390a46009840154831480156137bd5750600a84015483145b1561387557835467ffffffffffffffff1916426001600160401b03169081178555600c546137ea91615e62565b845467ffffffffffffffff60401b1916600160401b6001600160401b03928316810291909117808755600d5461382593909290910416615e62565b84546001600160401b0391909116600160801b0267ffffffffffffffff60801b19909116178455604051600081528d90600080516020615ef38339815191529060200160405180910390a261390d565b891580156138865750600984015483145b8061389f575060018a14801561389f5750600a84015483145b1561390d57600b546138b190426159bc565b845467ffffffffffffffff19166001600160401b03919091161784556000600b8501819055600c85015583600501600090558c600080516020615ef3833981519152600060405161390491815260200190565b60405180910390a25b6005546006546040516307dba22560e31b81526001600160a01b0391821660048201526000602482015260016044820152911690633edd112890606401600060405180830381600087803b15801561396457600080fd5b505af1158015613978573d6000803e3d6000fd5b50506003546001600160a01b0316915063096abb4990506139976141ab565b60028701546040516001600160e01b031960e085901b1681526001600160a01b039092166004830152602482015260448101859052606401600060405180830381600087803b1580156139e957600080fd5b505af11580156139fd573d6000803e3d6000fd5b50506003546001600160a01b0316915063446c1aa290508d8d30613a1f6141ab565b60028a01546040516001600160e01b031960e088901b168152600481019590955260248501939093526001600160a01b039182166044850152166064830152608482015260a481018590523060c482015260e401600060405180830381600087803b158015613a8d57600080fd5b505af1158015613aa1573d6000803e3d6000fd5b5050505050505050505050505050505050565b600081815260106020526040812081613acc84614329565b90508060098301600101541080613ae65750600982015481115b15613b30578160005b600491828204019190066008029054906101000a90046001600160401b031662093a80613b1c9190615e62565b6001600160401b0316421015949350505050565b816002613aef565b60008681526010602052604090206002613b5188610cde565b6007811115613b6257613b6261509d565b14613baf5760405162461bcd60e51b815260206004820152601a60248201527f766f74696e672d7265702d6d6f74696f6e2d6e6f742d6f70656e0000000000006044820152606401610898565b85613bfc5760405162461bcd60e51b815260206004820152601960248201527f766f74696e672d7265702d696e76616c69642d736563726574000000000000006044820152606401610898565b6000613c1382600101548360030154612fe66141ab565b60008981526012602052604081209192509081613c2e6141ab565b6001600160a01b03166001600160a01b031681526020019081526020016000205403613c6e5780826005016000828254613c6891906159bc565b90915550505b60008881526012602052604081208891613c866141ab565b6001600160a01b03168152602081019190915260400160002055613ca86141ab565b6001600160a01b0316887f918e84941a111dde88f3d5739c3e63ffa70d869cbbfd4ecbab1dbb3b379055f960405160405180910390a3613cee8260040154600a54614685565b826005015410613d7a5781546001600160401b0342908116600160401b0267ffffffffffffffff60401b19909216919091178355600d54613d2e916159bc565b82546001600160401b0391909116600160801b0267ffffffffffffffff60801b19909116178255604051600181528890600080516020615ef38339815191529060200160405180910390a25b5050505050505050565b600082815260106020526040812060058101548290613da4908590614666565b6009830154600a840154919250600091613dbe91906159bc565b9050613dd5613dcd8383614685565b600854614685565b9695505050505050565b60008581526010602052604090206006613df887610cde565b6007811115613e0957613e0961509d565b1480613e2e57506007613e1b87610cde565b6007811115613e2c57613e2c61509d565b145b613e7a5760405162461bcd60e51b815260206004820152601f60248201527f766f74696e672d7265702d6d6f74696f6e2d6e6f742d636c61696d61626c65006044820152606401610898565b600080613e8888868661154c565b60008a81526011602090815260408083206001600160a01b038b16845282528083208984529091529020549193509150613f045760405162461bcd60e51b815260206004820152601b60248201527f766f74696e672d7265702d6e6f7468696e672d746f2d636c61696d00000000006044820152606401610898565b60008881526011602090815260408083206001600160a01b038981168086529184528285208986529093528184209390935560055460065491516393c4553560e01b81529183166004830152602482018690526044820193909352600160648201529116906393c4553590608401600060405180830381600087803b158015613f8c57600080fd5b505af1158015613fa0573d6000803e3d6000fd5b50505050600081111561404a5760035460028401546001600160a01b039091169063fce891a5908990899089613fd587615e89565b6040516001600160e01b031960e088901b1681526004810195909552602485019390935260448401919091526001600160a01b03166064830152608482015260a401600060405180830381600087803b15801561403157600080fd5b505af1158015614045573d6000803e3d6000fd5b505050505b83856001600160a01b0316897f388e060f12fe3bf76a4ba6d79050cbfa0484dfbfc3a2b866afbcbf4058b24bfe8560405161408791815260200190565b60405180910390a45050505050505050565b60008381526011602090815260408083206001600160a01b038616845282528083208484529091529020545b9392505050565b6000838152601060205260408120600481015482919082906140ef908790614666565b600583015460008981526012602090815260408083206001600160a01b038b1684529091529020549192509061412c5761412987826159bc565b90505b60006141388883614666565b6009850154600a86015491925060009161415291906159bc565b9050614161613dcd8583614685565b61416e613dcd8484614685565b965096505050505050935093915050565b6001600160a01b03811660009081526015602052604081208054916141a383615e49565b919050555050565b60003633301480156141be575060348110155b1561424757600080368080601f01602080910402602001604051908101604052809392919081815260200183838082843760009201919091525050505082810160131901519091507f02bcc191e283bfba76a1369ec8ba06566f33010645097c104c312753e04935e881146142365733935050505090565b5001516001600160a01b0316919050565b3391505090565b6000306001600160a01b03841603614268575060016125d3565b6001546001600160a01b0390811690841603614286575060016125d3565b6000546001600160a01b031661429e575060006125d3565b60005460405163b700961360e01b81526001600160a01b0385811660048301523060248301526001600160e01b0319851660448301529091169063b700961390606401602060405180830381865afa1580156142fe573d6000803e3d6000fd5b505050506040513d601f19601f820116820180604052508101906143229190615ce4565b90506125d3565b6000818152601060205260408120600401546007546125d39190614685565b60006302468acf60e31b61435d836020015190565b6001600160e01b031916146143735760056125d3565b600692915050565b60006001600160a01b0382161561439257816125d3565b50506003546001600160a01b031690565b6024818101516044830151600354604051630d3d4c7160e11b81526004810184905260009485926001600160a01b031691631a7a98e291016040805180830381865afa1580156143f7573d6000803e3d6000fd5b505050506040513d601f19601f8201168201806040525081019061441b9190615a06565b51600480546040516304e8852f60e11b81529293506001600160a01b0316916309d10a5e91614457918591879101918252602082015260400190565b602060405180830381865afa158015614474573d6000803e3d6000fd5b505050506040513d601f19601f820116820180604052508101906144989190615a54565b95945050505050565b6000806144b0868686866148f8565b905080891461450c5760405162461bcd60e51b815260206004820152602260248201527f636f6c6f6e792d657874656e73696f6e2d696e76616c69642d726f6f742d68616044820152610e6d60f31b6064820152608401610898565b60208501516014870151603488015160488901516003546001600160a01b0380851691161461458d5760405162461bcd60e51b815260206004820152602760248201527f636f6c6f6e792d657874656e73696f6e2d696e76616c69642d636f6c6f6e792d6044820152666164647265737360c81b6064820152608401610898565b8b82146145e65760405162461bcd60e51b815260206004820152602160248201527f636f6c6f6e792d657874656e73696f6e2d696e76616c69642d736b696c6c2d696044820152601960fa1b6064820152608401610898565b8a6001600160a01b0316816001600160a01b0316146146555760405162461bcd60e51b815260206004820152602560248201527f636f6c6f6e792d657874656e73696f6e2d696e76616c69642d757365722d6164604482015264647265737360d81b6064820152608401610898565b50919b9a5050505050505050505050565b60008161467b84670de0b6b3a7640000614920565b6140c59190615bbb565b6000670de0b6b3a764000061467b8484614920565b60006125d3826001615b7b565b6040517f19457468657265756d205369676e6564204d6573736167653a0a3332000000006020820152603c8101829052600090605c015b604051602081830303815290604052805190602001209050919050565b600080614709836020015190565b90506001600160e01b03198116633268b39f60e21b148061473a57506001600160e01b0319811663bae82ec960e01b145b61474657614746615ba5565b6064830151608484015160006001600160e01b03198416633268b39f60e21b1480156147725750816019145b156147a057604080516020810185905201604051602081830303815290604052805190602001209450614807565b60006001600160e01b03198516633268b39f60e21b146147c15760846147c5565b6101845b61ffff16905080870151915083826040516020016147ed929190918252602082015260400190565b604051602081830303815290604052805190602001209550505b50505050919050565b6000828152601060205260408120600d0154819061483c906201000090046001600160a01b031661437b565b90506000808451602086016000855af1949350505050565b600080614862836020015190565b90506001600160e01b03198116633268b39f60e21b148061489357506001600160e01b0319811663bae82ec960e01b145b61489f5761489f615ba5565b60006001600160e01b03198216633268b39f60e21b146148c05760c46148c3565b60e45b60ff1690506000818501526044845103606485012092505050919050565b6000818311156148f157816140c5565b5090919050565b600080614915868051906020012086805190602001208686614987565b509695505050505050565b6000811580614944575082826149368183615b8e565b92506149429083615bbb565b145b6125d35760405162461bcd60e51b815260206004820152601460248201527364732d6d6174682d6d756c2d6f766572666c6f7760601b6044820152606401610898565b6000614991614df5565b6040805180820190915286815261010060208201526149ae614e13565b8681526149b9614df5565b60005b8651811015614ace5760006149d089614b3c565b60ff169050806001901b19891698506149f68160ff6149ef9190615b7b565b8690614bd8565b60208601819052909550600090614a0c90614c7e565b60208701529050614a1c85614d39565b848260028110614a2e57614a2e615990565b602002015288518990600190614a45908690615b7b565b614a4f9190615b7b565b81518110614a5f57614a5f615990565b602002602001015184826001614a759190615b7b565b60028110614a8557614a85615990565b60200201818152505083604051602001614a9f9190615ea5565b60408051601f198184030181529190528051602090910120855250819050614ac681615e49565b9150506149bc565b5086600003614ae35760208201839052614b25565b6000614aee88614b3c565b60ff169050614b0a8160ff614b039190615b7b565b8590614bd8565b60208501819052909450614b1d90614c7e565b602085015250505b614b2e82614d39565b999098509650505050505050565b600081600003614b8e5760405162461bcd60e51b815260206004820152601e60248201527f636f6c6f6e792d70617472696369612d747265652d7a65726f2d73656c6600006044820152606401610898565b8160805b60018160ff1610610ef957614bae600160ff831681901b615b7b565b8216600003614bcd57614bc18184615ed9565b92508060ff1682901c91505b60011c607f16614b92565b6040805180820190915260008082526020820152604080518082019091526000808252602082015283602001518311158015614c1657506101008311155b614c2257614c22615ba5565b602082018390526000839003614c3b5760008252614c5f565b6001614c4984610100615b7b565b6001901b614c579190615b7b565b845190191682525b828460200151614c6f9190615b7b565b6020820152925190911b825291565b60408051808201909152600080825260208201819052906000836020015111614cf75760405162461bcd60e51b815260206004820152602560248201527f636f6c6f6e792d70617472696369612d747265652d7a65726f2d73656c662d6c6044820152640cadccee8d60db1b6064820152608401610898565b60ff8360000151901c60001c604051806040016040528060018660000151901b815260200160018660200151614d2d9190615b7b565b81525091509150915091565b805160208083015180820151905160408051938401949094529282015260608101919091526000906080016146de565b604051806101c00160405280614d7d614e4d565b8152602001600080191681526020016000815260200160008152602001600081526020016000815260200160008152602001614db7614df5565b8152602001614dc4614df5565b8152602001614dd1614df5565b81526000602082018190526040820181905260608083019190915260809091015290565b60405180604001604052806002906020820280368337509192915050565b604051806040016040528060008019168152602001614e48604051806040016040528060008019168152602001600081525090565b905290565b60405180606001604052806003906020820280368337509192915050565b6001600160a01b0381168114614e8057600080fd5b50565b8035614e8e81614e6b565b919050565b634e487b7160e01b600052604160045260246000fd5b604051601f8201601f191681016001600160401b0381118282101715614ed157614ed1614e93565b604052919050565b60006001600160401b03821115614ef257614ef2614e93565b50601f01601f191660200190565b600082601f830112614f1157600080fd5b8135614f24614f1f82614ed9565b614ea9565b818152846020838601011115614f3957600080fd5b816020850160208301376000918101602001919091529392505050565b803560ff81168114614e8e57600080fd5b600080600080600060a08688031215614f7f57600080fd5b8535614f8a81614e6b565b945060208601356001600160401b03811115614fa557600080fd5b614fb188828901614f00565b9450506040860135925060608601359150614fce60808701614f56565b90509295509295909350565b60005b83811015614ff5578181015183820152602001614fdd565b50506000910152565b60008151808452615016816020860160208601614fda565b601f01601f19169290920160200192915050565b6020815260006140c56020830184614ffe565b60006020828403121561504f57600080fd5b81356140c581614e6b565b60006020828403121561506c57600080fd5b81356001600160e01b0319811681146140c557600080fd5b60006020828403121561509657600080fd5b5035919050565b634e487b7160e01b600052602160045260246000fd5b60088110614e8057634e487b7160e01b600052602160045260246000fd5b602081016150de836150b3565b91905290565b600082601f8301126150f557600080fd5b813560206001600160401b0382111561511057615110614e93565b8160051b61511f828201614ea9565b928352848101820192828101908785111561513957600080fd5b83870192505b848310156151585782358252918301919083019061513f565b979650505050505050565b600080600080600080600080610100898b03121561518057600080fd5b883597506020890135965061519760408a01614e83565b955060608901356001600160401b03808211156151b357600080fd5b6151bf8c838d01614f00565b965060808b01359150808211156151d557600080fd5b6151e18c838d01614f00565b955060a08b01359150808211156151f757600080fd5b6152038c838d01614f00565b945060c08b0135935060e08b013591508082111561522057600080fd5b5061522d8b828c016150e4565b9150509295985092959890939650565b60008060006060848603121561525257600080fd5b83359250602084013561526481614e6b565b929592945050506040919091013590565b600080600080600080600060e0888a03121561529057600080fd5b873561529b81614e6b565b9650602088013595506040880135945060608801356001600160401b038111156152c457600080fd5b6152d08a828b01614f00565b9450506080880135925060a088013591506152ed60c08901614f56565b905092959891949750929550565b600080600080600080600080610100898b03121561531857600080fd5b505086359860208801359850604088013597606081013597506080810135965060a0810135955060c0810135945060e0013592509050565b6000806040838503121561536357600080fd5b82356001600160401b0381111561537957600080fd5b61538585828601614f00565b95602094909401359450505050565b8015158114614e8057600080fd5b6000602082840312156153b457600080fd5b81356140c581615394565b600080602083850312156153d257600080fd5b82356001600160401b03808211156153e957600080fd5b818501915085601f8301126153fd57600080fd5b81358181111561540c57600080fd5b8660208260051b850101111561542157600080fd5b60209290920196919550909350505050565b6000602080830181845280855180835260408601915060408160051b870101925083870160005b8281101561548857603f19888603018452615476858351614ffe565b9450928501929085019060010161545a565b5092979650505050505050565b8060005b60038110156154c15781516001600160401b0316845260209384019390910190600101615499565b50505050565b8060005b60028110156154c15781518452602093840193909101906001016154cb565b602081526154fc602082018351615495565b60208201516080820152604082015160a0820152606082015160c0820152608082015160e0820152600060a0830151610100818185015260c08501519150610120828186015260e08601519250610140615558818701856154c7565b9186015192506101809161556e868401856154c7565b8187015193506155826101c08701856154c7565b86015180151561020087015292506155979050565b61016085015115156102208501528401516001600160a01b0316610240840152506101a083015161026080840152610e21610280840182614ffe565b600080600080600080600060e0888a0312156155ee57600080fd5b87359650602088013595506040880135945060608801356001600160401b038082111561561a57600080fd5b6156268b838c01614f00565b955060808a013591508082111561563c57600080fd5b6156488b838c01614f00565b945060a08a0135935060c08a013591508082111561566557600080fd5b506156728a828b016150e4565b91505092959891949750929550565b60008060008060008060008060006101208a8c0312156156a057600080fd5b8935985060208a0135975060408a0135965060608a0135955060808a0135945060a08a01356001600160401b03808211156156da57600080fd5b6156e68d838e01614f00565b955060c08c01359150808211156156fc57600080fd5b6157088d838e01614f00565b945060e08c013593506101008c013591508082111561572657600080fd5b506157338c828d016150e4565b9150509295985092959850929598565b60008060008060008060c0878903121561575c57600080fd5b863595506020870135945060408701356001600160401b038082111561578157600080fd5b61578d8a838b01614f00565b955060608901359150808211156157a357600080fd5b6157af8a838b01614f00565b94506080890135935060a08901359150808211156157cc57600080fd5b506157d989828a016150e4565b9150509295509295509295565b600080604083850312156157f957600080fd5b50508035926020909101359150565b600080600080600060a0868803121561582057600080fd5b853594506020860135935060408601359250606086013561584081614e6b565b949793965091946080013592915050565b60008060006060848603121561586657600080fd5b8335925060208401359150604084013561587f81614e6b565b809150509250925092565b6000845161589c818460208901614fda565b919091019283525060601b6bffffffffffffffffffffffff19166020820152603401919050565b600082516158d5818460208701614fda565b9190910192915050565b6001600160a01b0384811682528316602082015260606040820181905260009061449890830184614ffe565b602080825260149082015273191ccb585d5d1a0b5d5b985d5d1a1bdc9a5e995960621b604082015260600190565b60006020828403121561594b57600080fd5b81516140c581614e6b565b600181811c9082168061596a57607f821691505b60208210810361598a57634e487b7160e01b600052602260045260246000fd5b50919050565b634e487b7160e01b600052603260045260246000fd5b634e487b7160e01b600052601160045260246000fd5b808201808211156125d3576125d36159a6565b6020808252601c908201527f766f74696e672d7265702d696e76616c69642d646f6d61696e2d696400000000604082015260600190565b600060408284031215615a1857600080fd5b604051604081018181106001600160401b0382111715615a3a57615a3a614e93565b604052825181526020928301519281019290925250919050565b600060208284031215615a6657600080fd5b5051919050565b601f821115615ab757600081815260208120601f850160051c81016020861015615a945750805b601f850160051c820191505b81811015615ab357828155600101615aa0565b5050505b505050565b81516001600160401b03811115615ad557615ad5614e93565b615ae981615ae38454615956565b84615a6d565b602080601f831160018114615b1e5760008415615b065750858301515b600019600386901b1c1916600185901b178555615ab3565b600085815260208120601f198616915b82811015615b4d57888601518255948401946001909101908401615b2e565b5085821015615b6b5787850151600019600388901b60f8161c191681555b5050505050600190811b01905550565b818103818111156125d3576125d36159a6565b80820281158282048414176125d3576125d36159a6565b634e487b7160e01b600052600160045260246000fd5b600082615bd857634e487b7160e01b600052601260045260246000fd5b500490565b8481526bffffffffffffffffffffffff198460601b16602082015282603482015260008251615c13816054850160208701614fda565b9190910160540195945050505050565b604081526000808454615c3581615956565b8060408601526060600180841660008114615c575760018114615c7157615ca2565b60ff1985168884015283151560051b880183019550615ca2565b8960005260208060002060005b86811015615c995781548b8201870152908401908201615c7e565b8a018501975050505b5050505084151560208501525090506140c5565b6001600160a01b03841681526020810183905260608101615cd6836150b3565b826040830152949350505050565b600060208284031215615cf657600080fd5b81516140c581615394565b6020808252601a908201527f766f74696e672d7265702d706572696f642d746f6f2d6c6f6e67000000000000604082015260600190565b6000808335601e19843603018112615d4f57600080fd5b8301803591506001600160401b03821115615d6957600080fd5b602001915036819003821315615d7e57600080fd5b9250929050565b6001600160e01b03198135818116916004851015615dad5780818660040360031b1b83161692505b505092915050565b828482376000838201600081528351615dd2818360208801614fda565b0195945050505050565b600060208284031215615dee57600080fd5b81516001600160401b03811115615e0457600080fd5b8201601f81018413615e1557600080fd5b8051615e23614f1f82614ed9565b818152856020838501011115615e3857600080fd5b614498826020830160208601614fda565b600060018201615e5b57615e5b6159a6565b5060010190565b6001600160401b03818116838216019080821115615e8257615e826159a6565b5092915050565b6000600160ff1b8201615e9e57615e9e6159a6565b5060000390565b60008183825b6002811015615eca578151835260209283019290910190600101615eab565b50505060408201905092915050565b60ff81811683821601908111156125d3576125d36159a656fe0ae897e29e11067b0051d7f0047638509aeaeacf4e5c4146283aa5dd6ad03fd4a26469706673582212205b498f61ad7e3ad1b82e4d628374ddffdbe4184cba7232c2c67f6eadd56d3d1264736f6c63430008140033",
  "immutableReferences": {},
  "source": "/*\n  This file is part of The Colony Network.\n\n  The Colony Network is free software: you can redistribute it and/or modify\n  it under the terms of the GNU General Public License as published by\n  the Free Software Foundation, either version 3 of the License, or\n  (at your option) any later version.\n\n  The Colony Network is distributed in the hope that it will be useful,\n  but WITHOUT ANY WARRANTY; without even the implied warranty of\n  MERCHANTABILITY or FITNESS FOR A PARTICULAR PURPOSE.  See the\n  GNU General Public License for more details.\n\n  You should have received a copy of the GNU General Public License\n  along with The Colony Network. If not, see <http://www.gnu.org/licenses/>.\n*/\n\npragma solidity 0.8.20;\npragma experimental ABIEncoderV2;\n\nimport \"./../../colonyNetwork/IColonyNetwork.sol\";\nimport \"./../../colony/ColonyRoles.sol\";\nimport \"./../../common/BasicMetaTransaction.sol\";\nimport \"./../../common/ERC20Extended.sol\";\nimport \"./../../tokenLocking/ITokenLocking.sol\";\nimport \"./../ColonyExtension.sol\";\nimport \"./VotingReputationDataTypes.sol\";\n\ncontract VotingReputation is ColonyExtension, BasicMetaTransaction, VotingReputationDataTypes {\n\n  // Constants\n  uint256 constant UINT128_MAX = 2**128 - 1;\n\n  uint256 constant NAY = 0;\n  uint256 constant YAY = 1;\n\n  uint256 constant STAKE_END = 0;\n  uint256 constant SUBMIT_END = 1;\n  uint256 constant REVEAL_END = 2;\n\n  bytes4 constant NO_ACTION = 0x12345678;\n\n  bytes32 constant ROOT_ROLES = (\n    bytes32(uint256(1)) << uint8(ColonyDataTypes.ColonyRole.Recovery) |\n    bytes32(uint256(1)) << uint8(ColonyDataTypes.ColonyRole.Root)\n  );\n\n  bytes4 constant SET_EXPENDITURE_STATE = bytes4(keccak256(\n    \"setExpenditureState(uint256,uint256,uint256,uint256,bool[],bytes32[],bytes32)\"\n  ));\n\n  bytes4 constant SET_EXPENDITURE_PAYOUT = bytes4(keccak256(\n    \"setExpenditurePayout(uint256,uint256,uint256,uint256,address,uint256)\"\n  ));\n\n  bytes4 constant OLD_MOVE_FUNDS_SIG = bytes4(keccak256(\n    \"moveFundsBetweenPots(uint256,uint256,uint256,uint256,uint256,uint256,address)\"\n  ));\n\n  // Initialization data\n  ExtensionState state;\n\n  IColonyNetwork colonyNetwork;\n  ITokenLocking tokenLocking;\n  address token;\n\n  // All `Fraction` variables are stored as WADs i.e. fixed-point numbers with 18 digits after the radix. So\n  // 1 WAD = 10**18, which is interpreted as 1.\n\n  uint256 totalStakeFraction; // Fraction of the domain's reputation needed to stake on each side in order to go to a motion.\n  // This can be set to a maximum of 0.5.\n  uint256 voterRewardFraction; // Fraction of staked tokens paid out to voters as rewards. This will be paid from the staked\n  // tokens of the losing side. This can be set to a maximum of 0.5.\n\n  uint256 userMinStakeFraction; // Minimum stake as fraction of required stake. 1 means a single user will be required to\n  // provide the whole stake on each side, which may not be possible depending on totalStakeFraction and the distribution of\n  // reputation in a domain.\n  uint256 maxVoteFraction; // Fraction of total domain reputation that needs to commit votes before closing to further votes.\n  // Setting this to anything other than 1 will mean it is likely not all those eligible to vote will be able to do so.\n\n  // All `Period` variables are second-denominated\n\n  uint256 stakePeriod; // Length of time for staking\n  uint256 submitPeriod; // Length of time for submitting votes\n  uint256 revealPeriod; // Length of time for revealing votes\n  uint256 escalationPeriod; // Length of time for escalating after a vote\n\n  uint256 motionCount;\n  mapping (uint256 => Motion) motions;\n  mapping (uint256 => mapping (address => mapping (uint256 => uint256))) stakes;\n  mapping (uint256 => mapping (address => bytes32)) voteSecrets;\n\n  mapping (bytes32 => uint256) expenditurePastVotes; // expenditure slot signature => voting power\n  mapping (bytes32 => uint256) expenditureMotionCounts; // expenditure struct signature => count\n\n  mapping(address => uint256) metatransactionNonces;\n\n  function getMetatransactionNonce(address _userAddress) override public view returns (uint256 _nonce){\n    // This offset is a result of fixing the storage layout, and having to prevent metatransactions being able to be replayed as a result\n    // of the nonce resetting. The broadcaster has made ~3000 transactions in total at time of commit, so we definitely won't have a single\n    // account at 1 million nonce by then.\n    return metatransactionNonces[_userAddress] + 1000000;\n  }\n\n  function incrementMetatransactionNonce(address user) override internal {\n    metatransactionNonces[user]++;\n  }\n\n  // Modifiers\n\n  modifier onlyRoot() {\n    require(colony.hasUserRole(msgSender(), 1, ColonyDataTypes.ColonyRole.Root), \"voting-rep-caller-not-root\");\n    _;\n  }\n\n  // Public\n\n  function identifier() public override pure returns (bytes32 _identifier) {\n    return keccak256(\"VotingReputation\");\n  }\n\n  function version() public pure override returns (uint256 _version) {\n    return 9;\n  }\n\n  function install(address _colony) public override {\n    require(address(colony) == address(0x0), \"extension-already-installed\");\n\n    colony = IColony(_colony);\n    colonyNetwork = IColonyNetwork(colony.getColonyNetwork());\n    tokenLocking = ITokenLocking(colonyNetwork.getTokenLocking());\n    token = colony.getToken();\n  }\n\n  function initialise(\n    uint256 _totalStakeFraction,\n    uint256 _voterRewardFraction,\n    uint256 _userMinStakeFraction,\n    uint256 _maxVoteFraction,\n    uint256 _stakePeriod,\n    uint256 _submitPeriod,\n    uint256 _revealPeriod,\n    uint256 _escalationPeriod\n  )\n    public\n    onlyRoot\n  {\n    require(state == ExtensionState.Deployed, \"voting-rep-already-initialised\");\n\n    require(_totalStakeFraction <= WAD / 2, \"voting-rep-greater-than-half-wad\");\n    require(_voterRewardFraction <= WAD / 2, \"voting-rep-greater-than-half-wad\");\n\n    require(_userMinStakeFraction <= WAD, \"voting-rep-greater-than-wad\");\n    require(_maxVoteFraction <= WAD, \"voting-rep-greater-than-wad\");\n\n    require(_stakePeriod <= 365 days, \"voting-rep-period-too-long\");\n    require(_submitPeriod <= 365 days, \"voting-rep-period-too-long\");\n    require(_revealPeriod <= 365 days, \"voting-rep-period-too-long\");\n    require(_escalationPeriod <= 365 days, \"voting-rep-period-too-long\");\n\n    state = ExtensionState.Active;\n\n    totalStakeFraction = _totalStakeFraction;\n    voterRewardFraction = _voterRewardFraction;\n\n    userMinStakeFraction = _userMinStakeFraction;\n    maxVoteFraction = _maxVoteFraction;\n\n    stakePeriod = _stakePeriod;\n    submitPeriod = _submitPeriod;\n    revealPeriod = _revealPeriod;\n    escalationPeriod = _escalationPeriod;\n\n    emit ExtensionInitialised();\n  }\n\n  function finishUpgrade() public override auth {\n  } // solhint-disable-line no-empty-blocks\n\n  function deprecate(bool _deprecated) public override auth {\n    deprecated = _deprecated;\n  }\n\n  function uninstall() public override auth {\n    selfdestruct(payable(address(colony)));\n  }\n\n  // Public functions (interface)\n\n function createMotion(\n    uint256 _domainId,\n    uint256 _childSkillIndex,\n    address _altTarget,\n    bytes memory _action,\n    bytes memory _key,\n    bytes memory _value,\n    uint256 _branchMask,\n    bytes32[] memory _siblings\n  )\n    public\n    notDeprecated\n  {\n    require(state == ExtensionState.Active, \"voting-rep-not-active\");\n    require(_altTarget != address(colony), \"voting-rep-alt-target-cannot-be-base-colony\");\n\n    address target = getTarget(_altTarget);\n    bytes4 action = getSig(_action);\n\n    require(action != OLD_MOVE_FUNDS_SIG, \"voting-rep-disallowed-function\");\n\n    uint256 skillId;\n\n    if ( action == NO_ACTION ) {\n      // This special action indication 'no action' for simple decisions, but\n      // there's no such function signature, so colonies don't know about it, and there's\n      // no domain to extract from the 'action'\n      // We effectively assert the 'action' is taking place in the domain the simple decision\n      // is taking place in\n      require(_childSkillIndex == UINT256_MAX, \"voting-rep-invalid-domain-id\");\n      skillId = colony.getDomain(_domainId).skillId;\n\n    } else if (ColonyRoles(target).getCapabilityRoles(action) | ROOT_ROLES == ROOT_ROLES) {\n\n      // A root or unpermissioned function\n      require(_domainId == 1 && _childSkillIndex == UINT256_MAX, \"voting-rep-invalid-domain-id\");\n      skillId = colony.getDomain(1).skillId;\n\n    } else {\n\n      // A domain permissioned function\n      skillId = colony.getDomain(_domainId).skillId;\n      uint256 actionDomainSkillId = getActionDomainSkillId(_action);\n\n      if (skillId != actionDomainSkillId) {\n        uint256 childSkillId = colonyNetwork.getChildSkillId(skillId, _childSkillIndex);\n        require(childSkillId == actionDomainSkillId, \"voting-rep-invalid-domain-id\");\n      } else {\n        require(_childSkillIndex == UINT256_MAX, \"voting-rep-invalid-domain-id\");\n      }\n    }\n\n    motionCount += 1;\n    Motion storage motion = motions[motionCount];\n\n    motion.events[STAKE_END] = uint64(block.timestamp + stakePeriod);\n\n    motion.rootHash = colonyNetwork.getReputationRootHash();\n    motion.domainId = _domainId;\n    motion.skillId = skillId;\n\n    motion.skillRep = checkReputation(motion.rootHash, skillId, address(0x0), _key, _value, _branchMask, _siblings);\n    require(motion.skillRep > 0, \"voting-rep-no-reputation-in-domain\");\n    motion.altTarget = _altTarget;\n    motion.action = _action;\n\n    emit MotionCreated(motionCount, msgSender(), _domainId);\n  }\n\n  function stakeMotion(\n    uint256 _motionId,\n    uint256 _permissionDomainId,\n    uint256 _childSkillIndex,\n    uint256 _vote,\n    uint256 _amount,\n    bytes memory _key,\n    bytes memory _value,\n    uint256 _branchMask,\n    bytes32[] memory _siblings\n  )\n    public\n  {\n    Motion storage motion = motions[_motionId];\n    require(_vote <= 1, \"voting-rep-bad-vote\");\n    require(getMotionState(_motionId) == MotionState.Staking, \"voting-rep-motion-not-staking\");\n\n    uint256 requiredStake = getRequiredStake(_motionId);\n    uint256 amount = min(_amount, requiredStake - motion.stakes[_vote]);\n    require(amount > 0, \"voting-rep-bad-amount\");\n\n    uint256 stakerTotalAmount = stakes[_motionId][msgSender()][_vote] + amount;\n\n    require(\n      stakerTotalAmount <= checkReputation(motion.rootHash, motion.skillId, msgSender(), _key, _value, _branchMask, _siblings),\n      \"voting-rep-insufficient-rep\"\n    );\n    require(\n      stakerTotalAmount >= wmul(requiredStake, userMinStakeFraction) ||\n      (motion.stakes[_vote] + amount) == requiredStake, // To prevent a residual stake from being un-stakable\n      \"voting-rep-insufficient-stake\"\n    );\n\n    // Update the stake\n    motion.stakes[_vote] += amount;\n    stakes[_motionId][msgSender()][_vote] = stakerTotalAmount;\n\n    // Increment counter & extend claim delay if staking for an expenditure state change\n    if (\n      _vote == YAY &&\n      !motion.escalated &&\n      motion.stakes[YAY] == requiredStake && (\n        getSig(motion.action) == SET_EXPENDITURE_STATE ||\n        getSig(motion.action) == SET_EXPENDITURE_PAYOUT\n      ) && motion.altTarget == address(0x0)\n    ) {\n      bytes32 structHash = hashExpenditureActionStruct(motion.action);\n      expenditureMotionCounts[structHash] += 1;\n      // Set to UINT256_MAX / 3 to avoid overflow (finalizedTimestamp + globalClaimDelay + claimDelay)\n      bytes memory claimDelayAction = createClaimDelayAction(motion.action, UINT256_MAX / 3);\n      require(executeCall(_motionId, claimDelayAction), \"voting-rep-expenditure-lock-failed\");\n    }\n\n    emit MotionStaked(_motionId, msgSender(), _vote, amount);\n\n    // Move to vote submission once both sides are fully staked\n    if (motion.stakes[NAY] == requiredStake && motion.stakes[YAY] == requiredStake) {\n      motion.events[STAKE_END] = uint64(block.timestamp);\n      motion.events[SUBMIT_END] = motion.events[STAKE_END] + uint64(submitPeriod);\n      motion.events[REVEAL_END] = motion.events[SUBMIT_END] + uint64(revealPeriod);\n\n      emit MotionEventSet(_motionId, STAKE_END);\n\n    // Move to second staking window once one side is fully staked\n    } else if (\n      (_vote == NAY && motion.stakes[NAY] == requiredStake) ||\n      (_vote == YAY && motion.stakes[YAY] == requiredStake)\n    ) {\n      motion.events[STAKE_END] = uint64(block.timestamp + stakePeriod);\n\n      // New stake supersedes prior votes\n      delete motion.votes;\n      delete motion.repSubmitted;\n\n      emit MotionEventSet(_motionId, STAKE_END);\n    }\n\n    // Do the external bookkeeping\n    tokenLocking.deposit(token, 0, true); // Faux deposit to clear any locks\n    colony.obligateStake(msgSender(), motion.domainId, amount);\n    colony.transferStake(_permissionDomainId, _childSkillIndex, address(this), msgSender(), motion.domainId, amount, address(this));\n  }\n\n  function submitVote(\n    uint256 _motionId,\n    bytes32 _voteSecret,\n    bytes memory _key,\n    bytes memory _value,\n    uint256 _branchMask,\n    bytes32[] memory _siblings\n  )\n    public\n  {\n    Motion storage motion = motions[_motionId];\n    require(getMotionState(_motionId) == MotionState.Submit, \"voting-rep-motion-not-open\");\n    require(_voteSecret != bytes32(0), \"voting-rep-invalid-secret\");\n\n    uint256 userRep = checkReputation(motion.rootHash, motion.skillId, msgSender(), _key, _value, _branchMask, _siblings);\n\n    // Count reputation if first submission\n    if (voteSecrets[_motionId][msgSender()] == bytes32(0)) {\n      motion.repSubmitted += userRep;\n    }\n\n    voteSecrets[_motionId][msgSender()] = _voteSecret;\n\n    emit MotionVoteSubmitted(_motionId, msgSender());\n\n    if (motion.repSubmitted >= wmul(motion.skillRep, maxVoteFraction)) {\n      motion.events[SUBMIT_END] = uint64(block.timestamp);\n      motion.events[REVEAL_END] = uint64(block.timestamp + revealPeriod);\n\n      emit MotionEventSet(_motionId, SUBMIT_END);\n    }\n  }\n\n  function revealVote(\n    uint256 _motionId,\n    bytes32 _salt,\n    uint256 _vote,\n    bytes memory _key,\n    bytes memory _value,\n    uint256 _branchMask,\n    bytes32[] memory _siblings\n  )\n    public\n  {\n    Motion storage motion = motions[_motionId];\n    require(getMotionState(_motionId) == MotionState.Reveal, \"voting-rep-motion-not-reveal\");\n    require(_vote <= 1, \"voting-rep-bad-vote\");\n\n    uint256 userRep = checkReputation(motion.rootHash, motion.skillId, msgSender(), _key, _value, _branchMask, _siblings);\n    motion.votes[_vote] += userRep;\n\n    bytes32 voteSecret = voteSecrets[_motionId][msgSender()];\n    require(voteSecret == getVoteSecret(_salt, _vote), \"voting-rep-secret-no-match\");\n    delete voteSecrets[_motionId][msgSender()];\n\n    uint256 voterReward = getVoterReward(_motionId, userRep);\n    motion.paidVoterComp += voterReward;\n\n    emit MotionVoteRevealed(_motionId, msgSender(), _vote);\n\n    // See if reputation revealed matches reputation submitted\n    if ((motion.votes[NAY] + motion.votes[YAY]) == motion.repSubmitted) {\n      motion.events[REVEAL_END] = uint64(block.timestamp);\n\n      emit MotionEventSet(_motionId, REVEAL_END);\n    }\n\n    tokenLocking.transfer(token, voterReward, msgSender(), true);\n  }\n\n  function escalateMotion(\n    uint256 _motionId,\n    uint256 _newDomainId,\n    uint256 _childSkillIndex,\n    bytes memory _key,\n    bytes memory _value,\n    uint256 _branchMask,\n    bytes32[] memory _siblings\n  )\n    public\n  {\n    Motion storage motion = motions[_motionId];\n    require(getMotionState(_motionId) == MotionState.Closed, \"voting-rep-motion-not-closed\");\n\n    uint256 newDomainSkillId = colony.getDomain(_newDomainId).skillId;\n    uint256 childSkillId = colonyNetwork.getChildSkillId(newDomainSkillId, _childSkillIndex);\n    require(childSkillId == motion.skillId, \"voting-rep-invalid-domain-proof\");\n\n    uint256 domainId = motion.domainId;\n    motion.domainId = _newDomainId;\n    motion.skillId = newDomainSkillId;\n    motion.skillRep = checkReputation(motion.rootHash, motion.skillId, address(0x0), _key, _value, _branchMask, _siblings);\n\n    uint256 loser = (motion.votes[NAY] < motion.votes[YAY]) ? NAY : YAY;\n    motion.stakes[loser] -= motion.paidVoterComp;\n    motion.pastVoterComp[loser] += motion.paidVoterComp;\n    delete motion.paidVoterComp;\n\n    uint256 requiredStake = getRequiredStake(_motionId);\n\n    if (motion.stakes[NAY] < requiredStake || motion.stakes[YAY] < requiredStake) {\n      motion.events[STAKE_END] = uint64(block.timestamp + stakePeriod);\n    } else {\n      motion.events[STAKE_END] = uint64(block.timestamp);\n      motion.events[SUBMIT_END] = motion.events[STAKE_END] + uint64(submitPeriod);\n      motion.events[REVEAL_END] = motion.events[SUBMIT_END] + uint64(revealPeriod);\n    }\n\n    motion.escalated = true;\n\n    emit MotionEscalated(_motionId, msgSender(), domainId, _newDomainId);\n\n    if (motion.events[STAKE_END] <= uint64(block.timestamp)) {\n      emit MotionEventSet(_motionId, STAKE_END);\n    }\n  }\n\n  function finalizeMotion(uint256 _motionId) public {\n    Motion storage motion = motions[_motionId];\n    require(getMotionState(_motionId) == MotionState.Finalizable, \"voting-rep-motion-not-finalizable\");\n\n    assert(\n      motion.stakes[YAY] == getRequiredStake(_motionId) ||\n      (motion.votes[NAY] + motion.votes[YAY]) > 0\n    );\n\n    motion.finalized = true;\n\n    bool canExecute = (\n      motion.stakes[NAY] < motion.stakes[YAY] ||\n      motion.votes[NAY] < motion.votes[YAY]\n    );\n\n    if ((\n        getSig(motion.action) == SET_EXPENDITURE_STATE ||\n        getSig(motion.action) == SET_EXPENDITURE_PAYOUT\n      ) && getTarget(motion.altTarget) == address(colony)\n    ) {\n      bytes32 structHash = hashExpenditureActionStruct(motion.action);\n      expenditureMotionCounts[structHash] -= 1;\n\n      // Release the claimDelay if this is the last active motion\n      if (expenditureMotionCounts[structHash] == 0) {\n        bytes memory claimDelayAction = createClaimDelayAction(motion.action, 0);\n        // No require this time, since we don't want stakes to be permanently locked\n        executeCall(_motionId, claimDelayAction);\n      }\n\n      bytes32 actionHash = hashExpenditureAction(motion.action);\n      uint256 votePower = (motion.votes[NAY] + motion.votes[YAY]) > 0 ?\n        motion.votes[YAY] : motion.stakes[YAY];\n\n      if (expenditurePastVotes[actionHash] < votePower) {\n        expenditurePastVotes[actionHash] = votePower;\n      } else {\n        canExecute = false;\n      }\n    }\n\n    bool executed;\n\n    if (canExecute) {\n      executed = executeCall(_motionId, motion.action);\n      require(executed || failingExecutionAllowed(_motionId), \"voting-execution-failed-not-one-week\");\n    }\n\n    emit MotionFinalized(_motionId, motion.action, executed);\n  }\n\n  function failingExecutionAllowed(uint256 _motionId) public view returns (bool _allowed) {\n    Motion storage motion = motions[_motionId];\n    uint256 requiredStake = getRequiredStake(_motionId);\n\n    // Failing execution is allowed if we didn't fully stake, and it's been a week since staking ended\n    if (motion.stakes[YAY] < requiredStake || motion.stakes[NAY] < requiredStake) {\n      return block.timestamp >= motion.events[STAKE_END] + 7 days;\n    } else {\n      // It was fully staked, and went to a vote.\n      // Failing execution is also allowed if it's been a week since reveal ended\n      return block.timestamp >= motion.events[REVEAL_END] + 7 days;\n    }\n  }\n\n  function claimReward(\n    uint256 _motionId,\n    uint256 _permissionDomainId,\n    uint256 _childSkillIndex,\n    address _staker,\n    uint256 _vote\n  )\n    public\n  {\n    Motion storage motion = motions[_motionId];\n    require(\n      getMotionState(_motionId) == MotionState.Finalized ||\n      getMotionState(_motionId) == MotionState.Failed,\n      \"voting-rep-motion-not-claimable\"\n    );\n\n    (uint256 stakerReward, uint256 repPenalty) = getStakerReward(_motionId, _staker, _vote);\n\n    require(stakes[_motionId][_staker][_vote] > 0, \"voting-rep-nothing-to-claim\");\n    delete stakes[_motionId][_staker][_vote];\n\n    tokenLocking.transfer(token, stakerReward, _staker, true);\n\n    if (repPenalty > 0) {\n      colony.emitDomainReputationPenalty(\n        _permissionDomainId,\n        _childSkillIndex,\n        motion.domainId,\n        _staker,\n        -int256(repPenalty)\n      );\n    }\n\n    emit MotionRewardClaimed(_motionId, _staker, _vote, stakerReward);\n  }\n\n  // Public view functions\n\n  function getTotalStakeFraction() public view returns (uint256 _fraction) {\n    return totalStakeFraction;\n  }\n\n  function getVoterRewardFraction() public view returns (uint256 _fraction) {\n    return voterRewardFraction;\n  }\n\n  function getUserMinStakeFraction() public view returns (uint256 _fraction) {\n    return userMinStakeFraction;\n  }\n\n  function getMaxVoteFraction() public view returns (uint256 _fraction) {\n    return maxVoteFraction;\n  }\n\n  function getStakePeriod() public view returns (uint256 _period) {\n    return stakePeriod;\n  }\n\n  function getSubmitPeriod() public view returns (uint256 _period) {\n    return submitPeriod;\n  }\n\n  function getRevealPeriod() public view returns (uint256 _period) {\n    return revealPeriod;\n  }\n\n  function getEscalationPeriod() public view returns (uint256 _period) {\n    return escalationPeriod;\n  }\n\n  function getMotionCount() public view returns (uint256 _count) {\n    return motionCount;\n  }\n\n  function getMotion(uint256 _motionId) public view returns (Motion memory _motion) {\n    _motion = motions[_motionId];\n  }\n\n  function getStake(uint256 _motionId, address _staker, uint256 _vote) public view returns (uint256 _stake) {\n    return stakes[_motionId][_staker][_vote];\n  }\n\n  function getExpenditureMotionCount(bytes32 _structHash) public view returns (uint256 _count) {\n    return expenditureMotionCounts[_structHash];\n  }\n\n  function getExpenditurePastVote(bytes32 _actionHash) public view returns (uint256 _vote) {\n    return expenditurePastVotes[_actionHash];\n  }\n\n  function getMotionState(uint256 _motionId) public view returns (MotionState _motionState) {\n    Motion storage motion = motions[_motionId];\n    uint256 requiredStake = getRequiredStake(_motionId);\n\n    // Check for valid motion Id / motion\n    if (_motionId == 0 || _motionId > motionCount || motion.action.length == 0) {\n\n      return MotionState.Null;\n\n    // If finalized, we're done\n    } else if (motion.finalized) {\n\n      return MotionState.Finalized;\n\n    // Not fully staked\n    } else if (\n      motion.stakes[YAY] < requiredStake ||\n      motion.stakes[NAY] < requiredStake\n    ) {\n\n      // Are we still staking?\n      if (block.timestamp < motion.events[STAKE_END]) {\n        return MotionState.Staking;\n      // If not, did the YAY side stake?\n      } else if (motion.stakes[YAY] == requiredStake) {\n        return finalizableOrFinalized(motion.action);\n      // If not, was there a prior vote we can fall back on?\n      } else if (motion.votes[NAY] + motion.votes[YAY] > 0) {\n        return finalizableOrFinalized(motion.action);\n      // Otherwise, the motion failed\n      } else {\n        return MotionState.Failed;\n      }\n\n    // Fully staked, go to a vote\n    } else {\n\n      if (block.timestamp < motion.events[SUBMIT_END]) {\n        return MotionState.Submit;\n      } else if (block.timestamp < motion.events[REVEAL_END]) {\n        return MotionState.Reveal;\n      } else if (\n        block.timestamp < motion.events[REVEAL_END] + escalationPeriod &&\n        motion.domainId > 1\n      ) {\n        return MotionState.Closed;\n      } else {\n        return finalizableOrFinalized(motion.action);\n      }\n    }\n  }\n\n  // If we decide that the motion is finalizable, we might actually want it to report as finalized if it's a no-action\n  // motion.\n  function finalizableOrFinalized(bytes memory action) internal pure returns (MotionState) {\n    return getSig(action) == NO_ACTION ? MotionState.Finalized : MotionState.Finalizable;\n  }\n\n  function getVoterReward(uint256 _motionId, uint256 _voterRep) public view returns (uint256 _reward) {\n    Motion storage motion = motions[_motionId];\n    uint256 fractionUserReputation = wdiv(_voterRep, motion.repSubmitted);\n    uint256 totalStake = motion.stakes[YAY] + motion.stakes[NAY];\n    return wmul(wmul(fractionUserReputation, totalStake), voterRewardFraction);\n  }\n\n  function getVoterRewardRange(uint256 _motionId, uint256 _voterRep, address _voterAddress) public view returns (uint256 _rewardMin, uint256 _rewardMax) {\n    Motion storage motion = motions[_motionId];\n    // The minimum reward is when everyone has voted, with a total weight of motion.skillRep\n    uint256 minFractionUserReputation = wdiv(_voterRep, motion.skillRep);\n\n    // The maximum reward is when this user is the only other person who votes (if they haven't already),\n    // aside from those who have already done so\n    uint256 voteTotal = motion.repSubmitted;\n    // Has the user already voted?\n    if (voteSecrets[_motionId][_voterAddress] == bytes32(0)) {\n      // They have not, so add their rep\n      voteTotal += _voterRep;\n    }\n    uint256 maxFractionUserReputation = wdiv(_voterRep, voteTotal);\n\n    uint256 totalStake = motion.stakes[YAY] + motion.stakes[NAY];\n    return (\n      wmul(wmul(minFractionUserReputation, totalStake), voterRewardFraction),\n      wmul(wmul(maxFractionUserReputation, totalStake), voterRewardFraction)\n    );\n  }\n\n  function getStakerReward(uint256 _motionId, address _staker, uint256 _vote) public view returns (uint256 _reward, uint256 _penalty) {\n    Motion storage motion = motions[_motionId];\n\n    uint256 totalSideStake = motion.stakes[_vote] + motion.pastVoterComp[_vote];\n    if (totalSideStake == 0) { return (0, 0); }\n\n    uint256 stakeFraction = wdiv(stakes[_motionId][_staker][_vote], totalSideStake);\n\n    uint256 realStake = wmul(stakeFraction, motion.stakes[_vote]);\n\n    uint256 stakerReward;\n    uint256 repPenalty;\n\n    // Went to a vote, use vote to determine reward or penalty\n    if ((motion.votes[NAY] + motion.votes[YAY]) > 0) {\n\n      uint256 loserStake;\n      uint256 winnerStake;\n      if (motion.votes[YAY] > motion.votes[NAY]){\n        loserStake = motion.stakes[NAY];\n        winnerStake = motion.stakes[YAY];\n      } else {\n        loserStake = motion.stakes[YAY];\n        winnerStake = motion.stakes[NAY];\n      }\n\n      loserStake -= motion.paidVoterComp;\n      uint256 totalVotes = motion.votes[NAY] + motion.votes[YAY];\n      uint256 winFraction = wdiv(motion.votes[_vote], totalVotes);\n      uint256 winShare = wmul(winFraction, 2 * WAD); // On a scale of 0-2 WAD\n\n      if (winShare > WAD || (winShare == WAD && _vote == NAY)) {\n        // 50% gets 0% of loser's stake, 100% gets 100% of loser's stake, linear in between\n        stakerReward = wmul(stakeFraction, (winnerStake + wmul(loserStake, winShare - WAD)));\n      } else {\n        stakerReward = wmul(stakeFraction, wmul(loserStake, winShare));\n        repPenalty = realStake - stakerReward;\n      }\n\n    // Determine rewards based on stakes alone\n    } else {\n      assert(motion.paidVoterComp == 0);\n      uint256 requiredStake = getRequiredStake(_motionId);\n\n      // Your side fully staked, receive 10% (proportional) of loser's stake\n      if (\n        motion.stakes[_vote] == requiredStake &&\n        motion.stakes[flip(_vote)] < requiredStake\n      ) {\n\n        uint256 loserStake = motion.stakes[flip(_vote)];\n        uint256 totalPenalty = wmul(loserStake, WAD / 10);\n        stakerReward = wmul(stakeFraction, (requiredStake + totalPenalty));\n\n      // Opponent's side fully staked, pay 10% penalty\n      } else if (\n        motion.stakes[_vote] < requiredStake &&\n        motion.stakes[flip(_vote)] == requiredStake\n      ) {\n\n        uint256 loserStake = motion.stakes[_vote];\n        uint256 totalPenalty = wmul(loserStake, WAD / 10);\n        stakerReward = wmul(stakeFraction, loserStake - totalPenalty);\n        repPenalty = realStake - stakerReward;\n\n      // Neither side fully staked (or no votes were revealed), no reward or penalty\n      } else {\n\n        stakerReward = realStake;\n\n      }\n    }\n\n    return (stakerReward, repPenalty);\n  }\n\n  // Internal functions\n\n  function getVoteSecret(bytes32 _salt, uint256 _vote) internal pure returns (bytes32) {\n    return keccak256(abi.encodePacked(_salt, _vote));\n  }\n\n  function getRequiredStake(uint256 _motionId) internal view returns (uint256) {\n    return wmul(motions[_motionId].skillRep, totalStakeFraction);\n  }\n\n  function getTarget(address _target) internal view returns (address) {\n    return (_target == address(0x0)) ? address(colony) : _target;\n  }\n\n  function flip(uint256 _vote) internal pure returns (uint256) {\n    return 1 - _vote;\n  }\n\n  function getActionDomainSkillId(bytes memory _action) internal view returns (uint256) {\n    uint256 permissionDomainId;\n    uint256 childSkillIndex;\n\n    assembly {\n      permissionDomainId := mload(add(_action, 0x24))\n      childSkillIndex := mload(add(_action, 0x44))\n    }\n\n    uint256 permissionSkillId = colony.getDomain(permissionDomainId).skillId;\n    return colonyNetwork.getChildSkillId(permissionSkillId, childSkillIndex);\n  }\n\n  function executeCall(uint256 motionId, bytes memory action) internal returns (bool success) {\n    address to = getTarget(motions[motionId].altTarget);\n\n    assembly {\n              // call contract at address a with input mem[in(in+insize))\n              //   providing g gas and v wei and output area mem[out(out+outsize))\n              //   returning 0 on error (eg. out of gas) and 1 on success\n\n              // call(g,   a,  v, in,                insize,        out, outsize)\n      success := call(gas(), to, 0, add(action, 0x20), mload(action), 0, 0)\n    }\n  }\n\n  function getSig(bytes memory action) internal pure returns (bytes4 sig) {\n    assembly {\n      sig := mload(add(action, 0x20))\n    }\n  }\n\n  function hashExpenditureAction(bytes memory action) internal returns (bytes32 hash) {\n    bytes4 sig = getSig(action);\n    assert(sig == SET_EXPENDITURE_STATE || sig == SET_EXPENDITURE_PAYOUT);\n\n    uint256 valueLoc = (sig == SET_EXPENDITURE_STATE) ? 0xe4 : 0xc4;\n\n    // Hash all but the domain proof and action value, so actions for the\n    //   same storage slot return the same hash.\n    // Recall: mload(action) gives the length of the bytes array\n    // So skip past the three bytes32 (length + domain proof),\n    //   plus 4 bytes for the sig (0x64). Subtract the same from the end, less\n    //   the length bytes32 (0x44). And zero out the value.\n\n    assembly {\n      mstore(add(action, valueLoc), 0x0)\n      hash := keccak256(add(action, 0x64), sub(mload(action), 0x44))\n    }\n  }\n\n  function hashExpenditureActionStruct(bytes memory action) internal returns (bytes32 hash) {\n    bytes4 sig = getSig(action);\n    assert(sig == SET_EXPENDITURE_STATE || sig == SET_EXPENDITURE_PAYOUT);\n\n    uint256 expenditureId;\n    uint256 storageSlot; // This value is only used if (sig == SET_EXPENDITURE_STATE)\n    uint256 expenditureSlot;\n\n    assembly {\n      expenditureId := mload(add(action, 0x64))\n      storageSlot := mload(add(action, 0x84))\n    }\n\n    if (sig == SET_EXPENDITURE_STATE && storageSlot == 25) {\n      hash = keccak256(abi.encodePacked(expenditureId));\n    } else {\n      uint256 expenditureSlotLoc = (sig == SET_EXPENDITURE_STATE) ? 0x184 : 0x84;\n      assembly {\n        expenditureSlot := mload(add(action, expenditureSlotLoc))\n      }\n      hash = keccak256(abi.encodePacked(expenditureId, expenditureSlot));\n    }\n  }\n\n  function createClaimDelayAction(bytes memory action, uint256 value)\n    public\n    returns (bytes memory)\n  {\n    // See https://solidity.readthedocs.io/en/develop/abi-spec.html#use-of-dynamic-types\n    //  for documentation on how the action `bytes` is encoded\n    // In brief, the first byte32 is the length of the array. Then we have\n    //   4 bytes of function signature, following by an arbitrary number of\n    //   additional byte32 arguments. 32 in hex is 0x20, so every increment\n    //   of 0x20 represents advancing one byte, 4 is the function signature.\n    // So: 0x[length][sig][args...]\n\n    bytes4 sig = getSig(action);\n    assert(sig == SET_EXPENDITURE_STATE || sig == SET_EXPENDITURE_PAYOUT);\n\n    bytes4 functionSignature = SET_EXPENDITURE_STATE;\n\n    uint256 permissionDomainId;\n    uint256 childSkillIndex;\n    uint256 expenditureId;\n    uint256 storageSlot; // This value is only used if (sig == SET_EXPENDITURE_STATE)\n    uint256 expenditureSlot;\n\n    assembly {\n      permissionDomainId := mload(add(action, 0x24))\n      childSkillIndex := mload(add(action, 0x44))\n      expenditureId := mload(add(action, 0x64))\n      storageSlot := mload(add(action, 0x84))\n    }\n\n    // If we are editing the main expenditure struct\n    if (sig == SET_EXPENDITURE_STATE && storageSlot == 25) {\n      bytes memory mainClaimDelayAction = new bytes(4 + 32 * 11); // 356 bytes\n\n      assembly {\n        mstore(add(mainClaimDelayAction, 0x20), functionSignature)\n        mstore(add(mainClaimDelayAction, 0x24), permissionDomainId)\n        mstore(add(mainClaimDelayAction, 0x44), childSkillIndex)\n        mstore(add(mainClaimDelayAction, 0x64), expenditureId)\n        mstore(add(mainClaimDelayAction, 0x84), 25)     // expenditure storage slot\n        mstore(add(mainClaimDelayAction, 0xa4), 0xe0)   // mask location\n        mstore(add(mainClaimDelayAction, 0xc4), 0x120)  // keys location\n        mstore(add(mainClaimDelayAction, 0xe4), value)\n        mstore(add(mainClaimDelayAction, 0x104), 1)     // mask length\n        mstore(add(mainClaimDelayAction, 0x124), 1)     // offset\n        mstore(add(mainClaimDelayAction, 0x144), 1)     // keys length\n        mstore(add(mainClaimDelayAction, 0x164), 4)     // globalClaimDelay offset\n      }\n\n      return mainClaimDelayAction;\n\n    // If we are editing an expenditure slot\n    } else {\n      bytes memory slotClaimDelayAction = new bytes(4 + 32 * 13); // 420 bytes\n      uint256 expenditureSlotLoc = (sig == SET_EXPENDITURE_STATE) ? 0x184 : 0x84;\n\n      assembly {\n        expenditureSlot := mload(add(action, expenditureSlotLoc))\n\n        mstore(add(slotClaimDelayAction, 0x20), functionSignature)\n        mstore(add(slotClaimDelayAction, 0x24), permissionDomainId)\n        mstore(add(slotClaimDelayAction, 0x44), childSkillIndex)\n        mstore(add(slotClaimDelayAction, 0x64), expenditureId)\n        mstore(add(slotClaimDelayAction, 0x84), 26)     // expenditureSlot storage slot\n        mstore(add(slotClaimDelayAction, 0xa4), 0xe0)   // mask location\n        mstore(add(slotClaimDelayAction, 0xc4), 0x140)  // keys location\n        mstore(add(slotClaimDelayAction, 0xe4), value)\n        mstore(add(slotClaimDelayAction, 0x104), 2)     // mask length\n        mstore(add(slotClaimDelayAction, 0x124), 0)     // mapping\n        mstore(add(slotClaimDelayAction, 0x144), 1)     // offset\n        mstore(add(slotClaimDelayAction, 0x164), 2)     // keys length\n        mstore(add(slotClaimDelayAction, 0x184), expenditureSlot)\n        mstore(add(slotClaimDelayAction, 0x1a4), 1)     // claimDelay offset\n      }\n\n      return slotClaimDelayAction;\n\n    }\n  }\n}\n",
  "sourcePath": "/home/alex/colony/subgraph/colonyNetwork/contracts/extensions/votingReputation/VotingReputation.sol",
  "compiler": {
    "name": "solc",
    "version": "0.8.20+commit.a1b79de6.Linux.g++"
  },
  "schemaVersion": "3.4.14",
  "updatedAt": "2023-07-28T09:26:36.865Z",
  "devdoc": {
    "kind": "dev",
    "methods": {
      "executeMetaTransaction(address,bytes,bytes32,bytes32,uint8)": {
        "params": {
          "_payload": "Function call to make via meta transaction",
          "_sigR": "R part of the signature",
          "_sigS": "S part of the signature",
          "_sigV": "V part of the signature",
          "_user": "Address of user trying to do meta transaction"
        }
      }
    },
    "version": 1
  },
  "userdoc": {
    "kind": "user",
    "methods": {
      "executeMetaTransaction(address,bytes,bytes32,bytes32,uint8)": {
        "notice": "Main function to be called when user wants to execute meta transaction. The actual function to be called should be passed as param with name functionSignature Here the basic signature recovery is being used. Signature is expected to be generated using personal_sign method."
      }
    },
    "version": 1
  }
}