{
  "contractName": "Whitelist",
  "abi": [
    {
      "anonymous": false,
      "inputs": [
        {
          "indexed": true,
          "internalType": "address",
          "name": "_user",
          "type": "address"
        }
      ],
      "name": "AgreementSigned",
      "type": "event"
    },
    {
      "anonymous": false,
      "inputs": [],
      "name": "ExtensionInitialised",
      "type": "event"
    },
    {
      "anonymous": false,
      "inputs": [
        {
          "indexed": true,
          "internalType": "address",
          "name": "authority",
          "type": "address"
        }
      ],
      "name": "LogSetAuthority",
      "type": "event"
    },
    {
      "anonymous": false,
      "inputs": [
        {
          "indexed": true,
          "internalType": "address",
          "name": "owner",
          "type": "address"
        }
      ],
      "name": "LogSetOwner",
      "type": "event"
    },
    {
      "anonymous": false,
      "inputs": [
        {
          "indexed": false,
          "internalType": "address",
          "name": "user",
          "type": "address"
        },
        {
          "indexed": false,
          "internalType": "address payable",
          "name": "relayerAddress",
          "type": "address"
        },
        {
          "indexed": false,
          "internalType": "bytes",
          "name": "functionSignature",
          "type": "bytes"
        }
      ],
      "name": "MetaTransactionExecuted",
      "type": "event"
    },
    {
      "anonymous": false,
      "inputs": [
        {
          "indexed": true,
          "internalType": "address",
          "name": "_user",
          "type": "address"
        },
        {
          "indexed": false,
          "internalType": "bool",
          "name": "_status",
          "type": "bool"
        }
      ],
      "name": "UserApproved",
      "type": "event"
    },
    {
      "inputs": [],
      "name": "authority",
      "outputs": [
        {
          "internalType": "contract DSAuthority",
          "name": "",
          "type": "address"
        }
      ],
      "stateMutability": "view",
      "type": "function"
    },
    {
      "inputs": [
        {
          "internalType": "address",
          "name": "_user",
          "type": "address"
        },
        {
          "internalType": "bytes",
          "name": "_payload",
          "type": "bytes"
        },
        {
          "internalType": "bytes32",
          "name": "_sigR",
          "type": "bytes32"
        },
        {
          "internalType": "bytes32",
          "name": "_sigS",
          "type": "bytes32"
        },
        {
          "internalType": "uint8",
          "name": "_sigV",
          "type": "uint8"
        }
      ],
      "name": "executeMetaTransaction",
      "outputs": [
        {
          "internalType": "bytes",
          "name": "",
          "type": "bytes"
        }
      ],
      "stateMutability": "payable",
      "type": "function"
    },
    {
      "inputs": [
        {
          "internalType": "bytes4",
          "name": "_sig",
          "type": "bytes4"
        }
      ],
      "name": "getCapabilityRoles",
      "outputs": [
        {
          "internalType": "bytes32",
          "name": "",
          "type": "bytes32"
        }
      ],
      "stateMutability": "view",
      "type": "function"
    },
    {
      "inputs": [],
      "name": "getChainId",
      "outputs": [
        {
          "internalType": "uint256",
          "name": "",
          "type": "uint256"
        }
      ],
      "stateMutability": "view",
      "type": "function"
    },
    {
      "inputs": [],
      "name": "getColony",
      "outputs": [
        {
          "internalType": "address",
          "name": "",
          "type": "address"
        }
      ],
      "stateMutability": "view",
      "type": "function"
    },
    {
      "inputs": [],
      "name": "getDeprecated",
      "outputs": [
        {
          "internalType": "bool",
          "name": "",
          "type": "bool"
        }
      ],
      "stateMutability": "view",
      "type": "function"
    },
    {
      "inputs": [
        {
          "internalType": "bytes[]",
          "name": "data",
          "type": "bytes[]"
        }
      ],
      "name": "multicall",
      "outputs": [
        {
          "internalType": "bytes[]",
          "name": "results",
          "type": "bytes[]"
        }
      ],
      "stateMutability": "nonpayable",
      "type": "function"
    },
    {
      "inputs": [],
      "name": "owner",
      "outputs": [
        {
          "internalType": "address",
          "name": "",
          "type": "address"
        }
      ],
      "stateMutability": "view",
      "type": "function"
    },
    {
      "inputs": [
        {
          "internalType": "contract DSAuthority",
          "name": "authority_",
          "type": "address"
        }
      ],
      "name": "setAuthority",
      "outputs": [],
      "stateMutability": "nonpayable",
      "type": "function"
    },
    {
      "inputs": [
        {
          "internalType": "address",
          "name": "owner_",
          "type": "address"
        }
      ],
      "name": "setOwner",
      "outputs": [],
      "stateMutability": "nonpayable",
      "type": "function"
    },
    {
      "inputs": [
        {
          "internalType": "address",
          "name": "_owner",
          "type": "address"
        },
        {
          "internalType": "uint256",
          "name": "_nonce",
          "type": "uint256"
        },
        {
          "internalType": "uint256",
          "name": "_chainId",
          "type": "uint256"
        },
        {
          "internalType": "bytes",
          "name": "_payload",
          "type": "bytes"
        },
        {
          "internalType": "bytes32",
          "name": "_sigR",
          "type": "bytes32"
        },
        {
          "internalType": "bytes32",
          "name": "_sigS",
          "type": "bytes32"
        },
        {
          "internalType": "uint8",
          "name": "_sigV",
          "type": "uint8"
        }
      ],
      "name": "verify",
      "outputs": [
        {
          "internalType": "bool",
          "name": "",
          "type": "bool"
        }
      ],
      "stateMutability": "view",
      "type": "function"
    },
    {
      "inputs": [
        {
          "internalType": "address",
          "name": "userAddress",
          "type": "address"
        }
      ],
      "name": "getMetatransactionNonce",
      "outputs": [
        {
          "internalType": "uint256",
          "name": "nonce",
          "type": "uint256"
        }
      ],
      "stateMutability": "view",
      "type": "function"
    },
    {
      "inputs": [],
      "name": "identifier",
      "outputs": [
        {
          "internalType": "bytes32",
          "name": "_identifier",
          "type": "bytes32"
        }
      ],
      "stateMutability": "pure",
      "type": "function"
    },
    {
      "inputs": [],
      "name": "version",
      "outputs": [
        {
          "internalType": "uint256",
          "name": "_version",
          "type": "uint256"
        }
      ],
      "stateMutability": "pure",
      "type": "function"
    },
    {
      "inputs": [
        {
          "internalType": "address",
          "name": "_colony",
          "type": "address"
        }
      ],
      "name": "install",
      "outputs": [],
      "stateMutability": "nonpayable",
      "type": "function"
    },
    {
      "inputs": [],
      "name": "finishUpgrade",
      "outputs": [],
      "stateMutability": "nonpayable",
      "type": "function"
    },
    {
      "inputs": [
        {
          "internalType": "bool",
          "name": "_deprecated",
          "type": "bool"
        }
      ],
      "name": "deprecate",
      "outputs": [],
      "stateMutability": "nonpayable",
      "type": "function"
    },
    {
      "inputs": [],
      "name": "uninstall",
      "outputs": [],
      "stateMutability": "nonpayable",
      "type": "function"
    },
    {
      "inputs": [
        {
          "internalType": "bool",
          "name": "_useApprovals",
          "type": "bool"
        },
        {
          "internalType": "string",
          "name": "_agreementHash",
          "type": "string"
        }
      ],
      "name": "initialise",
      "outputs": [],
      "stateMutability": "nonpayable",
      "type": "function"
    },
    {
      "inputs": [
        {
          "internalType": "address[]",
          "name": "_users",
          "type": "address[]"
        },
        {
          "internalType": "bool",
          "name": "_status",
          "type": "bool"
        }
      ],
      "name": "approveUsers",
      "outputs": [],
      "stateMutability": "nonpayable",
      "type": "function"
    },
    {
      "inputs": [
        {
          "internalType": "string",
          "name": "_agreementHash",
          "type": "string"
        }
      ],
      "name": "signAgreement",
      "outputs": [],
      "stateMutability": "nonpayable",
      "type": "function"
    },
    {
      "inputs": [
        {
          "internalType": "address",
          "name": "_user",
          "type": "address"
        }
      ],
      "name": "isApproved",
      "outputs": [
        {
          "internalType": "bool",
          "name": "_approved",
          "type": "bool"
        }
      ],
      "stateMutability": "view",
      "type": "function"
    },
    {
      "inputs": [],
      "name": "getUseApprovals",
      "outputs": [
        {
          "internalType": "bool",
          "name": "_useApprovals",
          "type": "bool"
        }
      ],
      "stateMutability": "view",
      "type": "function"
    },
    {
      "inputs": [],
      "name": "getAgreementHash",
      "outputs": [
        {
          "internalType": "string",
          "name": "_hash",
          "type": "string"
        }
      ],
      "stateMutability": "view",
      "type": "function"
    },
    {
      "inputs": [
        {
          "internalType": "address",
          "name": "_user",
          "type": "address"
        }
      ],
      "name": "getApproval",
      "outputs": [
        {
          "internalType": "bool",
          "name": "_status",
          "type": "bool"
        }
      ],
      "stateMutability": "view",
      "type": "function"
    },
    {
      "inputs": [
        {
          "internalType": "address",
          "name": "_user",
          "type": "address"
        }
      ],
      "name": "getSignature",
      "outputs": [
        {
          "internalType": "bool",
          "name": "_status",
          "type": "bool"
        }
      ],
      "stateMutability": "view",
      "type": "function"
    }
  ],
  "bytecode": "0x608060405234801561001057600080fd5b50600180546001600160a01b031916339081179091556040517fce241d7ca1f669fee44b6fc00b8eba2df3bb514eed0f6f668f8f89096e81ed9490600090a26120b38061005e6000396000f3fe6080604052600436106101815760003560e01c80637998a1c4116100d1578063ac9650d81161008a578063bfd68ab711610064578063bfd68ab71461049d578063da076a87146104bb578063fcd91104146104f4578063fcf6ba931461051357600080fd5b8063ac9650d81461041a578063b3eac1d814610447578063bf7e214f1461047d57600080fd5b80637998a1c41461032f5780637a9e5e4b146103625780638da5cb5b146103825780639251cff4146103ba578063a11c1d51146103da578063a3087860146103fa57600080fd5b80632dfbb0831161013e57806354fd4d501161011857806354fd4d50146102c65780636281133d146102da578063673448dd146102fa578063696da9211461031a57600080fd5b80632dfbb0831461026f5780633408e4701461029e578063340df28f146102b157600080fd5b80630c53c51c146101865780630d638f30146101af57806313af4035146101c65780631bbfb009146101e6578063277fc0e9146102065780632a1b8f9b1461024f575b600080fd5b6101996101943660046117d0565b610532565b6040516101a69190611894565b60405180910390f35b3480156101bb57600080fd5b506101c461071b565b005b3480156101d257600080fd5b506101c46101e13660046118ae565b61075b565b3480156101f257600080fd5b506101c46102013660046118e4565b6107d7565b34801561021257600080fd5b5061023f6102213660046118ae565b6001600160a01b031660009081526006602052604090205460ff1690565b60405190151581526020016101a6565b34801561025b57600080fd5b506101c461026a3660046118ae565b610a5d565b34801561027b57600080fd5b5061029061028a3660046119a8565b50600090565b6040519081526020016101a6565b3480156102aa57600080fd5b5046610290565b3480156102bd57600080fd5b506101c4610b0a565b3480156102d257600080fd5b506004610290565b3480156102e657600080fd5b5061023f6102f53660046119d2565b610b3e565b34801561030657600080fd5b5061023f6103153660046118ae565b610c92565b34801561032657600080fd5b50610199610d5f565b34801561033b57600080fd5b507fc3d232a6c0e2fb343117f17a5ff344a1a84769265318c6d7a8d7d9b2f8bb49e3610290565b34801561036e57600080fd5b506101c461037d3660046118ae565b610df1565b34801561038e57600080fd5b506001546103a2906001600160a01b031681565b6040516001600160a01b0390911681526020016101a6565b3480156103c657600080fd5b506101c46103d5366004611a59565b610e6b565b3480156103e657600080fd5b506101c46103f5366004611a76565b610ebb565b34801561040657600080fd5b506101c4610415366004611ab3565b6110c0565b34801561042657600080fd5b5061043a610435366004611b03565b61129c565b6040516101a69190611b78565b34801561045357600080fd5b506102906104623660046118ae565b6001600160a01b031660009081526007602052604090205490565b34801561048957600080fd5b506000546103a2906001600160a01b031681565b3480156104a957600080fd5b506003546001600160a01b03166103a2565b3480156104c757600080fd5b5061023f6104d63660046118ae565b6001600160a01b031660009081526005602052604090205460ff1690565b34801561050057600080fd5b50600354600160a81b900460ff1661023f565b34801561051f57600080fd5b50600354600160a01b900460ff1661023f565b606061056186610557886001600160a01b031660009081526007602052604090205490565b4688888888610b3e565b6105c45760405162461bcd60e51b815260206004820152602960248201527f6d6574617472616e73616374696f6e2d7369676e65722d7369676e617475726560448201526805adad2e6dac2e8c6d60bb1b60648201526084015b60405180910390fd5b6105cd86611536565b600080306001600160a01b0316877f02bcc191e283bfba76a1369ec8ba06566f33010645097c104c312753e04935e88a60405160200161060f93929190611bda565b60408051601f198184030181529082905261062991611c13565b6000604051808303816000865af19150503d8060008114610666576040519150601f19603f3d011682016040523d82523d6000602084013e61066b565b606091505b5091509150816106ce5760405162461bcd60e51b815260206004820152602860248201527f636f6c6f6e792d6d65746174782d66756e6374696f6e2d63616c6c2d756e737560448201526718d8d95cdcd99d5b60c21b60648201526084016105bb565b7f5845892132946850460bff5a0083f71031bc5bf9aadcd40f1de79423eac9b10b886106f8611562565b8960405161070893929190611c2f565b60405180910390a1979650505050505050565b610731336000356001600160e01b031916611605565b61074d5760405162461bcd60e51b81526004016105bb90611c64565b6003546001600160a01b0316ff5b610771336000356001600160e01b031916611605565b61078d5760405162461bcd60e51b81526004016105bb90611c64565b600180546001600160a01b0319166001600160a01b0383169081179091556040517fce241d7ca1f669fee44b6fc00b8eba2df3bb514eed0f6f668f8f89096e81ed9490600090a250565b600354600160a81b900460ff16806107fd57506000600480546107f990611c92565b9050115b6108195760405162461bcd60e51b81526004016105bb90611ccc565b600354600160a01b900460ff16156108735760405162461bcd60e51b815260206004820152601b60248201527f636f6c6f6e792d657874656e73696f6e2d64657072656361746564000000000060448201526064016105bb565b600354600160a81b900460ff166108c55760405162461bcd60e51b815260206004820152601660248201527577686974656c6973742d6e6f2d617070726f76616c7360501b60448201526064016105bb565b6003546001600160a01b031663ab2f7ae26108de611562565b600160066040518463ffffffff1660e01b815260040161090093929190611d03565b602060405180830381865afa15801561091d573d6000803e3d6000fd5b505050506040513d601f19601f820116820180604052508101906109419190611d46565b6109865760405162461bcd60e51b81526020600482015260166024820152751dda1a5d195b1a5cdd0b5d5b985d5d1a1bdc9a5cd95960521b60448201526064016105bb565b60005b8251811015610a585781600560008584815181106109a9576109a9611d63565b60200260200101516001600160a01b03166001600160a01b0316815260200190815260200160002060006101000a81548160ff0219169083151502179055508281815181106109fa576109fa611d63565b60200260200101516001600160a01b03167f60dc44a8ff6f8c563265a9654c756ef7d51cb49658531b2c735ef754c74e8a3483604051610a3e911515815260200190565b60405180910390a280610a5081611d79565b915050610989565b505050565b610a73336000356001600160e01b031916611605565b610a8f5760405162461bcd60e51b81526004016105bb90611c64565b6003546001600160a01b031615610ae85760405162461bcd60e51b815260206004820152601b60248201527f657874656e73696f6e2d616c72656164792d696e7374616c6c6564000000000060448201526064016105bb565b600380546001600160a01b0319166001600160a01b0392909216919091179055565b610b20336000356001600160e01b031916611605565b610b3c5760405162461bcd60e51b81526004016105bb90611c64565b565b600080610bbb88308989604051602001610b5b9493929190611da0565b60408051601f1981840301815282825280516020918201207f19457468657265756d205369676e6564204d6573736167653a0a33320000000084830152603c8085019190915282518085039091018152605c909301909152815191012090565b6040805160008082526020820180845284905260ff87169282019290925260608101889052608081018790529192509060019060a0016020604051602081039080840390855afa158015610c13573d6000803e3d6000fd5b5050604051601f1901519150506001600160a01b038116610c765760405162461bcd60e51b815260206004820152601f60248201527f636f6c6f6e792d6d65746174782d696e76616c69642d7369676e61747572650060448201526064016105bb565b6001600160a01b038a8116911614915050979650505050505050565b600354600090600160a81b900460ff1680610cbb5750600060048054610cb790611c92565b9050115b610cd75760405162461bcd60e51b81526004016105bb90611ccc565b600354600160a01b900460ff16158015610d1d5750600354600160a81b900460ff161580610d1d57506001600160a01b03821660009081526005602052604090205460ff165b8015610d57575060048054610d3190611c92565b15905080610d5757506001600160a01b03821660009081526006602052604090205460ff165b90505b919050565b606060048054610d6e90611c92565b80601f0160208091040260200160405190810160405280929190818152602001828054610d9a90611c92565b8015610de75780601f10610dbc57610100808354040283529160200191610de7565b820191906000526020600020905b815481529060010190602001808311610dca57829003601f168201915b5050505050905090565b610e07336000356001600160e01b031916611605565b610e235760405162461bcd60e51b81526004016105bb90611c64565b600080546001600160a01b0319166001600160a01b038316908117825560405190917f1abebea81bfa2637f28358c371278fb15ede7ea8dd28d2e03b112ff6d936ada491a250565b610e81336000356001600160e01b031916611605565b610e9d5760405162461bcd60e51b81526004016105bb90611c64565b60038054911515600160a01b0260ff60a01b19909216919091179055565b600354600160a81b900460ff1680610ee15750600060048054610edd90611c92565b9050115b610efd5760405162461bcd60e51b81526004016105bb90611ccc565b600354600160a01b900460ff1615610f575760405162461bcd60e51b815260206004820152601b60248201527f636f6c6f6e792d657874656e73696f6e2d64657072656361746564000000000060448201526064016105bb565b600060048054610f6690611c92565b905011610fae5760405162461bcd60e51b81526020600482015260166024820152751dda1a5d195b1a5cdd0b5b9bcb5859dc99595b595b9d60521b60448201526064016105bb565b80604051602001610fbf9190611c13565b604051602081830303815290604052805190602001206004604051602001610fe79190611de6565b604051602081830303815290604052805190602001201461104a5760405162461bcd60e51b815260206004820152601760248201527f77686974656c6973742d6261642d7369676e617475726500000000000000000060448201526064016105bb565b600160066000611058611562565b6001600160a01b031681526020810191909152604001600020805460ff1916911515919091179055611088611562565b6001600160a01b03167f5cca47fc45be2c2c68100afd7cd2431116c0c535c159e4f6c7e63934cf9f7aad60405160405180910390a250565b6003546001600160a01b031663ab2f7ae26110d9611562565b6001806040518463ffffffff1660e01b81526004016110fa93929190611d03565b602060405180830381865afa158015611117573d6000803e3d6000fd5b505050506040513d601f19601f8201168201806040525081019061113b9190611d46565b6111805760405162461bcd60e51b81526020600482015260166024820152751dda1a5d195b1a5cdd0b5d5b985d5d1a1bdc9a5cd95960521b60448201526064016105bb565b600354600160a81b900460ff161580156111a65750600480546111a290611c92565b1590505b6111f25760405162461bcd60e51b815260206004820152601d60248201527f77686974656c6973742d616c72656164792d696e697469616c6973656400000060448201526064016105bb565b81806111ff575060008151115b61124b5760405162461bcd60e51b815260206004820152601c60248201527f77686974656c6973742d6261642d696e697469616c69736174696f6e0000000060448201526064016105bb565b6003805460ff60a81b1916600160a81b84151502179055600461126e8282611eaa565b506040517f690c4b6201f6a4c703f9d21c205d98a08dff8461e7a71e49c6d47cc8b894850190600090a15050565b606060006112a8611562565b9050606033301480156112c457506001600160a01b0382163014155b15611329577f02bcc191e283bfba76a1369ec8ba06566f33010645097c104c312753e04935e88260405160200161131792919091825260601b6bffffffffffffffffffffffff1916602082015260340190565b60405160208183030381529060405290505b8367ffffffffffffffff811115611342576113426116fa565b60405190808252806020026020018201604052801561137557816020015b60608152602001906001900390816113605790505b50925060005b8481101561152d57631592ca1b60e31b86868381811061139d5761139d611d63565b90506020028101906113af9190611f6a565b6113b891611fb8565b6001600160e01b031916036114195760405162461bcd60e51b815260206004820152602160248201527f636f6c6f6e792d6d756c746963616c6c2d63616e6e6f742d6d756c746963616c6044820152601b60fa1b60648201526084016105bb565b6000803088888581811061142f5761142f611d63565b90506020028101906114419190611f6a565b8660405160200161145493929190611fe8565b60408051601f198184030181529082905261146e91611c13565b600060405180830381855af49150503d80600081146114a9576040519150601f19603f3d011682016040523d82523d6000602084013e6114ae565b606091505b5091509150816114fa576044815110156114c757600080fd5b600481019050808060200190518101906114e1919061200f565b60405162461bcd60e51b81526004016105bb9190611894565b8086848151811061150d5761150d611d63565b60200260200101819052505050808061152590611d79565b91505061137b565b50505092915050565b6001600160a01b038116600090815260076020526040812080549161155a83611d79565b919050555050565b6000363330148015611575575060348110155b156115fe57600080368080601f01602080910402602001604051908101604052809392919081815260200183838082843760009201919091525050505082810160131901519091507f02bcc191e283bfba76a1369ec8ba06566f33010645097c104c312753e04935e881146115ed5733935050505090565b5001516001600160a01b0316919050565b3391505090565b6000306001600160a01b0384160361161f575060016116dc565b6001546001600160a01b039081169084160361163d575060016116dc565b6000546001600160a01b0316611655575060006116dc565b60005460405163b700961360e01b81526001600160a01b0385811660048301523060248301526001600160e01b0319851660448301529091169063b700961390606401602060405180830381865afa1580156116b5573d6000803e3d6000fd5b505050506040513d601f19601f820116820180604052508101906116d99190611d46565b90505b92915050565b6001600160a01b03811681146116f757600080fd5b50565b634e487b7160e01b600052604160045260246000fd5b604051601f8201601f1916810167ffffffffffffffff81118282101715611739576117396116fa565b604052919050565b600067ffffffffffffffff82111561175b5761175b6116fa565b50601f01601f191660200190565b600082601f83011261177a57600080fd5b813561178d61178882611741565b611710565b8181528460208386010111156117a257600080fd5b816020850160208301376000918101602001919091529392505050565b803560ff81168114610d5a57600080fd5b600080600080600060a086880312156117e857600080fd5b85356117f3816116e2565b9450602086013567ffffffffffffffff81111561180f57600080fd5b61181b88828901611769565b9450506040860135925060608601359150611838608087016117bf565b90509295509295909350565b60005b8381101561185f578181015183820152602001611847565b50506000910152565b60008151808452611880816020860160208601611844565b601f01601f19169290920160200192915050565b6020815260006118a76020830184611868565b9392505050565b6000602082840312156118c057600080fd5b81356118a7816116e2565b80151581146116f757600080fd5b8035610d5a816118cb565b600080604083850312156118f757600080fd5b823567ffffffffffffffff8082111561190f57600080fd5b818501915085601f83011261192357600080fd5b8135602082821115611937576119376116fa565b8160051b9250611948818401611710565b828152928401810192818101908985111561196257600080fd5b948201945b8486101561198c578535935061197c846116e2565b8382529482019490820190611967565b965061199b90508782016118d9565b9450505050509250929050565b6000602082840312156119ba57600080fd5b81356001600160e01b0319811681146118a757600080fd5b600080600080600080600060e0888a0312156119ed57600080fd5b87356119f8816116e2565b96506020880135955060408801359450606088013567ffffffffffffffff811115611a2257600080fd5b611a2e8a828b01611769565b9450506080880135925060a08801359150611a4b60c089016117bf565b905092959891949750929550565b600060208284031215611a6b57600080fd5b81356118a7816118cb565b600060208284031215611a8857600080fd5b813567ffffffffffffffff811115611a9f57600080fd5b611aab84828501611769565b949350505050565b60008060408385031215611ac657600080fd5b8235611ad1816118cb565b9150602083013567ffffffffffffffff811115611aed57600080fd5b611af985828601611769565b9150509250929050565b60008060208385031215611b1657600080fd5b823567ffffffffffffffff80821115611b2e57600080fd5b818501915085601f830112611b4257600080fd5b813581811115611b5157600080fd5b8660208260051b8501011115611b6657600080fd5b60209290920196919550909350505050565b6000602080830181845280855180835260408601915060408160051b870101925083870160005b82811015611bcd57603f19888603018452611bbb858351611868565b94509285019290850190600101611b9f565b5092979650505050505050565b60008451611bec818460208901611844565b919091019283525060601b6bffffffffffffffffffffffff19166020820152603401919050565b60008251611c25818460208701611844565b9190910192915050565b6001600160a01b03848116825283166020820152606060408201819052600090611c5b90830184611868565b95945050505050565b602080825260149082015273191ccb585d5d1a0b5d5b985d5d1a1bdc9a5e995960621b604082015260600190565b600181811c90821680611ca657607f821691505b602082108103611cc657634e487b7160e01b600052602260045260246000fd5b50919050565b60208082526019908201527f77686974656c6973742d6e6f742d696e697469616c6973656400000000000000604082015260600190565b6001600160a01b0384168152602081018390526060810160088310611d3857634e487b7160e01b600052602160045260246000fd5b826040830152949350505050565b600060208284031215611d5857600080fd5b81516118a7816118cb565b634e487b7160e01b600052603260045260246000fd5b600060018201611d9957634e487b7160e01b600052601160045260246000fd5b5060010190565b8481526bffffffffffffffffffffffff198460601b16602082015282603482015260008251611dd6816054850160208701611844565b9190910160540195945050505050565b6000808354611df481611c92565b60018281168015611e0c5760018114611e2157611e50565b60ff1984168752821515830287019450611e50565b8760005260208060002060005b85811015611e475781548a820152908401908201611e2e565b50505082870194505b50929695505050505050565b601f821115610a5857600081815260208120601f850160051c81016020861015611e835750805b601f850160051c820191505b81811015611ea257828155600101611e8f565b505050505050565b815167ffffffffffffffff811115611ec457611ec46116fa565b611ed881611ed28454611c92565b84611e5c565b602080601f831160018114611f0d5760008415611ef55750858301515b600019600386901b1c1916600185901b178555611ea2565b600085815260208120601f198616915b82811015611f3c57888601518255948401946001909101908401611f1d565b5085821015611f5a5787850151600019600388901b60f8161c191681555b5050505050600190811b01905550565b6000808335601e19843603018112611f8157600080fd5b83018035915067ffffffffffffffff821115611f9c57600080fd5b602001915036819003821315611fb157600080fd5b9250929050565b6001600160e01b03198135818116916004851015611fe05780818660040360031b1b83161692505b505092915050565b828482376000838201600081528351612005818360208801611844565b0195945050505050565b60006020828403121561202157600080fd5b815167ffffffffffffffff81111561203857600080fd5b8201601f8101841361204957600080fd5b805161205761178882611741565b81815285602083850101111561206c57600080fd5b611c5b82602083016020860161184456fea26469706673582212201d0c700281d2b4dfe75f59253200d35d034593e94f6a96b07553a50fa9a4060864736f6c63430008140033",
  "immutableReferences": {},
  "source": "/*\n  This file is part of The Colony Network.\n\n  The Colony Network is free software: you can redistribute it and/or modify\n  it under the terms of the GNU General Public License as published by\n  the Free Software Foundation, either version 3 of the License, or\n  (at your option) any later version.\n\n  The Colony Network is distributed in the hope that it will be useful,\n  but WITHOUT ANY WARRANTY; without even the implied warranty of\n  MERCHANTABILITY or FITNESS FOR A PARTICULAR PURPOSE.  See the\n  GNU General Public License for more details.\n\n  You should have received a copy of the GNU General Public License\n  along with The Colony Network. If not, see <http://www.gnu.org/licenses/>.\n*/\n\npragma solidity 0.8.20;\npragma experimental ABIEncoderV2;\n\nimport \"./../common/BasicMetaTransaction.sol\";\nimport \"./ColonyExtension.sol\";\n\n// ignore-file-swc-108\n\n\ncontract Whitelist is ColonyExtension, BasicMetaTransaction {\n\n  //  Events\n\n  event UserApproved(address indexed _user, bool _status);\n  event AgreementSigned(address indexed _user);\n\n  // Storage\n\n  bool useApprovals;\n  string agreementHash;\n\n  mapping (address => bool) approvals;\n  mapping (address => bool) signatures;\n  mapping(address => uint256) metatransactionNonces;\n\n  /// @notice Gets the next nonce for a meta-transaction\n  /// @param userAddress The user's address\n  /// @return nonce The nonce\n  function getMetatransactionNonce(address userAddress) override public view returns (uint256 nonce){\n    return metatransactionNonces[userAddress];\n  }\n\n  function incrementMetatransactionNonce(address user) override internal {\n    metatransactionNonces[user]++;\n  }\n\n\n  // Modifiers\n\n  modifier initialised() {\n    require(useApprovals || bytes(agreementHash).length > 0, \"whitelist-not-initialised\");\n    _;\n  }\n\n  // Public\n\n  /// @notice Returns the identifier of the extension\n  /// @return _identifier The extension's identifier\n  function identifier() public override pure returns (bytes32 _identifier) {\n    return keccak256(\"Whitelist\");\n  }\n\n  /// @notice Returns the version of the extension\n  /// @return _version The extension's version number\n  function version() public override pure returns (uint256 _version) {\n    return 4;\n  }\n\n  /// @notice Configures the extension\n  /// @param _colony The colony in which the extension holds permissions\n  function install(address _colony) public override auth {\n    require(address(colony) == address(0x0), \"extension-already-installed\");\n\n    colony = IColony(_colony);\n  }\n\n  /// @notice Called when upgrading the extension\n  function finishUpgrade() public override auth {}\n\n  /// @notice Called when deprecating (or undeprecating) the extension\n  /// @param _deprecated Indicates whether the extension should be deprecated or undeprecated\n  function deprecate(bool _deprecated) public override auth {\n    deprecated = _deprecated;\n  }\n\n  /// @notice Called when uninstalling the extension\n  function uninstall() public override auth {\n    selfdestruct(payable(address(colony)));\n  }\n\n  /// @notice Initialise the extension\n  /// @param _useApprovals Whether or not to require administrative approval\n  /// @param _agreementHash An agreement hash (such as an IPFS URI)\n  function initialise(bool _useApprovals, string memory _agreementHash) public {\n    require(colony.hasUserRole(msgSender(), 1, ColonyDataTypes.ColonyRole.Root), \"whitelist-unauthorised\");\n    require(!useApprovals && bytes(agreementHash).length == 0, \"whitelist-already-initialised\");\n    require(_useApprovals || bytes(_agreementHash).length > 0, \"whitelist-bad-initialisation\");\n\n    useApprovals = _useApprovals;\n    agreementHash = _agreementHash;\n\n    emit ExtensionInitialised();\n  }\n\n  /// @notice Sets user statuses in the whitelist\n  /// @param _users An array of user addresses\n  /// @param _status The whitelist status to set\n  function approveUsers(address[] memory _users, bool _status) public initialised notDeprecated {\n    require(useApprovals, \"whitelist-no-approvals\");\n    require(colony.hasUserRole(msgSender(), 1, ColonyDataTypes.ColonyRole.Administration), \"whitelist-unauthorised\");\n\n    for (uint256 i; i < _users.length; i++) {\n      approvals[_users[i]] = _status;\n\n      emit UserApproved(_users[i], _status);\n    }\n  }\n\n  /// @notice The user's signature on the agreement\n  /// @param _agreementHash The agreement hash being signed\n  function signAgreement(string memory _agreementHash) public initialised notDeprecated {\n    require(bytes(agreementHash).length > 0, \"whitelist-no-agreement\");\n    require(\n      keccak256(abi.encodePacked(agreementHash)) ==\n      keccak256(abi.encodePacked(_agreementHash)),\n      \"whitelist-bad-signature\"\n    );\n\n    signatures[msgSender()] = true;\n\n    emit AgreementSigned(msgSender());\n  }\n\n  /// @notice Get the user's overall whitelist status\n  /// @param _user The address of the user\n  /// @return _approved Is `true` when the user is approved\n  function isApproved(address _user) public initialised view returns (bool _approved) {\n    return (\n      !deprecated &&\n      (!useApprovals || approvals[_user]) &&\n      (bytes(agreementHash).length == 0 || signatures[_user])\n    );\n  }\n\n  /// @notice Get the useApprovals boolean\n  /// @return _useApprovals Whether `useApprovals` is `true`\n  function getUseApprovals() public view returns (bool _useApprovals) {\n    return useApprovals;\n  }\n\n  /// @notice Get the agreementHash\n  /// @return _hash The agreement hash\n  function getAgreementHash() public view returns (string memory _hash) {\n    return agreementHash;\n  }\n\n  /// @notice Get the user's approval status\n  /// @param _user The address of the user\n  /// @return _status The user's approval status\n  function getApproval(address _user) public view returns (bool _status) {\n    return approvals[_user];\n  }\n\n  /// @notice Get the user's signature status\n  /// @param _user The address of the user\n  /// @return _status The user's signature status\n  function getSignature(address _user) public view returns (bool _status) {\n    return signatures[_user];\n  }\n}\n",
  "sourcePath": "/home/alex/colony/subgraph/colonyNetwork/contracts/extensions/Whitelist.sol",
  "compiler": {
    "name": "solc",
    "version": "0.8.20+commit.a1b79de6.Linux.g++"
  },
  "schemaVersion": "3.4.14",
  "updatedAt": "2023-07-28T09:26:36.850Z",
  "devdoc": {
    "kind": "dev",
    "methods": {
      "approveUsers(address[],bool)": {
        "params": {
          "_status": "The whitelist status to set",
          "_users": "An array of user addresses"
        }
      },
      "deprecate(bool)": {
        "params": {
          "_deprecated": "Indicates whether the extension should be deprecated or undeprecated"
        }
      },
      "executeMetaTransaction(address,bytes,bytes32,bytes32,uint8)": {
        "params": {
          "_payload": "Function call to make via meta transaction",
          "_sigR": "R part of the signature",
          "_sigS": "S part of the signature",
          "_sigV": "V part of the signature",
          "_user": "Address of user trying to do meta transaction"
        }
      },
      "getAgreementHash()": {
        "returns": {
          "_hash": "The agreement hash"
        }
      },
      "getApproval(address)": {
        "params": {
          "_user": "The address of the user"
        },
        "returns": {
          "_status": "The user's approval status"
        }
      },
      "getMetatransactionNonce(address)": {
        "params": {
          "userAddress": "The user's address"
        },
        "returns": {
          "nonce": "The nonce"
        }
      },
      "getSignature(address)": {
        "params": {
          "_user": "The address of the user"
        },
        "returns": {
          "_status": "The user's signature status"
        }
      },
      "getUseApprovals()": {
        "returns": {
          "_useApprovals": "Whether `useApprovals` is `true`"
        }
      },
      "identifier()": {
        "returns": {
          "_identifier": "The extension's identifier"
        }
      },
      "initialise(bool,string)": {
        "params": {
          "_agreementHash": "An agreement hash (such as an IPFS URI)",
          "_useApprovals": "Whether or not to require administrative approval"
        }
      },
      "install(address)": {
        "params": {
          "_colony": "The colony in which the extension holds permissions"
        }
      },
      "isApproved(address)": {
        "params": {
          "_user": "The address of the user"
        },
        "returns": {
          "_approved": "Is `true` when the user is approved"
        }
      },
      "signAgreement(string)": {
        "params": {
          "_agreementHash": "The agreement hash being signed"
        }
      },
      "version()": {
        "returns": {
          "_version": "The extension's version number"
        }
      }
    },
    "version": 1
  },
  "userdoc": {
    "kind": "user",
    "methods": {
      "approveUsers(address[],bool)": {
        "notice": "Sets user statuses in the whitelist"
      },
      "deprecate(bool)": {
        "notice": "Called when deprecating (or undeprecating) the extension"
      },
      "executeMetaTransaction(address,bytes,bytes32,bytes32,uint8)": {
        "notice": "Main function to be called when user wants to execute meta transaction. The actual function to be called should be passed as param with name functionSignature Here the basic signature recovery is being used. Signature is expected to be generated using personal_sign method."
      },
      "finishUpgrade()": {
        "notice": "Called when upgrading the extension"
      },
      "getAgreementHash()": {
        "notice": "Get the agreementHash"
      },
      "getApproval(address)": {
        "notice": "Get the user's approval status"
      },
      "getMetatransactionNonce(address)": {
        "notice": "Gets the next nonce for a meta-transaction"
      },
      "getSignature(address)": {
        "notice": "Get the user's signature status"
      },
      "getUseApprovals()": {
        "notice": "Get the useApprovals boolean"
      },
      "identifier()": {
        "notice": "Returns the identifier of the extension"
      },
      "initialise(bool,string)": {
        "notice": "Initialise the extension"
      },
      "install(address)": {
        "notice": "Configures the extension"
      },
      "isApproved(address)": {
        "notice": "Get the user's overall whitelist status"
      },
      "signAgreement(string)": {
        "notice": "The user's signature on the agreement"
      },
      "uninstall()": {
        "notice": "Called when uninstalling the extension"
      },
      "version()": {
        "notice": "Returns the version of the extension"
      }
    },
    "version": 1
  }
}